:100000000C94B5020C94072B0C94ED020C94ED02A9
:100010000C94ED020C94ED020C94ED020C94ED02A4
:100020000C94ED020C94ED020C9429300C94FC30ED
:100030000C945A290C94ED020C94ED020C94ED02F0
:100040000C94ED020C94ED020C94ED020C94ED0274
:100050000C94ED020C94122A0C94ED020C94ED0217
:100060000C94ED020C94ED020C94ED020C94ED0254
:100070000C94ED020C94ED020C94ED020C94ED0244
:100080000C94ED020C94ED020C94ED020C94ED0234
:100090000C94ED020C94ED020C94ED020C94ED0224
:1000A0000C94ED020C94ED020C94ED0229001E005C
:1000B0001F002000210022002B0014001A0008005D
:1000C00015001700E00004001600070009000A00F0
:1000D000E1001D001B0006001900050000000000E3
:1000E000E20021522C002F003100270026002500BD
:1000F000240023002A00130012000C0018001C002A
:10010000340033000F000E000D000B00E500380036
:10011000370036001000110000000000E7002252F6
:100120002800300035020000000000000000000040
:10013000350000000000520000000000E000000058
:10014000500051004F000000E100000000000000DE
:100150000000000000000000E200000000000000BD
:1001600000002E0256000000000000002A002E00B1
:100170002D02000000000000E40000004F005200CB
:1001800051005000E50000000000000000000000E9
:100190000000000000000000000000003A003B00EA
:1001A0003C003D003E003F000000DF00D100CD00DC
:1001B000D200B700E000D300CF00CE00D000B600E0
:1001C000E10000000000000000000000000000004E
:1001D000E20000000000000045004400430042002F
:1001E000410040004C000000267829780000AC0057
:1001F0004A0000002C782A782078AE004D000000DC
:10020000A900AA00A800AB00000000000000000048
:10021000000000001E0F0500047F3F1F64321464BD
:100220003214783C1E1E140A052223252628292A6A
:100230002C2D2F3032333536383A3B3D3E40424349
:100240004547494A4C4E5051535557595A5C5E6088
:1002500062646668696B6D6F71737577797B7D7F9A
:1002600081838587898A8C8E90929496989A9C9E99
:100270009FA1A3A5A7A8AAACAEAFB1B3B4B6B8B9B5
:10028000BBBCBEBFC1C2C3C5C6C7C9CACBCCCDCE1D
:10029000D0D1D2D2D3D4D5D6D7D7D8D9D9DADADB00
:1002A000DBDBDCDCDCDCDCDDDDDDDDDCDCDCDCDC8C
:1002B000DBDBDBDADAD9D9D8D7D7D6D5D4D3D2D2CB
:1002C000D1D0CECDCCCBCAC9C7C6C5C3C2C1BFBEB3
:1002D000BCBBB9B8B6B4B3B1AFAEACAAA8A7A5A31E
:1002E000A19F9E9C9A98969492908E8C8A898785DD
:1002F00083817F7D7B79777573716F6D6B696866BC
:100300006462605E5C5A5957555351504E4C4A498D
:1003100047454342403E3D3B3A3836353332302F35
:100320002D2C2A292826252322FFAA7F55400001AB
:1003300001010101010101010202020202020202A5
:100340000203030303030303030404040404040477
:10035000050505050506060606060707070707083B
:10036000080808090909090A0A0A0B0B0B0C0C0CEE
:100370000D0D0D0E0E0E0F0F0F1010111111121288
:1003800013131414151516161717181819191A1A05
:100390001B1B1C1D1D1E1E1F202021222223242466
:1003A000252626272829292A2B2C2D2D2E2F3031A2
:1003B0003232333435363738393A3B3C3D3E3F40B4
:1003C0004142434445464748494A4C4D4E4F50519F
:1003D0005354555658595A5B5D5E5F616264656659
:1003E00068696B6C6D6F7072737577787A7B7D7EE0
:1003F0008082838587888A8C8E8F91939596989A30
:100400009C9EA0A2A3A5A7A9ABADAFB1B3B5B7BA47
:10041000BCBEC0C2C4C6C9CBCDCFD1D4D6D8DBDD1B
:10042000DFE2E4E7E9EBEEF0F3F5F8FAFDFF1A039B
:1004300049007200690073002000520065007600D8
:100440002E0020003500610000000E034B00650007
:100450006500620069006F000000040309040902DE
:100460003B00020100A0FA090400000103010100A1
:100470000921110100012244000705810308000140
:1004800009040100010300000009211101000122FB
:100490007B0007058203200001120100020000001A
:1004A0000810CB565310050102000105010902A1F5
:1004B0000185020901A10005091901290815002576
:1004C0000195087501810205010930093115812561
:1004D0007F95027508810609381581257F9501757C
:1004E000088106050C0A38021581257F95017508DB
:1004F0008106C0C005010980A101850319012AB741
:1005000000150126B700950175108100C0050C0982
:1005100001A101850419012AA002150126A0029556
:100520000175108100C005010906A101050719E048
:1005300029E71500250195087501810295017508C7
:1005400081010507190029FF150026FF0095067592
:100550000881000508190129051500250195057573
:10056000019102950175039101C011241FBECFEFC7
:10057000DAE0DEBFCDBF04B603FE18C08091F203FF
:100580009091F303A091F403B091F5038730904B61
:10059000A740B04B59F41092F2031092F30310925B
:1005A000F4031092F503E0E0F8E3099512E0A0E00F
:1005B000B1E0ECE4FAE602C005900D92AC33B1076D
:1005C000D9F723E0ACE3B2E001C01D92A23FB2072D
:1005D000E1F70E94B6160C94C7340C940000CF9338
:1005E000DF93D82FC62F0E94AF21882341F0D1116D
:1005F0000AC089EAC11101C08AEA0E945B0580E055
:10060000DF91CF910895D130D1F78EE4C111F5CFAC
:100610008BE4F3CF8330B8F46A30A8F4463098F412
:10062000E42FF0E096E0699FE00DF11D11249CE3BA
:10063000899FE00DF11D1124EE0FFF1FE455FF4FC0
:1006400085919491089581E090E008950E940A03B5
:10065000089581E008950E942903089581E0089596
:100660000E94290308950E943003089508950E946E
:1006700036030895A6E0B0E0E0E4F3E00C947333B1
:1006800049835A839E833091430289819A81311133
:100690001AC03E81332399F0222389F00E94130966
:1006A000182F682F89819A810E94EF0869817A81C9
:1006B000812F0E9403102696E3E00C948F330E9452
:1006C0000109182FF3CF0E94130969817A81F1CFB4
:1006D000FC01262F40815181628173818481958143
:1006E0000E943A030895CF93DF93D82FC92F61E07A
:1006F0000E9468036D2F7C2F0E942B03DF91CF9106
:100700000895CF93DF93D82FC92F60E00E9468032C
:100710006D2F7C2F0E943703DF91CF91089521E048
:1007200030E0A90102C0440F551F8A95E2F7CA01C3
:100730000E9410080895CF93C82F81E090E00C2EFE
:1007400002C0880F991F0A94E2F70E94440D8C2F73
:100750000E948F03CF91089581E008950E94AC0319
:100760000895CF93C82F0E94C1078C2F0E94AE031B
:100770002FEF84E39CE0215080409040E1F700C0DF
:100780000000CF91089581E00E94B1030E94362AB3
:10079000089580E00E94B1030E945A2A08950F93A1
:1007A0001F93CF93DF938C0161E00E946803EC01FB
:1007B000F801858181110E944D1FB801CE010E9470
:1007C0003303882309F449C0B801CE010E943920BF
:1007D000882309F442C0B801CE010E943227882341
:1007E000E1F1B801CE010E9466238823B1F1B8017E
:1007F000CE010E943B23882381F1B801CE010E94E3
:10080000D016882351F1B801CE010E947D118823B2
:1008100021F1F8018581882381F0CA35FCE7DF07E3
:1008200039F178F4C130ECE7DE07F9F0C330FCE7CA
:10083000DF07C9F0C115DC4771F0C8010E942E0323
:100840000DC0CB35ECE7DE07B1F0CC35DC47A9F7BE
:100850000E94150DF2CF0E94C30380E0DF91CF917B
:100860001F910F9108950E94270D0E94C903F5CF93
:100870000E941F0DE2CF0E94230DDFCF0E94372977
:1008800080E00E9418200E94630408950E946C1F5B
:100890000E9467040E943C29089581E0089508950C
:1008A000CF93DF93D82F0E944D04C82F882319F0CF
:1008B0008D2F0E944F048C2FDF91CF9108950895C2
:1008C0000E945004089580E00E94600408950E94F0
:1008D00078270E9460040895CF930E947827C82F3C
:1008E00080913E028C1779F0C0933E020E94C62987
:1008F00060933F02709340028093410290934202C2
:100900008C2F0E946004CF910895ADE0B0E0EBE839
:10091000F4E00C947433488759876A877B878C8707
:100920009D8791110E94520C1F8286E0FE0138962D
:10093000DE01119601900D928A95E1F78D8181116A
:100940000DC029813A814B815C816D817E818F81CF
:100950000E94980B2D96E2E00C949033CE01019604
:100960000E9473038111EDCFF5CFFC0184818130AA
:1009700021F4808191810E9445090895662329F020
:100980000E94D4240E94952508950E941D25FACF27
:10099000CF93C82F882399F08CEF8C0F813A88F47D
:1009A0008C2F0E940628882329F08C2F0E944B2828
:1009B0000E94C30C8C2F0E9443280E94C30CCF912D
:1009C000089580E28C0F883048F4C77081E001C040
:1009D000880FCA95EAF70E94330CEFCF8BE58C0F96
:1009E000833038F42C2F2452330BC9010E94A627E0
:1009F000E6CFE8E5EC0FEB3150F4F0E0EE0FFF1F2F
:100A0000E358FE4F808191810E94CC27D8CF83E3A9
:100A10008C0F8331A0F661E08C2F0E94BE04CFCFF3
:100A2000882381F19CEF980F913A28F40E944B287B
:100A30000E94C30C089590E2980F983050F487708C
:100A400091E001C0990F8A95EAF7892F0E94390C2D
:100A5000EFCF9BE5980F933028F480E090E00E9460
:100A6000A627089598E5980F9B3128F480E090E040
:100A70000E94CC27089593E3980F933118F460E017
:100A80000E94BE0408951F93CF93DF93182FEB01AC
:100A90000E94C804209739F4812F0E941005DF912D
:100AA000CF911F9108958FE99FE00197F1F700C062
:100AB00000002197EFCF60E070E0893311F460E52A
:100AC00070E00E9443050895882321F00E94330CB2
:100AD0000E94C30C0895882321F00E94390C0E94C3
:100AE000C30C0895A0E0B0E0E8E7F5E00C946E33A5
:100AF0006C01D62FC72FFC011581068102950F705E
:100B00000E94280CE82E8823F9F0E12E1123E1F051
:100B10008C2F807F803461F080E28D0F8830F0F080
:100B20008C2F807E803221F4D230C0F00023B1F0CF
:100B30008091990382FF12C082E00E94E80C0E941B
:100B4000280C91E0E82EE926EC2FE295EF70C03CEE
:100B5000B0F5F0E0E753FB4C0C942D33E12CF4CFCF
:100B60000C2F0F70C03110F00295007F112399F007
:100B7000002359F080E28D0F883010F0D11107C0AA
:100B8000802F0E94330C0E94C30C8D2F51C0802FE8
:100B90000E94440CF8CF8D2F0E941005002379F09D
:100BA00080E28D0F883010F0D11104C0802F0E9498
:100BB000390C03C0802F0E944A0C0E94C30CEE2007
:100BC00089F00E94240C80FD0DC0F60115820E9460
:100BD0001E0C0E944C08C6010E9488070E941E0C31
:100BE0000E945C08CDB7DEB7E8E00C948A33FC2F96
:100BF000FF70FF2EC07FC03219F0F29480EFF82210
:100C0000DD2341F0D130D1F1112309F444C0002398
:100C1000F1F0BBCF8091990382FD15C0112359F0EB
:100C2000FF2029F08F2D0E94330C0E94C30C80E01E
:100C30000E94C804C4CF80E00E941005FF2009F480
:100C4000BECF8F2DB4CF112369F0011104C08F2DB9
:100C50000E946405B4CF013009F0B1CF8F2D0E94FE
:100C60006A0CADCF0111ABCF8F2D0E946B058F2D7C
:100C70000E94760C8F2D0E94590CA1CF112321F0D8
:100C8000063008F09CCFE3CF053008F098CF8F2DC9
:100C90000E946B0594CF0023D1F3D93349F42FEF91
:100CA00087EE93E0215080409040E1F700C00000C3
:100CB0008D2F0E94100583CF8C2F8695869583708B
:100CC000882369F0813009F07ACF8D2F9C2F9370A3
:100CD000111102C080E090E00E94CC2770CF8D2FD0
:100CE0009C2F9370111102C080E090E00E94A62713
:100CF00066CF612F8D2F0E94BE0461CF8C2F837031
:100D0000811139C0111129C04D2F42954695477068
:100D1000440F440F2D2F2F7030E0042E02C0220FFD
:100D2000331F0A94E2F780E090E0D4FF09C08FE01F
:100D300090E002C0880F991F4A95E2F78095909540
:100D4000C695C695C370822B932BC23071F0C33009
:100D500079F0C13039F00E941C080E9478270E9467
:100D600060042DCF0E941308F8CF0E942508F5CF0C
:100D70000E941008F2CF112361F1C0FFEECF4D2F7A
:100D8000429546954770440F440F2D2F2F7030E049
:100D9000042E02C0220F331F0A94E2F780E090E095
:100DA000D4FF09C08FE090E002C0880F991F4A95D8
:100DB000E2F780959095C695C695C370822B932BCC
:100DC000C23069F0C33071F0C13031F00E94870841
:100DD000C4CF823010F2D3CF0E947E08BECF0E94D3
:100DE0009008BBCF0E943408B8CFCF70112339F0E0
:100DF0008C2F0E944C088D2F0E946405AECF8D2F42
:100E00000E946B058C2F0E945C08A7CFD23F31F166
:100E100070F4D03FB9F0D13FB1F1112309F44EC0C5
:100E2000002309F448C08D2F0E94C80496CFD33FF9
:100E3000E1F0D43F21F11111F3CF01114DC08C2FFE
:100E40008F71E1CF112341F0053008F086CF8C2F50
:100E50008F710E946E0881CF0530F7CF8C2F8F7174
:100E60001111D1CF0E944C0878CF112329F08C2F7B
:100E70008F710E94400871CF0E943B086ECF809115
:100E8000990382FD06C08C2F8F71112309F4BBCF0B
:100E9000E9CF112331F063E08C2F8F710E94CA0CCF
:100EA0005CCF81E00E94E80C023008F456CF82E06B
:100EB0000E94E80C52CF8C2F8F71D4CF002309F4FD
:100EC000BECFD93349F4EFEFF7EE23E0E150F04025
:100ED0002040E1F700C000008D2F0E9410053DCF9B
:100EE0000F931F93CF93DF93EC01688179818D81FC
:100EF0000E9452098C010E9499080E940F08B801B3
:100F0000CE010E947205DF91CF911F910F9108953C
:100F1000CF93DF93EC018C81882399F0CE010E945E
:100F2000CF03811111C00E94280C882351F08D81BC
:100F3000882339F08091990382FF03C082E00E94E8
:100F4000E80CDF91CF910895CE010E947007CE0189
:100F50000E948103F6CF80E090E00E94A62780E007
:100F600090E00E94CC270E94520C0E94C30C0E9469
:100F7000B2250E94952508950E9453280E94AB0730
:100F800008950E94410C0E94BC070895282F929555
:100F90009F70963091F060F4925F9F70923030F4C1
:100FA00081E0203F79F030F4283E30F080E0089571
:100FB0009A5FF3CF243FD1F7089581E0283EE0F314
:100FC000213FF9CF0895FC018481882339F0808185
:100FD00091810E9445090E94C607089580E0089506
:100FE000A6E0B0E0E6EFF7E00C9474332696E2E07A
:100FF0000C949033A7E0B0E0E0E0F8E00C94743398
:101000002796E2E00C94903308950E940408089516
:101010000E940508909367028093660208950895E0
:101020000E94080808952091660230916702822B81
:10103000932B0E9408080895209166023091670260
:10104000822393230E94080808952091660230911C
:101050006702822793270E94080808950E940408C7
:1010600008950E942E0808950E9431089093650209
:1010700080936402089580E090E00E94340808950F
:1010800021E030E0A90102C0440F551F8A95E2F724
:10109000CA010E943408089521E030E002C0220F06
:1010A000331F8A95E2F78091640290916502822B4A
:1010B000932B0E943408089521E030E002C0220FF3
:1010C000331F8A95E2F720953095809164029091C4
:1010D0006502822393230E943408089521E030E0C2
:1010E00002C0220F331F8A95E2F78091640290912B
:1010F0006502822793270E94340808952091640294
:1011000030916502822B932B0E9434080895209120
:10111000640230916502822393230E94340808956B
:101120002091640230916502822793270E9434083F
:10113000089508959B01677091E001C0990F6A9529
:10114000EAF763E0369527956A95E1F7220F331F9A
:10115000220F331FFA01E20FF31F40E050E0682F27
:1011600070E08191DF0111979B01042E02C036953A
:1011700027950A94E2F7217021952827292328270B
:101180002C934F5F5F4F4430510559F708959C01F0
:10119000982F977083E0369527958A95E1F7220F6F
:1011A000331F220F331FFB01E20FF31F40E050E01B
:1011B00080E0219130E0092E02C0369527950A94EF
:1011C000E2F721703327042E01C0220F0A94EAF7B8
:1011D000822B4F5F5F4F4430510559F70895282FF8
:1011E000862F9A3068F4263058F4622F70E026E09B
:1011F000929F600D711D112444E452E00E949A08F0
:101200000895292F9A3068F4863058F490E064E409
:1012100072E036E0239F800D911D11240E94C708C3
:10122000089580E00895A0E0B0E0E9E1F9E00C94D1
:101230006D338C01E0906402F0906502809166024B
:1012400090916702E82AF92ACFE0D0E0CC24C39439
:10125000D12CC6010C2E02C0880F991F0A94E2F708
:101260008E219F21892B49F4219798F7B12C8B2D42
:10127000CDB7DEB7E9E00C948933BC2EB8018C2FD2
:101280000E940F10019781F3F2CFCF93DF93D82FF5
:10129000C92F0E9413096D2F7C2F0E940F10DF9120
:1012A000CF9108951F93CF93DF93162FD72F90914F
:1012B0004302992341F0862F972F0E944509DF9121
:1012C000CF911F910895882381F0862F972F0E9438
:1012D0001309C82F682F812F9D2F0E94EF08612FBF
:1012E0007D2F8C2F0E940F10EACF862F972F0E9400
:1012F0000109C82FF4CF0F931F93CF93E091680299
:10130000C7E0809169028E1304C0CF911F910F91A5
:1013100008950E2F10E0CE9FF0011124E659FD4FE5
:1013200020813181428153816481758186810E944F
:10133000FA07F8013196E770E4CF2091A2023091CC
:10134000A3024091A4025091A5026091A60270915F
:10135000A7028091A8020E94FA0708958091A8022E
:10136000803178F48091A702882359F0E0916802D7
:10137000209169023091A3024091A20257E02E13FE
:1013800001C008956E2F70E05E9FF0011124DF010F
:10139000A659BD4F14968C911497882361F111962C
:1013A0008C911197831327C08C91841324C01596B8
:1013B0008C91159781111FC012968D919C91A091CF
:1013C000A402B091A5028A1B9B0B883C910598F45E
:1013D0008091A8028F7080618093A802E059FD4F30
:1013E00080818F708061808382EA92E00E9488070A
:1013F0000E947B090895FB013196E770C0CFE09110
:1014000068029091690227E0E91302C080E0089524
:10141000AE2FB0E02E9FF0011124E659FD4F31812F
:10142000361306C03081381303C03581341304C02D
:10143000FD013196E770E8CF81E008958F929F9289
:10144000AF92BF92DF92EF92FF920F931F93CF93D1
:10145000DF93CDB7DEB72D970FB6F894DEBF0FBE82
:10146000CDBF8C0186E0F801DE01189601900D9247
:101470008A95E1F7F801E080F580A280B38084814D
:1014800092EA892E92E0992E9091A60291111BC0AA
:10149000882309F4FCC0FF2009F43DC1C8010E9463
:1014A000E307882309F437C187E0F801D4010190EC
:1014B0000D928A95E1F7C4010E94B5040E94AE091D
:1014C0000E949D09E4C0D090A7022091A40230910F
:1014D000A502A501421B530BDD2009F4DBC0483CEB
:1014E000510508F0A6C0882309F4D1C09091A30249
:1014F00091808091A802803108F06BC0991228C0B9
:101500009091A2029E1124C0F1105DC08F70806185
:101510008093A8020E949D0982EA92E00E948807B7
:101520008091A802F8018683F12C8F2D2D960FB69D
:10153000F894DEBF0FBECDBFDF91CF911F910F9109
:10154000FF90EF90DF90BF90AF909F908F900895A5
:10155000F11039C040E0692D8E2D0E94FF0940E056
:10156000692D8E2D0E94FF09F82E8111DDCF88850F
:1015700099850E944509292F22952F70903450F4A7
:101580009F70223080F0992399F0F8019681903174
:1015900078F4CBCF2A5F2F70223078F0C8010E94F8
:1015A0008807FD2CC2CF992319F0882309F4BDCFF9
:1015B000805E883008F4B9CFF1CF803F08F4B5CF12
:1015C000815F8230F7CF8091A80281608093A8026A
:1015D000ABCF991207C09091A2029E1103C0FF20C9
:1015E00009F479C0C8010E94E307882309F493C075
:1015F000FF2009F490C08091A802803288F02091E9
:10160000A2023091A3023A832983BC82AB829091DB
:10161000A6029D831E828F83CE0101960E948807B9
:1016200087E0F801A2EAB2E001900D928A95E1F715
:1016300045CF9091A8029031A0F4488559856A85DC
:101640007B858C859D850E94F00782EA92E00E944E
:10165000880787E0F40111928A95E9F70E949D09B5
:1016600063CF8823A1F02091A30281812813BACFF0
:101670008091A2028E11B6CFF110B4CF9683C8012B
:101680000E94880787E0F40111928A95E9F7FF2408
:10169000F3944BCF483C510508F041C08823B9F37F
:1016A000FF20C9F19091A302818198132AC08091F3
:1016B000A2028E1126C08091A80280FD19C080313F
:1016C000B8F08683807F803F39F08681982F907FA5
:1016D000905F8F70892B8683C8010E94880787E0FE
:1016E000F801A2EAB2E001900D928A95E1F7E8CE06
:1016F00087E0F801A2EAB2E001900D928A95E1F745
:10170000C6CFC8010E94E30781118ACF8091A80249
:1017100081608093A802C8010E948807B8CF4885DD
:1017200059856A857B858C859D850E94F00791CFC0
:10173000AEE0B0E0EEE9FBE00C9473332887398724
:101740004A875B876C877D878E87CE0108960E94CB
:101750001E0A8823B1F06C85662341F028853985FF
:101760004A855B857D858E850E94FA0717E080910A
:1017700068029091690289133EC02E96E3E00C94B2
:101780008F3387E0FE013896DE01119601900D92AD
:101790008A95E1F720916902409168028C8588233F
:1017A00029F330E0C90101968770992750E084172A
:1017B000950799F097E0929FD001939FB00D112467
:1017C000A659BD4FFE01319601900D929A95E1F711
:1017D000809369020E947B09C9CF0E94C1071092C1
:1017E00069021092680287E0E2EAF2E0DF011D92EE
:1017F0008A95E9F7BBCF189FC001112486599D4FE8
:101800000E941E0A882309F4B8CFE09168021E9F47
:10181000F0011124E659FD4F20813181428153812D
:101820006481758186810E94FA078091680290E048
:101830000196877099278093680299CF8091B102B1
:1018400086958695869508958091B1028770089552
:101850009091B102977081E0911101C080E00895EC
:101860008091BD0208959091BD02982B9093BD0286
:101870000895982F90958091BD0289238093BD0291
:1018800008951092BD0208959091BC02982B9093F8
:10189000BC020895982F90958091BC028923809373
:1018A000BC0208951092BC02089508950E94550C40
:1018B00008959091B202292F2823222331F0809598
:1018C00089238093B2020E94560C089508950E94C5
:1018D000660C08959091B302292F2823281729F028
:1018E000982B9093B3020E94670C08959091B302D5
:1018F000292F2823222331F0809589238093B30256
:101900000E94670C08958091B302882329F01092F9
:10191000B30280E00E94670C08950F931F93CF934A
:10192000DF930091040110910501C091BD028091E7
:10193000BC02C82BD091B302DD2331F00E94F22704
:1019400081110E94830CCD2BF801C083C09104014A
:10195000D091050148E050E069EA72E0CE010E94B2
:101960003A34892B59F088E0FE01A9EAB2E00190EF
:101970000D928A95E1F7CE010E948C27DF91CF91DD
:101980001F910F9108950E948D0C089508950E9453
:10199000C60C08959091990392FF11C098E0899F19
:1019A00090011124622B6093B1020E944C08809137
:1019B000B1028695869586950E94C70C08950E946F
:1019C0004C0808951092B10280E00E94C70C08955F
:1019D0009091B102809589238093B102282F2770BE
:1019E00021110DC0891759F09091990392FF07C0FA
:1019F0008695869586950E945C080E94E20C089563
:101A00009091990392FB222720F9281769F080FB17
:101A100092F99093990380919803909199030E9471
:101A20004F0D82E00E94E80C08958091990382FB9B
:101A3000882780F991E089270E94000D089581E0B0
:101A40000E94000D089580E00E94000D08956FEF40
:101A50007FEF80E090E00E949234089580E090E073
:101A60000E945E349C0181E0253E3E4F09F080E0FB
:101A7000089582E090E00E945034089583E090E061
:101A80000E94503490E00895682F83E090E00E9417
:101A90007434089584E090E00E945E340895BC019F
:101AA00084E090E00E9492340895AB01BC018FE085
:101AB00090E00E9486340895AB01BC0183E190E080
:101AC0000E948634089560E070E0CB010E945C0DB6
:101AD000089560E070E0CB010E94550D0E94630DF7
:101AE0000895A8E0B0E0E7E7FDE00C94743365EEFC
:101AF0007EEF80E090E00E94923460E082E090E02F
:101B00000E94743481E090E09093670280936602B3
:101B10000E94440D60E074E184E090E00E94923401
:101B200060E086E090E00E94743460E087E090E03E
:101B30000E94743440E050E0BA0188E090E00E94D6
:101B4000863460E083E290E00E94743460E08CE0D0
:101B500090E00E94743460E08DE090E00E94743464
:101B600019821A821B821C821D821E821F82188685
:101B700048E050E067E170E0CE0101960E946434D5
:101B800040E050E0BA018FE190E00E9486340E946C
:101B9000690D2896E2E00C9490330E94710D08952F
:101BA000682F8EE090E00E9474340895A6E0B0E0C3
:101BB000ECEDFDE00C9472330E94BA298C01809107
:101BC000BE029091BF028017910779F019821A82A4
:101BD0000E94BA29BC0149815A8180E090E00E94AC
:101BE00085041093BF020093BE022696E4E00C9495
:101BF0008E330E943D116093D2027093D302809382
:101C0000D4029093D5026093CE027093CF0280935A
:101C1000D0029093D10208950E943D116093D202A8
:101C20007093D3028093D4029093D5026093CA023A
:101C30007093CB028093CC029093CD0208950895C7
:101C400008950E941F0E089508950E94240E08957D
:101C500081E008958BE791E10E94CB160E94200E4F
:101C60000E94210E08950E949013089508950895EA
:101C70000E94360E0E94370E08950E942E0D81118B
:101C800002C00E94CD0D0E94390D8093D6020E94A1
:101C90004A0D90939903809398030E943E0D0E94F1
:101CA000100880916402909165020E9431080895A5
:101CB0000E94B1290E9407110E9493130E943A21A9
:101CC0000E94A1120E943D0E0E945F040E942621E4
:101CD0000E9421230E946C1F0E94FF1D0E94AF13CF
:101CE0000E94250E0895A6E0B0E0E9E7FEE00C941E
:101CF0006B330E94280E811115C00E94D60D0E94E0
:101D000090130E944E1F0E9425210E94CD21811117
:101D10000E940C0E0E94D3250E946C042696EBE0D4
:101D20000C9487330E94F41280ECA82E82E0B82E27
:101D3000750110E0F70101917F01812F0E94971139
:101D40001F5F1A3009F443C00817A1F38091D6022F
:101D500081FD0E949D110E94330EC82E00E099243F
:101D60009394802F0E949711182FF50191915F0194
:101D7000891739F1D82ED926F12CEE24E3948E2D33
:101D80008D218823B1F0CC20A1F0F9820A830E9432
:101D9000BA299C838B839D8291E08E2D81238111B2
:101DA00001C090E049815A816B817C818D810E94C4
:101DB0008504F394EE0CF6E0FF12E1CFF5013197C4
:101DC00010830F5F0A3069F60E94F90D98CF08134F
:101DD000BDCF93CF1F93CF93DF930E941410EC01DC
:101DE000811522E5920708F053C0811540E594075C
:101DF00008F0DDC0803E9105F8F48D3C910508F0B7
:101E0000AEC0883A910580F4853A910508F099C0F2
:101E10008130910521F00497813A910550F4CE016B
:101E2000DF91CF911F910895885A91094B9708F43B
:101E30008BC0C0E0D0E0F3CF811550E49507F8F4F3
:101E4000C11580E2D80708F0CBC0C83ED10538F3F1
:101E5000CE019A9581159F4160F78D2F0E94B81091
:101E6000182FCE0199270E941410212F30E0322F15
:101E70002227E901CC27DF71C82BD92BD0CF992796
:101E80000E941410CC27DF70C82BD92BD06AC7CF83
:101E9000803842E59407C8F5803652E5950708F08A
:101EA00067C0C03482E5D807B0F08C2F8695869540
:101EB000877020E2829FC0011124C37021E030E0CE
:101EC000A90102C0440F551FCA95E2F7EA01C82BC9
:101ED000D92BDC68A4CFC03252E5D50708F041C049
:101EE0008C2F8695869520E2829FC0011124C370B5
:101EF00021E030E0A90102C0440F551FCA95E2F766
:101F0000EA01C82BD92BDD688ACF803C52E59507C2
:101F100060F48F71C03AD24508F03FC090E0982F2E
:101F20008827EC01C46FD06A7ACF805C9245809795
:101F300008F07FCFDC2FCC27CC27DF71C06FD06AB1
:101F40006ECFA497D0646BCFC85AD0E0CC0FDD1F02
:101F5000CD54DE4F0990D881C02DD46460CFD065B8
:101F60005ECFCF71D0E0DC2FCC27C16FD06A57CFC6
:101F700086958695877020E2829FC0011124C370E8
:101F800021E030E0A90102C0440F551FCA95E2F7D5
:101F9000EA01C82BD92BDA6842CF0E94B810C82FAB
:101FA000D0E0DC2FCC27CC27DF71D06238CF8F7107
:101FB0000E94B81065E0D695C7956A95E1F7CF7095
:101FC000D0E0DC2FCC27282F30E084FF05C054E080
:101FD000220F331F5A95E1F7C22BD32BD0691FCFA5
:101FE0008D2F8F710E94B810182FCE0199270E9453
:101FF0001410212F30E0322F222722273F71282B67
:10200000392BE901D2CF462F672F7A3028F446309A
:1020100018F40E942603089580E090E008950E943D
:1020200003100E94EA0E0895803E9105D1F1C8F494
:102030008133910509F47FC048F48932910509F490
:102040006FC08A32910509F47DC0089589339105E6
:10205000E1F082389105C9F08533910509F45BC040
:102060000895843E9105D1F148F4823E910531F105
:10207000833E910541F181EE90E00895863E910501
:10208000C1F1873E9105E1F10895209198032370F5
:10209000211165C02091990323FF14C089E290E0CB
:1020A00008952091980320FD43C03091990330FF9B
:1020B00009C024FF4EC080E090E00895209198036D
:1020C00022FDF7CF08952091980322FD45C030915D
:1020D000990330FD44C024FFF5CFEDCF2091990343
:1020E00021FFF0CF8091980384FDE5CF87EE90E04B
:1020F00008952091980323FFE5CF24FDDCCFF6CF90
:102100002091980323FD2EC03091990331FFE3CF36
:1021100084EE90E008952091980325FFD3CFBECFA1
:102120002091980325FD21C02091990323FFCACF58
:1021300089E390E008952091980326FFC3CF8AE2B7
:1021400090E008952091980326FFBCCF81E390E0B2
:10215000089583EE90E0089582EE90E0089580EE79
:1021600090E0089586EE90E0089585E390E0AACF90
:102170009091980392FF10C041E0282F24712430E1
:1021800009F040E031E0282F2871283009F030E0D4
:10219000431711F02CE0822793FF10C041E0282F55
:1021A0002471243109F040E031E0282F28712831D2
:1021B00009F030E0431711F02CE0822730919903A9
:1021C00030FF10C051E0282F2171213009F050E07C
:1021D00041E0282F2871283009F040E0541711F011
:1021E00029E0822731FF10C041E0282F21712131E1
:1021F00009F040E031E0282F2871283109F030E063
:10220000431711F029E0822794FD877E08951092EC
:102210009A0310929B0310929C0310929D030895C1
:10222000CF92DF92EF92FF92CF93DF9300D000D056
:10223000CDB7DEB76B017C010E949013811112C0F3
:102240000E94C62969837A838B839C83C61AD70A26
:10225000E80AF90AC0929A03D0929B03E0929C0389
:10226000F0929D030F900F900F900F90DF91CF9100
:10227000FF90EF90DF90CF900895A4E0B0E0E3E40A
:10228000F1E10C9474330E949013882371F00E9442
:10229000C62969837A838B839C8369817A818B8148
:1022A0009C812496E2E00C9490330E94C6296983B5
:1022B0007A838B839C8380919A0390919B03A09156
:1022C0009C03B0919D0329813A814B815C81280F49
:1022D000391F4A1F5B1F29833A834B835C83DDCF01
:1022E0000E949013882319F00E94BA2908950E9431
:1022F0003D11CB01089580E00895CF939C01FB012F
:10230000805E9245C1E0809738F4C581C11104C058
:10231000822F8F710E949B038C2FCF910895089577
:102320000E948F11089508950E9493110895E82F37
:10233000F0E0E755FC4F80810895089580EA8A9582
:10234000F1F7089500C008950E949E110895089520
:102350000E94A7110895A5E0B0E0E1EBF1E10C9433
:102360006F330E949013182F6091B303882309F4F0
:1023700045C01A821982FE01339683E0DF011D9267
:102380008A95E9F7862F90E032977F01BF01875544
:102390009C4F0E94BD13DE2C0F2D8823B9F0809135
:1023A0009E0390E045E050E0B70187559C4F0E94A6
:1023B0003A3421E02093D702892B99F410E00E944F
:1023C0009411812F2596E7E00C948B338091D702EE
:1023D0008823A1F385E0D7011D928A95E9F7109231
:1023E000D702A0919E03B0E0A755BC4F85E0ED2D2C
:1023F000F02F01900D928A95E1F7E1CF70E06755DB
:102400007C4F80919E0390E087559C4F0E9446141C
:102410000E94A811D6CFF894E82FE295EF70F0E073
:1024200041A18F7021E030E0B90102C0660F771F33
:102430008A95E2F7CB01962F9095942391A392A1D0
:10244000892B82A3789408950F931F93CF93DF93E2
:10245000CCE0D1E089918F3F11F00E940B1281E016
:10246000C131D807B9F7C6E0D1E00CE011E089919D
:102470008F3F11F00E940B120C171D07C1F7DF915F
:10248000CF911F910F910895A0E0B0E0EAE4F2E14E
:102490000C946E33EC01D62E062F10E0C801845F39
:1024A0009E4F7C01FC0180818F3F09F445C0F89468
:1024B000E82FE295EF70F0E091A18F7021E030E01D
:1024C00001C0220F8A95EAF7892F822B81A382A16E
:1024D0002095282322A378940E94A211E6E0F1E03F
:1024E00091E0C12C81918F3F81F0A82FA295AF7010
:1024F000A05EB0E02C9130E08F7002C0359527953A
:102500008A95E2F72170892F211180E0C82A990F5E
:1025100081E0EC30F80731F7F70180818F3F11F04F
:102520000E940B1261E0C11001C060E08D2D0E947D
:10253000A411C00FD11FC882CDB7DEB7E8E00C945C
:102540008A33ABE0B0E0E7EAF2E10C9474338091B7
:102550001101811124C085E0E9EEF1E0DE0117965A
:1025600001900D928A95E1F785E0FE013796ACE087
:10257000B1E001900D928A95E1F786E0EFEEF1E08F
:10258000DE01119601900D928A95E1F786E0FE0139
:102590003196A6E0B1E001900D928A95E1F7809125
:1025A000110190E0811101C095E09093B30385E0A3
:1025B000891B80939E030E9424128AE0E9EAF3E0DB
:1025C000DF01982F1D929A95E9F7EFE9F3E0DF011B
:1025D0001D928A95E9F785E00E9435130E949011BB
:1025E0002B96E2E00C949033AAE0B0E0EAEFF2E13F
:1025F0000C9471331A821982FE01339688E0DF0150
:102600001D928A95E9F7F12C8E010F5F1F4F6F2DF8
:10261000C8010E944412F394B5E0FB12F8CF4AE0DF
:1026200050E0B8018FE993E00E943A3421E0892B11
:1026300099F420E06091B30370E067557C4F45E06A
:102640008FE993E00E943613182F0E94AB11812B63
:102650002A96E5E00C948D338AE0F801AFE9B3E007
:1026600001900D928A95E1F7E5CF0895A0E0B0E0E2
:10267000ECE3F3E10C946E33D82EE92EF62ED72F2F
:10268000042FC22F222379F081E08093DA020E9486
:10269000BA299093D9028093D80280E0CDB7DEB7F3
:1026A000E8E00C948A33C090DA02CC20B1F3809138
:1026B000D8029091D9020E94E329059770F310E0A7
:1026C000A8016D2D7E2D8F2D9D2F0E943A34892BD0
:1026D00041F0A8016D2D7E2D8F2D9D2F0E94473436
:1026E000CC2D1092DA028C2FD9CF55985D988FE8B7
:1026F00091E00197F1F700C0000089B185FB8827C0
:1027000080F90895CF930E94AC32C82F811102C086
:102710000E94A7328C2FCF9108958091DE020895F8
:102720008091DD0208950E9482138093DD020E9451
:1027300075138093DE020E948D13809311010E9415
:102740008D1366E0882349F080E00E94BA170E944A
:10275000901381110E94F313089586E0F6CF0E9432
:102760009013811102C00E94F613089581E09091A8
:10277000DF029A3008F080E008950F931F93CF9303
:10278000DF93EC01162F072F8091DF028A3090F43F
:10279000612F702FCE010E944314811121C08091BE
:1027A000DF028F3FB1F40E94BA299093DC0280933C
:1027B000DB0209C08091DB029091DC020E94E329D8
:1027C000843F914028F780E0DF91CF911F910F91D6
:1027D00008958F5F8093DF028A3028F781E0F4CF7D
:1027E0001092DF02FBCF0E94BF2A08950E94C22AE6
:1027F0000895A0E0B0E0EFEFF3E10C946E33FA013E
:1028000069017801C82F880FDD0B3097B1F0DE0128
:1028100093E0AA0FBB1F9A95E1F7AE5EBE4F1196EB
:102820008D919C91129780529D4F4C9150E0E417EE
:10283000F50708F4AF010E944734CE010E94AD2B8A
:10284000182F8823D1F0E114F104B9F083E0CC0F04
:10285000DD1F8A95E1F7FE01EE5EFE4F438150E0F9
:10286000E416F50608F4A701CE5EDE4F6C817D818B
:1028700060527D4FC6010E944734812FCDB7DEB72D
:10288000E8E00C948A330E94201608950E945616A0
:1028900008950E94AB210895AAE0B0E0E2E5F4E1DA
:1028A0000C946C33F82E6D837E83A42ED22EE32EEF
:1028B000B02EC12EAD81BE818D919D910D90BC91A8
:1028C000A02DBC01CD010E94F2296436710581055D
:1028D000910510F4AA20A9F000E010E020E030E01B
:1028E0004B2D5C2D6D2D7E2D8F2D0E94F91388238D
:1028F00049F00E94C629ED81FE8160837183828345
:10290000938381E02A96EAE00C948833ABE0B0E050
:10291000ECE8F4E10C9472338E010F5F1F4FC80195
:102920000E94161D41E08B859801811101C040E095
:102930000BE010E069E173E087E00E944C14182F6F
:1029400081110E94131D812F2B96E4E00C948E338D
:10295000A1E0B0E0EEEAF4E10C9472330E94511F62
:102960008823D1F00E94661F8983E091F601F091DF
:10297000F70141E09389981301C040E001E010E0C5
:102980009E012F5F3F4F65E173E086E00E944C148B
:102990002196E4E00C948E3380E0E6CFA8E0B0E02E
:1029A000E4EDF4E10C9472338091110390911203E1
:1029B000A0911303B0911403BC01CD010E94F22930
:1029C00011E0643671058105910520F10E943D11E9
:1029D000DC01CB010296A11DB11D89839A83AB83D3
:1029E000BC8300E010E020E030E044E050E0BE01B5
:1029F0006F5F7F4F85E00E94F913182F882351F0F5
:102A00000E94C629609311037093120380931303ED
:102A100090931403812F2896E4E00C948E33A5E064
:102A2000B0E0E5E1F5E10C946933762E6A014901E5
:102A3000580101E010E09E012F5F3F4F40E050E061
:102A400060E070E00E94F913182F8823C1F1D601CD
:102A50008D919D910D90BC91A02DBC01CD010E9446
:102A6000F229643671058105910510F18701940101
:102A700040E050E060E070E0872D0E94F913182FCD
:102A8000B701C5010E9422239981981731F010E007
:102A9000812F2596EDE00C94853311701123C1F33D
:102AA0000E94C629F6016083718382839383F0CFED
:102AB000B701C5010E94222399818913D7CFA701AD
:102AC000B501C4010E944734E3CFAAE0B0E0EBE6D1
:102AD000F5E10C946C33C090F601D090F7015601EB
:102AE00087E0A80EB11C88E0E82EF12C85019E013C
:102AF0002F5F3F4F4DE053E063E082E00E940F15EF
:102B0000182F882331F0F601968180910C039813D9
:102B10001AC0812F2A96EAE00C94883369858A8549
:102B20000E949421F82E81110FC000E010E020E0F7
:102B300030E040E050E060E070E084E00E94F91393
:102B40001F2D18230EC0F12CAE01475F5F4FBE0151
:102B5000665F7F4FC5010E9473218111DFCFF110A5
:102B6000E4CFF601868180930C03D3CFA5E0B0E0DB
:102B7000ECEBF5E10C946E336B010091F6011091D2
:102B8000F7010F5F1F4F85E0E82EF12C9E012F5FAC
:102B90003F4F48E053E061E080E00E940F1588233A
:102BA00049F095E0FE013196A3E0B3E001900D926B
:102BB0009A95E1F795E0E3E0F3E0D60101900D92FC
:102BC0009A95E1F72596E8E00C948A33A0E0B0E00E
:102BD000ECEEF5E10C946C33F82EE92EB62EA72E10
:102BE0008A010E94B613CC24C394D12C882319F0F7
:102BF0008AE0C82ED12CC1E0D0E06B2D7A2D8F2D2C
:102C00009E2DF8010995811116C02196CC16DD067E
:102C100094F0CC9FC001CD9F900D900D112420E029
:102C200030E045E34A95F1F700002F5F3F4F28174A
:102C30003907B9F7E2CFCDB7DEB7EAE00C948833B5
:102C40000F931F93CF93DF93D82FC92F8B0146EBA0
:102C500055E10E94E615811106C080E0DF91CF9119
:102C60001F910F91089545E655E1B8018D2F9C2FD6
:102C70000E94E615882389F34EEC54E1B8018D2FAC
:102C80009C2F0E94E615882341F348EA54E1B801DD
:102C90008D2F9C2F0E94E6158823F9F246E854E117
:102CA000B8018D2F9C2F0E94E615D8CFABE0B0E085
:102CB000ECE5F6E10C946E33FB010091F601109106
:102CC000F701C801019625E0DC0101900D922A95DB
:102CD000E1F765E070E00E942223F801808378012B
:102CE000F7E0EF0EF11CC7010E94A22168E070E03E
:102CF000C7010E942223F801868367857089818934
:102D00009289C090FF02D0900003E0900103F09000
:102D100002036C157D058E059F0551F06093FF023F
:102D20007093000380930103909302030E9410119B
:102D3000F80183890E9418208BE0F8017496DE0167
:102D4000119601900D928A95E1F7F801168E8B8508
:102D5000882329F060E0CE0101960E94451E2B9643
:102D6000E8E00C948A330E94730E08950E94532960
:102D70000E94672D0E942A0E0E94812D0E94580EEB
:102D80000E948E2D0E94932D0E94B3160E94AD2D9D
:102D90000E94380EF7CF90933D0280933C02089535
:102DA000CF93DF93EC01FB018581811104C081E0A9
:102DB000DF91CF9108950E94300C8272FE01E052A3
:102DC000F847EB30F10598F7EB52FB4C0C942D33A0
:102DD0000E94F11D80E0ECCF882329F00E94DF1DC6
:102DE000F9CF8823D9F30E94CE1DF4CF882329F090
:102DF0000E94FA19EFCF8823D9F30E94EC19EACF89
:102E0000882329F00E941C1AE5CF8823D9F30E9459
:102E10000B1AE0CF882329F00E943E1ADBCF8823CB
:102E2000D9F30E942D1AD6CF882329F00E94B0181A
:102E3000D1CF8823D9F30E949018CCCFA0E0B0E086
:102E4000E4E2F7E10C946E33E82F71110DC04423D6
:102E500021F0F0E0E25DFC4F8491682F782FCDB730
:102E6000DEB7E8E00C948A33262F30E0C72FD0E09D
:102E7000F0E0442321F0E25DFC4FE491F0E086E0D5
:102E8000829F7001839FF00C11240FEF10E0C701A7
:102E9000B8010E94E332AB01220F331F65E5649F46
:102EA000C001659F900D1124281B390B622F660FFE
:102EB000620FC8018C1B9D0B8E9F90018F9F300D60
:102EC0009E9F300D1124832F6C9F60016D9FD00C4D
:102ED0001124CD2CDD24D801AC19BD096D01CE9E85
:102EE000D001CF9EB00DDE9EB00D11246801C61A30
:102EF000D108B6016C9F60016D9FD00C7C9FD00CF7
:102F00001124CD2CDD240C191D090E9FE0010F9F0B
:102F1000D00D1E9FD00D11247D2F6E2F43305105F3
:102F2000D1F09CEFE91693E0F90658F441305105D1
:102F3000B1F04230510509F092CF632F8D2F7E2FD3
:102F40008ECF4430510571F04630510509F487CFDA
:102F5000732F8B2F84CF7B2F632F8E2F80CF7E2FCD
:102F60006B2F7DCF6D2F732FF8CF41E00E941E177E
:102F700008950895E5E5F1E08083618308950E9456
:102F8000B517089590915501291B922FE0912502C4
:102F9000F0912602242F462F682F892F90E0099563
:102FA0000895CF93DF93982F762F842FD22FC32F9E
:102FB000692F0E94BF17962F672F482F2D2F3C2F68
:102FC000892F0E94C217DF91CF9108958091B40399
:102FD000843028F4837084608093B40308958C3A1D
:102FE000E8F38370886AF8CF4F925F926F927F9276
:102FF0008F929F92AF92BF92CF92DF92EF92FF9209
:103000000F9388E090E00E9458342B013C0183E24A
:1030100090E00E945034282F30E040E050E060E023
:1030200070E080E090E000E20E949B335301420197
:10303000C12CD12C7601242939294A295B296C29F4
:103040007D298E299F290F91FF90EF90DF90CF90DF
:10305000BF90AF909F908F907F906F905F904F90B8
:103060000895A0E0B0E0E7E3F8E10C946E33890145
:10307000D42FC52F6B017C010E94E617A8016D2F8C
:103080007C2F88E090E00E94863498014D2F5C2FC1
:10309000B601C70100E20E94B633622F83E290E0DE
:1030A0000E947434CDB7DEB7E8E00C948A33E4EBC9
:1030B000F3E08DE2808311828FEF828380E8838347
:1030C0001482A5E6B3E012968C9112978360129653
:1030D0008C9375812DE230E04FEF50E860E08681FF
:1030E00097810E94311808959091B803933018F495
:1030F0009F5F9093B803882391F02091B40330919F
:10310000B5034091B6035091B7036091B803709135
:10311000B9038091BA039091BB030E9431180895BE
:1031200081E00E94741808959091B803992319F0D2
:1031300091509093B803882391F02091B40330917B
:10314000B5034091B6035091B7036091B8037091F5
:10315000B9038091BA039091BB030E94311808957E
:1031600081E00E94941808950F931F93CF9380914C
:10317000B40380FF09C0E0912902F0912A02099569
:10318000CF911F910F910895C09157010091250291
:103190001091260280915801C81768F78091550157
:1031A0009C2F981B892F20E040E060E090E0F80120
:1031B0000995CF5FEFCFEF92FF920F931F93CF93BD
:1031C000DF93D82F162F042F8091B40380FF0CC0FB
:1031D000C0915701E0902502F0902602809158019D
:1031E000C81738F00E94B418CDB7DEB7E6E00C94EB
:1031F0008C33809155019C2F981B892F202F412FB4
:103200006D2F90E0F7010995CF5FE8CF982F762FCB
:10321000842F2091B40320FF09C0692F0E94B517A5
:10322000962F672F482F892F0E94DB180895CF9380
:10323000DF93EC01EC81F0E0E75DFD4F4491E4EBBE
:10324000F3E0628181810E9406198C818F5F8C83FB
:10325000DF91CF910895CF93DF93EC01E4EBF3E09E
:10326000438162818C810E9406198C818F5F8C83DF
:10327000DF91CF910895CF93DF93EC019091B70345
:103280004C81842F81708111892F642F62706111AC
:10329000692F44704111492F0E94DB188C8190E006
:1032A0000196877099278C83DF91CF910895A0E0D4
:1032B000B0E0EDE5F9E10C946E33082FF62E142FF3
:1032C000D22E9091B40390FF40C03091B5033813D3
:1032D00008C08091B603861304C08091B703841799
:1032E00029F080916703826080936703E92FE69558
:1032F000E695AE2FB0E0A850BE4F8C918093650349
:103300009C7F943039F5602F7F2D812F0E94B51757
:10331000962F672F482F892F0E94DB18302F30936C
:10332000B503F092B6031093B703DD2071F020913E
:10333000B4036091B8037091B9034F2D512F809160
:10334000BA039091BB030E943118CDB7DEB7E8E015
:103350000C948A33823019F41091B703DFCF863092
:10336000F1F28930E1F28931C9F6E9518E2F81708D
:10337000C82EE695F0E0E75DFC4FE491E12CCE2FFE
:10338000D0E060915901E61618F00E94B418C6CF3B
:103390002E2D30E0EC9EC001ED9E900D112470E0CA
:1033A0000E94E332802FC1100BC0860F909157010D
:1033B000290F311D412F6F2D0E94D117E394E1CFCA
:1033C000861BF4CF282FE4EBF3E0818143816281F7
:1033D000885F0E945719089581E00E94E2190895BC
:1033E000282FE4EBF3E081814381628188500E94C1
:1033F0005719089581E00E94F0190895282FE4EBF1
:10340000F3E0628131E1630F08F46FEF4381818162
:103410000E945719089581E00E94FE190895282FEF
:10342000E4EBF3E0628131E1631B08F460E0438187
:1034300081810E945719089581E00E940F1A089512
:10344000282FE4EBF3E0438131E1430F08F44FEF21
:10345000628181810E945719089581E00E94201A9B
:103460000895282FE4EBF3E0438131E1431B08F496
:1034700040E0628181810E945719089581E00E9495
:10348000311A089520E00E9457190895EF92FF9293
:103490001F93CF93DF93EC0110E0EE24EA94F12C1C
:1034A00060915901161770F00E94B4189A818C81AE
:1034B00090FF1EC08F5F8C83DF91CF911F91FF9093
:1034C000EF90089520915701210F3327331F70E0AB
:1034D000C7010E94F732962F8C814091B70360910B
:1034E000B603199F800D11240E94D1171F5FD8CFFA
:1034F0008150E1CFA0E0B0E0E0E8FAE10C946B335A
:10350000EC018C819A8190FD0EC0BB24B394811193
:103510000EC0809159018150BB24B39480931E0347
:1035200081E08C8304C0BB24BA948823B9F3A12C16
:10353000E0902502F090260280915901A816B8F07B
:103540000E94B41890911E03F1E0BF1254C0809104
:1035500059018150992319F08FEF890F91E08093E1
:103560001E039C83CDB7DEB7EBE00C9487338091CC
:10357000570190915501891B8A0D20E040E060E0E1
:1035800090E0F701099504E010E0912CCA2CD12CB1
:1035900080911E03890D8D3044F16CE00E94D5327C
:1035A000892F082E000C990BC816D906B1F480910A
:1035B00057019601280F311D8091B703809FA0010C
:1035C000819F500D112455954795559547956091CC
:1035D000B6038091B5030E94D1179B0C01501109CD
:1035E00001151105A9F6A394A7CF87FFDACF909113
:1035F0005901890FD6CF892F90E00196609159012A
:1036000070E00E94F732982FAACFEF92FF921F939B
:10361000CF93DF93EC018C81811109C081E08C8311
:1036200010921D0392E090935401809353011091E6
:103630005701E0902502F09026028091580118175A
:1036400078F110E0E0902502F09026026091590197
:10365000161798F10E94B4188091530120911D0310
:10366000280F20931D0390915401980F90935401BB
:10367000191654F4022E000C330B4091590141509D
:10368000550B2417350734F0819580935301813011
:1036900009F41C82DF91CF911F91FF90EF90089564
:1036A00080915501912F981B892F20E040E060E028
:1036B00090E0F70109951F5FC0CFE12FF0E070E0C7
:1036C000CF010E94F73220915701820F20911D03F4
:1036D000022E000C330BE217F307A4F020915401E3
:1036E000022E000C330B2E173F0764F0282F30E01A
:1036F0004091B7036091B6038091B5030E94D11742
:103700001F5FA4CF90915501891B20E040E060E04D
:1037100090E0F7010995F4CFAEE0B0E0E2E9FBE11B
:103720000C9470338D879E87AD85BE8514961C9151
:10373000212F30E0D9010E943B339B01AC010E9454
:10374000513369837A838B839C83E0E2F0E0E11B51
:10375000F109A5E5B0E09B01AC010E9451336987F6
:103760007A878B879C879F01DF010E9433339B01FF
:10377000AC010E945C336D837E838F8398879B01AD
:10378000AC0189819A81AB81BC81280F391F4A1F06
:103790005B1F69857A858B859C850E940B33022F80
:1037A00030E00A3248F5A901440F551F420F531F5C
:1037B00055954795142F1095F12C85E5E82EE01AC4
:1037C00080915901F81630F10E94B418AD85BE857C
:1037D00014969C9181E0992319F0903219F48FEF9F
:1037E0008093520180915201890FED85FE8584837B
:1037F0002E96E6E00C948C3385E590E0821B930BCB
:10380000AC01440F551F480F591F57FFD1CF4F5FD1
:103810005F4FCECF8E2DF1FC802F209157012F0DC1
:103820003327331F412F6091B6030E94D117F394C1
:10383000C7CF0F931F93CF93DF93EC0100E010E00D
:1038400040915901842F90E0081719076CF00E94ED
:10385000B4188C8190E00196817099278C83DF9158
:10386000CF911F910F9108959C81809157019801EC
:10387000280F311D6091B6038091B503469550E045
:10388000041715074CF4992349F04091B7030E949F
:10389000D1170F5F1F4FD4CF9923B9F340E0F7CF73
:1038A000A0E0B0E0E6E5FCE10C946633FC01628048
:1038B000448081E08483E9E2F2E07490E8EAF2E097
:1038C000E491C091B703C695C158D0E0CC0FDD1F7D
:1038D000CD2FDD27812C25E0922EAA24AA94B12C8D
:1038E00055245A94E719EE2EF12C8091590188162F
:1038F00038F00E94B418CDB7DEB7E0E10C94823303
:10390000C82CD12C82E0861568F09C9CF0019D9C0F
:10391000F00D1124EE5DFC4F8091B5038083809102
:10392000B603818341101CC09C9CF0019D9CF00D4E
:103930001124EE5DFC4F1382128280915701960193
:10394000280F311D9C9CF0019D9CF00D1124EE5D13
:10395000FC4F4281618180810E94D1178394C5CF41
:103960009C9C80019D9C100D11240E5D1C4FF80144
:1039700083818823F1F081508383589EC0011124F4
:10398000648170E00E94E332FB01FF27E75DFD4F99
:103990008491E82FE7195E9EC0011124B7010E94AF
:1039A000E3328091B703689FB0011124F80172835C
:1039B000C4CF0E941D34B5010E94F7328C179D07B9
:1039C0000CF0BBCFF2E0F61598F40E941D34B5015F
:1039D0000E94F732F80180830E941D342091B603C3
:1039E0002695622F70E00E94F732280FF80121839C
:1039F0009C9CF0019D9CF00D1124EE5DFC4F128209
:103A00008091B703893C58F088EC9C9CF0019D9C08
:103A1000F00D1124EE5DFC4F848383838ECF8431BF
:103A2000A0F784E1F2CF109267030895CF93DF935C
:103A3000EC0188E0E4EBF3E0DE0101900D928A9561
:103A4000E1F78091650390916603A09167038887F1
:103A50009987AA87DF91CF910895E5E6F3E0118277
:103A60008281846082830895E4EBF3E080818E7F1D
:103A700080830E942D1DE5E6F3E0828181608283D0
:103A80000E94B4180895E4EBF3E020812E7F208398
:103A900031814281538164817581868197810E9441
:103AA00031180E942D1DE5E6F3E08281816082835A
:103AB0000E94B41808956091B4036695669570E00D
:103AC0004BE050E08AE591E00E942D34892B19F4F7
:103AD00081E0809366030E94701190935F0380934E
:103AE0005E038091670384608093670308959091DB
:103AF000B40390FF3FC08823F1F18B32F0F58F7350
:103B0000282F220F220F8091B4038370282B20933B
:103B1000B40380916703816080936703662381F01B
:103B20003091B5034091B6035091B7036091B8034B
:103B30007091B9038091BA039091BB030E94311830
:103B40006091B4036695669570E04BE050E08AE5BD
:103B500091E00E942D34892B91F00E942D1D81E06F
:103B6000809361034091B7036091B6038091B503E0
:103B70000E94421A089581E0C3CF8AE2C1CF0E9419
:103B80005B1DEDCF682F8091B403869586958F5F7E
:103B90008B3208F081E00E94771D089581E00E9439
:103BA000C21D0895682F9091B403969596958FEF56
:103BB000890F913009F48AE20E94771D089581E00F
:103BC0000E94D21D089561E00E94771D0895E4EBE4
:103BD000F3E0808181608083869586950E94E31D55
:103BE00008958091B40380FF03C00E94431D08958F
:103BF0000E94E71D089560E00E94771D089580915E
:103C00006403811141C00E94F4172093B4033093E0
:103C1000B5034093B6035093B7036093B803709312
:103C2000B9038093BA039093BB03809167038360C9
:103C3000809367032430A0F40E9457180E94F41761
:103C40002093B4033093B5034093B6035093B70366
:103C50006093B8037093B9038093BA039093BB0346
:103C60000E94E6170E942D1DE0912302F09124028C
:103C700009958091B40380FF04C0869586950E94C3
:103C8000FB1D81E08093640308951F93CF93DF931E
:103C9000EC01162F8A8580FF0DC0888180FF25C02A
:103CA0008091B40381608093B40388818695869562
:103CB0000E94771D8A8581FF06C0212F4B816A8172
:103CC00089810E9457198A8582FF05C089858823CA
:103CD00079F00E945B1D8A8583FF03C081E0809399
:103CE0006103DF91CF911F9108950E94341DE2CFAF
:103CF0000E942D1DF0CFEF92FF920F931F93CF9351
:103D0000DF9380916603882309F465C08091650381
:103D1000E091B403E695E695E81BE09360038230FA
:103D200009F05EC0F0E0EB5DFD4FE491CE2FD0E0F6
:103D300007E119E180916103882361F0109261032A
:103D40000E94701190935F0380935E03109263034F
:103D5000109262030E9470119C0180915E03909109
:103D60005F03A901481B590B4F3F5F47A0F54091E6
:103D700021034423B1F01092210340911F0350917D
:103D80002003241B350B2F3F3F4758F4405D5A4812
:103D90005093200340931F032091670328602093D2
:103DA0006703E0906203F09063038C0F9D1F909374
:103DB0005F0380935E038EE593E0F801099580919F
:103DC000620390916303892B31F4E114F10419F03B
:103DD00081E080932103CDB7DEB7E6E00C948C330D
:103DE000C8E2D0E00CE81BE1883109F4A3CFC0F4AD
:103DF0008F3009F43AC048F4863021F1893059F106
:103E0000C0EDD7E009EB17E195CF8531C9F7F0E0B8
:103E1000E75EFD4FE491CE2FD0E005E01BE18ACFB5
:103E2000C4EFD1E009E11CE1843209F483CF85328B
:103E300031F1833229F7E7E1F2E0C591D4910BE348
:103E400019E178CFF0E0EE5DFD4FE491CE2FD0E0A8
:103E50000BE219E16FCFE695F0E0E15EFD4FE491F2
:103E6000CE2FD0E006E41AE165CFE695F0E0E45EFF
:103E7000FD4FE491CE2FD0E00AE71AE15BCF8E2F01
:103E800063E00E94C932E92FF0E0EC5EFD4FE4915F
:103E9000CE2FD0E000E51CE14DCF08950E947B1E9F
:103EA00008958091BC038170089586E090E00E949F
:103EB00050340895682F86E090E00E94743408958D
:103EC0008DE18093BC030E945A1F08958091BC032A
:103ED00086958695869508950E94551F8093BC030C
:103EE00082FF0E94601F8091BC03803320F08770A6
:103EF00088628093BC039091BC03892F81708823D2
:103F000021F0892F8695869586950E946C200895CC
:103F10009091BC03892F869586958695983240F4BA
:103F20008F5F880F880F880F9770892B8093BC0351
:103F30008091BC0381608093BC030E945A1F8091D2
:103F4000BC038695869586950E946C200895809185
:103F5000BC03883078F088508093BC0391E08830AF
:103F600008F490E08091BC0390FB80F98093BC033F
:103F70000E945A1F8091BC038695869586950E9463
:103F80006C2008958091BC0380FD13C081608093F4
:103F9000BC03813019F489E08093BC038091BC0399
:103FA0000E945A1F8091BC038695869586950E9433
:103FB0006C2008958091BC0380FF08C08E7F8093A1
:103FC000BC030E945A1F80E00E946C2008958091DB
:103FD000BC0380FF03C00E94DA1F08950E94C21F25
:103FE00008958091BC038695869586958F5F8F7125
:103FF000863008F080E0880F880F880F9091BC030E
:104000009770892B8093BC0391E0883008F490E08E
:104010008091BC0390FB80F98093BC030E945A1FDF
:104020008091BC038695869586950E946C200895A4
:10403000863008F085E02091BC032770982F990FF7
:10404000990F990F922B9093BC0321E0983008F4BC
:1040500020E09091BC0320FB90F99093BC030E9458
:104060006C2008950E9418208091BC030E945A1F62
:1040700008959C01FB018581882361F12330F8E7D5
:104080003F07E1F060F42130E8E73E07A9F0223075
:10409000F8E73F07C9F02115384749F00895243063
:1040A000E8E73E0771F02530384789F0089585E04C
:1040B0000E94322080E0089580E0FACF0E94A71F7E
:1040C000F9CF0E94881FF6CF0E94E71FF3CF0E940E
:1040D000F11FF0CF81E00895A8E0B0E0E2E7F0E260
:1040E0000C946E338630F0F481111DC080918000F5
:1040F0008F778093800080918600909187008091D7
:10410000860090918700E0E0F0E0CF0169E070E088
:104110000E94E33270938900609388002896E8E05B
:104120000C948A3385E09091800090689093800091
:10413000A0918600B0918700282F30E00E943B3389
:1041400069837A838B839C8325E030E040E050E0F4
:104150000E940B3369017A01F901809186009091E8
:1041600087006CE070E00E94E3326C157D0568F614
:1041700080918600909187000091860010918700C1
:10418000209186003091870066E070E00E94E33263
:10419000C60ED71EE11CF11CD701C60145E0880FF1
:1041A000991FAA1FBB1F4A95D1F789839A83AB83B6
:1041B000BC83C80166E070E00E94E33240E050E05A
:1041C000260F371F411D511D69817A818B819C818A
:1041D0000E940B3329833A834B835C83E0918600F2
:1041E000F0918700CA01B9010E94B932DF019B0139
:1041F000AC010E9451336D837E838F8398879B012E
:10420000AC0169817A818B819C810E94B93269837A
:104210007A838B839C83DC01CB015FE0B695A79505
:10422000979587955A95D1F74091860050918700D0
:1042300060E070E0481759076A077B0720F4809117
:10424000860090918700BC0165CF0895259A2D982E
:1042500082E88093800089E1809381008FEF9FEF57
:1042600090938700809386000E946C1F08950E949F
:1042700090130895E9E6F3E088E0DF011D928A9546
:10428000E9F70E9467220895FC01228130E02F5F48
:104290003F4F23703327438150E081E024173507D7
:1042A00009F080E008950F931F93CF93DF93EC0103
:1042B000162F042F0E944421811113C08A81FE0110
:1042C000E80FF11D00FB17F914838F5F83708A8359
:1042D00088818F5F888381E0DF91CF911F910F915B
:1042E000089580E0F9CFCF93DF93FC01EA01A38129
:1042F00082818A17B9F0AE0FBF2FB11D14968C9131
:1043000087FB992790F98F77DB018C9398838381C2
:104310008F5F8370838381818F5F818381E0DF91F1
:10432000CF91089580E0FBCF462F682F89E693E078
:104330000E9453210895AB01BC0189E693E00E94DD
:1043400073210895DC0188E0E9E6F3E001900D9225
:104350008A95E1F7089581E080936803089581E0EC
:104360000895A2E0B0E0E7EBF1E20C94723300E0D4
:10437000BE016F5F7F4FCE0102960E949B21182FD6
:10438000811105C0802F2296E4E00C948E33698160
:104390008A810E94EF02012FEBCFCF930E94372139
:1043A000C82F882319F00E94B121C82F809168037B
:1043B000882351F01092680380916B0380936C0303
:1043C0008091690380936A030E94BB220E94372177
:1043D000882319F00E94B121C82B8C2FCF9108950A
:1043E0008FE891E00197F1F700C00000089590E098
:1043F0006623E9F08B599E4FFC0180818F3FB1F01D
:10440000E82FE295EF70F0E041A18F7021E030E0FD
:10441000B90102C0660F771F8A95E2F7CB01962F8C
:104420009095942391A392A1892B82A308958A59F0
:104430009E4FE2CF90E06623A9F08B599E4FFC017E
:1044400020812F3F91F0E22FE295EF70E05EF0E0E7
:10445000808190E02F7002C0959587952A95E2F7AC
:10446000817008958A599E4FEACF80E0089508959B
:10447000CF93DF93C0E080917203C81760F00E9471
:10448000F021C0E080917203C81778F00E943722B3
:10449000DF91CF91089560E08C2F0E94F72161E0B9
:1044A0008C2F0E94F721CF5FE6CF60E08C2F0E9417
:1044B0001A22D82F61E08C2F0E941A22EC2FF0E0F4
:1044C000EB58FC4F880F8D2B8083CF5FDBCF809123
:1044D000110191E0892780937103809111019093DC
:1044E00072038091110180911101811106C087EF43
:1044F0008093660186EF809365010E9438220895BB
:104500001F93CF93DF93182F440F642BC82FD0E055
:10451000DE01AB58BC4FEC918E2F8370681739F1D8
:10452000EE0FEE0FE62BEC9380917103180FEF70F6
:10453000F0E0E55DFD4FCD58DC4F80819881890F1B
:104540008883843024F060E0812F0E949421888148
:104550008D3F24F461E0812F0E9494218881082EF0
:10456000000C990B64E070E00E94F7328883DF91C1
:10457000CF911F910895CF93DF93C0E08091720394
:10458000C81718F0DF91CF91089561E08C2F0E9439
:104590001A22D82F60E08C2F0E941A22682F4D2FEC
:1045A0008C2F0E948022CF5FE9CF569A0895FC019C
:1045B000EE0FFF1FE80FF91FE354FC4F61834083A8
:1045C00022830895FF920F931F93CF93DF93182FA9
:1045D000062FF42EC0E0D0E02F2D402F612FCE010A
:1045E0000E94D7222196CC30D105B1F7CDB7DEB7E6
:1045F000E5E00C948D333BB13F7B2BB120644FB78A
:10460000F8948DEB93E0FC010196508168E02BB9A2
:10461000000000C057FF3BB9550F000000C000C0AC
:1046200000C03BB900C06A9591F753E0813E950701
:1046300051F74FBF8FE594E00197F1F700C00000FC
:1046400008950895FC01680F791F8FEF91E3E61735
:10465000F70709F408952191822728E030E087FFC9
:1046600008C0880F89272150310921153105B9F774
:10467000EECF880FF8CFCF93DF93EB0186319C47C5
:1046800019F50E94300C9D819923A1F08A7A91E05E
:10469000811101C090E090937703882349F085E36E
:1046A0000E9443280E94C30C80E0DF91CF910895BF
:1046B00089E2F6CF80917703882321F085E30E9479
:1046C0004B28F0CF89E2FBCF81E0EFCFCF93DF9390
:1046D000EC01FB018581882309F4D2C09E0130578B
:1046E0002332310508F0B2C00E944A0D909399031D
:1046F00080939803FE01E150F047E232F10520F487
:10470000E052FB4C0C942D33809198038160809390
:10471000980393C0809199038860809399038DC01A
:10472000809198038260F3CF809198038460EFCFEB
:10473000809198038860EBCF809199038160EDCFE1
:10474000809199038260E9CF809198038061DFCFE7
:10475000809198038062DBCF809198038064D7CFEB
:104760000E94C107809198038068D1CF80919803FF
:104770008C60CDCF809199038360CFCF80919803D7
:104780008E7FC5CF80919903877FC7CF8091980393
:104790008D7FBDCF809198038B7FB9CF8091980397
:1047A000877FB5CF809199038E7FB7CF8091990392
:1047B0008D7FB3CF809198038F7EA9CF809198038E
:1047C0008F7DA5CF809198038F7BA1CF0E94C107D9
:1047D000809198038F779BCF80919803837F97CFA9
:1047E000809199038C7F99CF8091980382FB9927C0
:1047F00090F921E0922790FB82F990FB83F987CF13
:1048000080919903982F909591708E7F892B90FBC2
:1048100081F983CF90919803892F8F7B96FF8064D5
:1048200076CF0E94C10790919803892F97FB87F953
:1048300080586DCF81E00E94D00D809198039091B7
:1048400099030E944F0D0E94C10780E0DF91CF9134
:10485000089580E0F0CF90919803892F8F7E94FF88
:10486000806155CF90919803892F8E7F90FF816052
:104870004ECF90919903892F877F93FF88604DCF0A
:1048800081E0E4CF282F35EB2303C001112497FFEB
:1048900004C080589109892F089580589F4FFBCFFD
:1048A00080917E0380FF0DC060916C0170E0660F07
:1048B000771F60387105C0F561157105B9F1862F54
:1048C000089581FF07C060916C0184E0689FB0018A
:1048D0001124EFCF82FF04C060916C0188E0F6CF15
:1048E00080917D038823E9F090916B0160916C01C8
:1048F00070E0891730F093E0660F771F9A95E1F723
:10490000D8CF869F9001879F300D112483E0220F1E
:10491000331F8A95E1F7692F70E0C9010E94F732D1
:10492000C8CF68E070E0CBCF8FE7089581E00895AD
:1049300080917E0380FF0CC06091680170E07595E6
:104940006795759567956115710561F1862F0895D5
:1049500081FF06C06091680170E075956795F3CF9F
:104960006091680170E082FD15C020917C032223D4
:10497000B1F0909167016091680170E0291750F4DF
:10498000269FA001279F500D1124692F70E0CA01B6
:104990000E94F73260387105B0F28FE7089561E048
:1049A00070E0D4CF81E00895E3E3E80FE331E0F570
:1049B000F0E0EE5FFA4C0C942D330E945024819568
:1049C0008093820308950E945024FACF0E945024BD
:1049D00081958093810308950E945024FACF0E940C
:1049E00098248093830308950E9498248195F9CF99
:1049F0000E94982481958093840308950E949824AE
:104A0000FACF815D990B21E030E001C0220F8A9539
:104A1000EAF780918003822B809380030895809130
:104A20007E03816080937E03089580917E0382607F
:104A3000F9CF80917E038460F5CF409181038D3C56
:104A400059F48091820387FF0DC0109282034423A2
:104A500059F410927D0308C08E3C81F4809182034A
:104A600018169CF3442381F0809183039091840372
:104A7000892B811159C010927C0308958F3C41F419
:104A800047FFF0CF10928103809182038823E0CF0B
:104A9000803D19F41416B4F3E5CF90918303893D5A
:104AA00029F41916FCF610928303DCCF8A3D19F421
:104AB00097FFD8CFF8CF909184038B3D29F497FFCF
:104AC000D1CF10928403CECF8C3D19F41916CCF3BC
:104AD000C9CF9FE2980F983090F4815D990B21E047
:104AE00030E0B90102C0660F771F8A95E2F7CB016B
:104AF000809590918003892380938003B3CF8D3D6F
:104B000031F480917E038E7F80937E03ABCF8E3D08
:104B100021F480917E038D7FF7CF8F3D09F0A2CFE6
:104B200080917E038B7FF0CF08950E94BA29209157
:104B3000810330918203232B222321F080937A0377
:104B400090937B032091830330918403232B2223B2
:104B500021F080937803909379038FE793E00E948C
:104B60009727089586E0EFE7F3E0DF011D928A952D
:104B7000E9F710927D0310927C0310927E03089552
:104B8000FC01828181110DC0838181110AC0848161
:104B9000811107C081E09581911101C080E0817091
:104BA000089581E0FCCFA6E0B0E0E9EDF5E20C94D9
:104BB000713386E0EFE7F3E09E012F5F3F4FD901AD
:104BC00001900D928A95E1F7109281031092820371
:104BD00010928303109284038B819C81892B89011D
:104BE000882391F080917A0390917B030E94E329BE
:104BF0009C0180917D038823C9F140916D0150E0B3
:104C00004217530708F43FC08D819E81892B88236A
:104C100099F080917803909179030E94E3299C0197
:104C200080917C03882309F467C04091690150E0BA
:104C30004217530708F46EC0B8018FE793E00E9453
:104C40005E28811105C08FE793E00E94C025811185
:104C50000E94952586E0F801AFE7B3E001900D9240
:104C60008A95E1F72696E5E00C948D3340916E012C
:104C70009AE0499FA00111244217530728F68F5F3D
:104C800080937D0302C08F3FD1F7FB80FF2059F056
:104C90000E94502491E01F140CF09FEF899F802DFB
:104CA000112480938103FC80FF2059F00E9450243E
:104CB00091E01F140CF09FEF899F802D11248093A9
:104CC000820380918103882309F49ECFF0908203B0
:104CD000FF2009F499CF0E944224811101C081E094
:104CE000809381038F2D0E944224882319F08093A2
:104CF00082038ACF81E0FBCF40916A019AE0499F0D
:104D0000A00111244217530708F096CF8F5F8093BC
:104D10007C0302C08F3FD1F7FD80FF2059F00E9435
:104D2000982491E01F140CF09FEF899F802D11248F
:104D300080938303FE80FF2059F00E94982491E025
:104D40001F140CF09FEF899F802D11248093840302
:104D500080918303882309F46FCFF0908403FF20B0
:104D600009F46ACF0E944224811101C081E080933E
:104D700083038F2D0E944224882319F0809384039B
:104D80005BCF81E0FBCF0F931F93CF93DF93C42FB3
:104D9000D22FFC0185818823C9F0409387030E94AC
:104DA000BA29909386038093850380E28C0F883024
:104DB00040F4C77081E001C0880FCA95EAF70E94ED
:104DC0006405DF91CF911F910F9108951091870392
:104DD00014133CC080918503909186030E94E329BF
:104DE000883C910598F5C0E2CD0F1D1741F180E296
:104DF000810F883040F4177081E001C0880F1A9548
:104E0000EAF70E946B05C83020F0802F0E945B05F6
:104E1000D8CF91E08D2F877001C0990F8A95EAF75E
:104E2000892F0E946405802F0E945B05D77081E066
:104E300001C0880FDA95EAF70E946B05C2CF802F78
:104E40000E945B05C83008F0BCCFF0CF80E28C0F29
:104E5000883008F0B6CFC77081E001C0880FCA95CE
:104E6000EAF7EACF0F93FC01CB01E851FC47E730AA
:104E7000F10590F5EB5EFA4C0C942D3306E221EE31
:104E800041EE6AE17CE70E94C32680E00F9108951D
:104E900007E225EE45EE6BE17CE7F5CF06E221EE79
:104EA00040EE68E17CE7EFCF07E225EE44EE69E1F2
:104EB0007CE7E9CF06E221EE42EE6CE17CE7E3CF4E
:104EC00007E225EE46EE6DE17CE7DDCF08E221E06A
:104ED00045EE6EE17CE7D7CFFB0185818111109211
:104EE000870381E0D3CF90938E0380938D03089541
:104EF0000E949013811103C0809188030895E0916E
:104F00008D03F0918E03309729F00190F081E02D10
:104F10000995089580E00895E0918D03F0918E0346
:104F2000309721F00280F381E02D09950895DC018E
:104F3000E0918D03F0918E03309739F082E08C93ED
:104F40000680F781E02DCD0109950895A3E0B0E03A
:104F5000ECEAF7E20C9474339C0180918B039091FE
:104F60008C0382179307A1F030938C0320938B035B
:104F7000E0918D03F0918E03309751F083E08983A7
:104F80003B832A830084F185E02DCE0101960995AB
:104F90002396E2E00C949033A3E0B0E0E2EDF7E278
:104FA0000C9474339C018091890390918A03821739
:104FB0009307A1F030938A0320938903E0918D0336
:104FC000F0918E03309751F084E089833B832A83EC
:104FD0000084F185E02DCE01019609952396E2E04B
:104FE0000C94903340910401509105019A012E5F79
:104FF0003F4F485F5F4F80E0F90190812F5F3F4F47
:1050000091118F5F42175307B9F70895882371F004
:105010002091040130910501F9013296285F3F4F3C
:105020009191981729F0E217F307D1F780E00895DE
:1050300081E008959C01FC0132968FEF90E0419150
:10504000461751F08F3F19F4411101C0892F9F5F1E
:105050009630A9F78F3F09F40895280F311D87FD79
:105060003A95F901628308959C01FC013296285F0C
:105070003F4F8191861303C0DF0111971C92E21705
:10508000F307B9F70895682F809104019091050105
:105090000E941A280895682F8091040190910501BB
:1050A0000E9434280895E0910401F09105013296A0
:1050B00086E0DF011D928A95E9F70895DC01FB0186
:1050C00011969C9111978181981322C012968C9110
:1050D0001297882319F0928189131AC013968C9124
:1050E0001397882319F09381891312C015968C9118
:1050F0001597882319F0958189130AC014969C91FD
:10510000992321F081E02481291303C080E001C0AC
:1051100081E08170089508950E948B280895A4E08D
:10512000B0E0E5E9F8E20C9474338F5F809372018C
:1051300080916F0190917001A0917101B091720105
:10514000BC01CD010E948C282496E2E00C9490339F
:10515000A4E0B0E0EEEAF8E20C94743383E08093CC
:10516000720180916F0190917001A0917101B091D5
:105170007201BC01CD010E948C282496E2E00C94BF
:1051800090330E948F280895A4E0B0E0EAECF8E2A2
:105190000C94743381E08093720180916F0190913F
:1051A0007001A0917101B0917201BC01CD010E940A
:1051B0008C282496E2E00C9490330E94C428089531
:1051C000A4E0B0E0E6EEF8E20C94743391E08111D3
:1051D00001C090E09093710180916F0190917001F6
:1051E000A0917101B0917201BC01CD010E948C2887
:1051F0002496E2E00C949033809171010895A4E02C
:10520000B0E0E5E0F9E20C94743380937001809192
:105210006F0190917001A0917101B0917201BC0178
:10522000CD010E948C282496E2E00C94903380916A
:1052300070010895A4E0B0E0E0E2F9E20C94743368
:1052400080936F0180916F0190917001A091710125
:10525000B0917201BC01CD010E948C282496E2E03D
:105260000C94903380916F010895089508950E94E1
:1052700036290895089508950E9435290895CF93F9
:105280000E943A290E94F4120E943B29C0E08C2F10
:105290000E949711811105C0CF5FCA30C1F7CF912D
:1052A000089581E0FCCF85B7806885BF85B78068A9
:1052B00085BF08951F921FB61F9211248F939F934D
:1052C000AF93BF9380918F03811113C08091E1034D
:1052D0009091E203A091E303B091E4034196A11DF4
:1052E000B11D8093E1039093E203A093E303B09395
:1052F000E403BF91AF919F918F911F901FBE1F90AC
:1053000018958091E903843031F10E943E04109297
:105310008F0388E190E020E40FB6F894A89580937D
:1053200060000FBE2093600083B7817F846083BFDD
:1053300083B7816083BF7894889583B78E7F83BF5E
:105340000FB6F894A8958091600088618093600002
:10535000109260000FBE08950E94C1070E9446048B
:10536000089582E084BD93E095BD9AEF97BD809348
:105370006E0008952FB7F8948091E1039091E203B5
:10538000A091E303B091E4032FBF0895A4E0B0E03F
:10539000ECECF9E20C9474338FB7F8942091E103AC
:1053A0003091E2034091E3035091E40329833A836F
:1053B0004B835C838FBF69817A818B819C8124962A
:1053C000E2E00C9490339C014FB7F8948091E10394
:1053D0009091E203A091E303B091E4034FBF821BDD
:1053E000930B0895A4E0B0E0E8EFF9E20C94723377
:1053F000462F572FBC012FB7F8948091E10390916D
:10540000E203A091E303B091E4032FBF8C019D015F
:10541000041B150B260B370BC901B8012496E4E0D9
:105420000C948E3378941F921FB61F9211248F9381
:105430009F93AF93BF938091E1039091E203A0917A
:10544000E303B091E4030196A11DB11D8093E10334
:105450009093E203A093E303B093E403BF91AF9171
:105460009F918F911F901FBE1F90189581E0809390
:10547000E00080E28093D8001092C9008FE19EE4A2
:105480000197F1F700C0000087E090EBDC0180930A
:10549000F2039093F303A093F403B093F50388E130
:1054A0009CE00FB6F894A895809360000FBE90938F
:1054B0006000FFCF88E19CE00FB6F894A895809338
:1054C00060000FBE90936000FFCF8EE1489B03C049
:1054D00081508111FBCF489BFECF0895589880E200
:1054E0008A95F1F7589A0895FC012BE02A95F1F777
:1054F00028E090E080E031E040E14A95F1F7880F44
:10550000489B02C08160932742E04A95F1F7000072
:1055100040E14A95F1F721502111EECF20E12A9583
:10552000F1F729B132E03A95F1F7000040E14A95F0
:10553000F1F7217092272081920F90830895A1E0C6
:10554000B0E0E5EAFAE20C94703319828C017C0138
:10555000E60EF11C0E151F0541F481E099819111B1
:1055600080E02196E6E00C948C330E94652ACE01FF
:1055700001960E94742AF80181938F01EBCF509A13
:10558000589A08955098589AE89AE9E6F0E0808190
:105590008C7F808308956150770B91E001C0990F53
:1055A0006A95EAF7692F90E021E0611108C099231C
:1055B00099F0589A80E28A95F1F758980895362F15
:1055C0003823332339F0589A922730E23A95F1F78D
:1055D0006695EBCF5898F9CF5898ECCFFF920F9380
:1055E0001F93CF93DF93EC018C01060F111DC017A1
:1055F000D10729F4CDB7DEB7E5E00C948D33F990EF
:105600000E946E2A68E08F2D0E94CB2AF0CF1F9255
:105610000F920FB60F9211240F931F932F933F9366
:105620004F935F936F937F938F939F93AF93BF93AA
:10563000EF93FF93CF93DF930F92CDB7DEB719822D
:105640000E94652ACE0101960E94742A082F0695B1
:1056500006950695982F92959570202F2570920F9C
:10566000292F237096959695920F98279770898188
:10567000892B81115CC0093008F059C080E18A95FE
:10568000F1F7589A509A82E08A95F1F700C058983D
:1056900088E0089F80011124D801AE5EBE4F1696A7
:1056A000ED91FC9117973097A9F06091F6017091F8
:1056B000F70114962D913C911597260F371F1196DF
:1056C0008D919C911297680F791F13964C911397A7
:1056D0008C910995F801EE5EFE4F6381662351F0CF
:1056E0002091F6013091F70184819581820F931FFB
:1056F0000E94EE2A0E946E2A80E18A95F1F758985E
:105700005098589A80E18A95F1F7F801EE5EFE4FC5
:105710006081662351F02091F6013091F70181817B
:105720009281820F931F0E949F2A0E94652A0F90E8
:10573000DF91CF91FF91EF91BF91AF919F918F91A9
:105740007F916F915F914F913F912F911F910F9199
:105750000F900FBE0F901F9018950F931F93CF932C
:10576000DF938C0109970CF065C0F894509A589813
:1057700085E08A95F1F70000C02FC695C570802F8F
:105780008570C80F8C2F8370C695C69593E0000F67
:10579000111F9A95E1F7C80FC8018C2BEC010E94EC
:1057A0006E2A00C068E08C2F0E94CB2A90E19A9567
:1057B000F1F75098589A489B35C087E090E0489997
:1057C00033C0F801EE5EFE4F6381662361F02091E5
:1057D000F6013091F70184819581820F931F0E9419
:1057E0009F2A882321F10E94652A80E28A95F1F799
:1057F0005898509A90E19A95F1F7F801EE5EFE4FB5
:105800006081662351F02091F6013091F70181818A
:105810009281820F931F0E94EE2A0E946E2A789432
:1058200081E009C000C0C7CF0197009749F4509AA2
:10583000589A789480E0DF91CF911F910F9108954D
:1058400000C0BDCF0895282FCB01BA013091E903E4
:105850003430E1F42F702093E9002FEF3091E8000D
:1058600035FD07C035ED3A95F1F7000021502111C3
:10587000F5CF2091E80025FF09C040E050E00E94EC
:10588000252E8091E8008E778093E8000895BC0172
:1058900043E050E082E00E94232C0895BC0146E0E2
:1058A00050E082E00E94232C0895CF93DF93D82FFD
:1058B000C92F0E94FC2848E050E06D2F7C2F81E02A
:1058C0000E94232C88E0ED2FFC2FA0E9B3E001908B
:1058D0000D928A95E1F7DF91CF9108958091E803C9
:1058E000811109C00E94AD2F0E940A308091E20010
:1058F00084608093E20008951092E80308950E9466
:10590000C42881E00E94E02808956091E50381E0C9
:10591000611101C080E00E94A82808959091E903D8
:1059200081E0943009F080E06091E5030E94C12895
:10593000089542E061EC81E00E94292F42E261EC8F
:1059400082E00E94292F9091E90381E0943009F0D0
:1059500080E06091E5030E948F2808958091EB0319
:10596000893089F148F4823009F4A0C0833009F409
:105970005AC0813041F008958A3009F487C08B30D5
:1059800009F46CC008958091EA03813A09F04AC095
:105990008091E800877F8093E8008091EE039091EA
:1059A000EF03892B61F060E080E090E070E00E94FE
:1059B000742E8091E8008B778093E800089568E06A
:1059C00080E993E0F3CF8091EA03813259F5809129
:1059D000EE039091EF03029728F58091E800877F0E
:1059E0008093E8008091E80082FF18C09091F30056
:1059F0008091F200029731F48091F100813011F032
:105A0000863021F48091F1000E94FF288091E80007
:105A10008B778093E8000E945D2F04C08091E9039A
:105A20008111E0CF08958091EA03813AD9F78091FE
:105A3000EE039091EF03892BA9F78091E800877F0F
:105A40008093E8008091E80080FFFCCF0E94FC2852
:105A50008093F1008091E8008E77DBCF8091EA039C
:105A6000813201F78091EE039091EF03892BD1F6FB
:105A70008091E800877F8093E8000E945D2F8091ED
:105A8000EC030E94E0280E94C10708958091EA0378
:105A9000813241F68091E800877F8093E8000E9480
:105AA0005D2F8091ED030E941A2908958091EA03E9
:105AB000813A09F0B7CF8091E800877F8093E800B2
:105AC0008091E80080FFFCCF0E943229C1CF84B7CB
:105AD000877F84BF0FB6F894A89580916000886195
