:100000000C94F1020C94C12A0C9429030C9429033A
:100010000C9429030C9429030C9429030C942903B0
:100020000C9429030C9429030C94E12F0C94B43004
:100030000C9414290C9429030C9429030C9429037F
:100040000C9429030C9429030C9429030C94290380
:100050000C9429030C94CC290C9429030C942903A7
:100060000C9429030C9429030C9429030C94290360
:100070000C9429030C9429030C9429030C94290350
:100080000C9429030C9429030C9429030C94290340
:100090000C9429030C9429030C9429030C94290330
:1000A0000C9429030C9429030C94290329001E00A5
:1000B0001F002000210022002B0014001A0008005D
:1000C00015001700E00004001600070009000A00F0
:1000D000E1001D001B0006001900050000000000E3
:1000E000E32421522C005200460027002600250060
:1000F000240023002A00130012000C0018001C002A
:10010000343133000F000E000D000B00E500380005
:100110003700360010001100000000002352225268
:100120002800510000000000000000000000000056
:100130002B0031022D02310035002F02E0001E029B
:100140001F02200221022602E100220223023802BD
:1001500036022F00000000000100010001004B00EA
:100160000000000000000000000000002A002E0235
:100170004D0052004A003002E40056004F0051008A
:1001800050002702E50067002502240237023000F4
:10019000000000002C002C0001004E00277805789C
:1001A000067804780378027828783A003B003C000F
:1001B0003D003E00297859005A005B005C005D005C
:1001C0002A78AA00A900480053000000000000009F
:1001D00001000100E20000002578247823782278CD
:1001E00021782078267843004200410040003F00FB
:1001F000E4006200610060005F005E00E500450011
:1002000044000000000000000000000001000100A8
:10021000E6000000010001000100010001000100F2
:1002200001000100010001000100010001000100C6
:1002300001000100010001000100010001000100B6
:1002400001000100000000000100010001000100A8
:100250000100010001000100010001000100D900BE
:10026000D200CD00D100D3000100DA00D000CE00D2
:10027000CF0001000100010001000100DF000100CA
:100280000000000001000100010001001E0F050038
:10029000047F3F1F643214643214783C1E1E140A1B
:1002A000052223252628292A2C2D2F3032333536B6
:1002B000383A3B3D3E4042434547494A4C4E5051F7
:1002C000535557595A5C5E6062646668696B6D6F1E
:1002D00071737577797B7D7F81838587898A8C8E21
:1002E00090929496989A9C9E9FA1A3A5A7A8AAAC29
:1002F000AEAFB1B3B4B6B8B9BBBCBEBFC1C2C3C563
:10030000C6C7C9CACBCCCDCED0D1D2D2D3D4D5D604
:10031000D7D7D8D9D9DADADBDBDBDCDCDCDCDCDD37
:10032000DDDDDDDCDCDCDCDCDBDBDBDADAD9D9D81B
:10033000D7D7D6D5D4D3D2D2D1D0CECDCCCBCAC9B3
:10034000C7C6C5C3C2C1BFBEBCBBB9B8B6B4B3B1E2
:10035000AFAEACAAA8A7A5A3A19F9E9C9A9896947D
:1003600092908E8C8A89878583817F7D7B79777552
:1003700073716F6D6B6968666462605E5C5A595731
:10038000555351504E4C4A4947454342403E3D3BF0
:100390003A3836353332302F2D2C2A29282625237A
:1003A00022FFAA7F55400001010101010101010165
:1003B0000202020202020202020303030303030316
:1003C00003040404040404040505050505060606E3
:1003D0000606070707070708080808090909090AA0
:1003E0000A0A0B0B0B0C0C0C0D0D0D0E0E0E0F0F45
:1003F0000F101011111112121313141415151616D3
:100400001717181819191A1A1B1B1C1D1D1E1E1F41
:100410002020212222232424252626272829292A90
:100420002B2C2D2D2E2F30313232333435363738B8
:10043000393A3B3C3D3E3F404142434445464748B4
:10044000494A4C4D4E4F50515354555658595A5B8A
:100450005D5E5F616264656668696B6C6D6F70722A
:10046000737577787A7B7D7E8082838587888A8C96
:100470008E8F91939596989A9C9EA0A2A3A5A7A9CA
:10048000ABADAFB1B3B5B7BABCBEC0C2C4C6C9CBC1
:10049000CDCFD1D4D6D8DBDDDFE2E4E7E9EBEEF077
:1004A000F3F5F8FAFDFF1A034900720069007300C2
:1004B00020005200650076002E002000350061000B
:1004C00000000E034B0065006500620069006F00CC
:1004D00000000403090409023B00020100A0FA091C
:1004E000040000010301010009211101000122445F
:1004F0000007058103080001090401000103000051
:1005000000092111010001227B0007058203200060
:1005100001120100020000000810CB565310050123
:1005200002000105010902A10185020901A10005DE
:100530000919012908150025019508750181020591
:1005400001093009311581257F9502750881060959
:10055000381581257F950175088106050C0A38023A
:100560001581257F950175088106C0C005010980A8
:10057000A101850319012AB700150126B7009501CD
:1005800075108100C0050C0901A101850419012A1B
:10059000A002150126A002950175108100C0050179
:1005A0000906A101050719E029E7150025019508AD
:1005B000750181029501750881010507190029FF60
:1005C000150026FF00950675088100050819012908
:1005D0000515002501950575019102950175039199
:1005E00001C011241FBECFEFDAE0DEBFCDBF04B6DD
:1005F00003FE18C08091D5039091D603A091D70334
:10060000B091D8038730904BA740B04B59F410926B
:10061000D5031092D6031092D7031092D803E0E0CE
:10062000F8E3099512E0A0E0B1E0EEECF9E602C0D3
:1006300005900D92A832B107D9F723E0A8E2B2E005
:1006400001C01D92A53DB207E1F70E94C1160C94AE
:100650007F340C940000CF93DF93D82FC62F0E94D5
:10066000B421882341F0D1110AC089EAC11101C027
:100670008AEA0E947A0580E0DF91CF910895D13017
:10068000D1F78EE4C111F5CF8BE4F3CF8430B8F409
:100690006A30A8F4463098F4E42FF0E096E0699FC1
:1006A000E00DF11D11249CE3899FE00DF11D112443
:1006B000EE0FFF1FE455FF4F85919491089581E05F
:1006C00090E008950E944603089581E008950E94F5
:1006D0006503089581E008950E94650308950E94CE
:1006E0006C03089508950E9472030895A6E0B0E097
:1006F000ECE7F3E00C942B3349835A839E833091CB
:100700002F0289819A8131111AC03E81332399F0D9
:10071000222389F00E943509182F682F89819A8138
:100720000E94110969817A81812F0E940E102696FC
:10073000E3E00C9447330E942309182FF3CF0E9463
:10074000350969817A81F1CFFC01262F40815181E1
:1007500062817381848195810E9476030895CF938D
:10076000DF93D82FC92F61E00E94A4036D2F7C2F47
:100770000E946703DF91CF910895CF93DF93D82F25
:10078000C92F60E00E94A4036D2F7C2F0E94730389
:10079000DF91CF91089581E008950E94CB030895E1
:1007A000CF93C82F0E94E3078C2F0E94CD032FEF19
:1007B00084E39CE0215080409040E1F700C00000BD
:1007C000CF91089581E00E94D0030E94F0290895FE
:1007D00080E00E94D0030E94142A08950F931F9373
:1007E000CF93DF938C0161E00E94A403EC01F80138
:1007F000858181110E942F1FB801CE010E946F03D5
:10080000882309F442C0B801CE010E94AF2088239A
:10081000E1F1B801CE010E947A278823B1F1B80135
:10082000CE010E949923882381F1B801CE010E9454
:100830006E23882351F1B801CE010E944F1F8823F7
:1008400021F1F8018581882381F0CA35FCE7DF07B3
:1008500039F178F4C130ECE7DE07F9F0C330FCE79A
:10086000DF07C9F0C115DC4771F0C8010E946A03B7
:100870000DC0CB35ECE7DE07B1F0CC35DC47A9F78E
:100880000E94370DF2CF0E94E20380E0DF91CF910A
:100890001F910F9108950E94490D0E94E803F5CF22
:1008A0000E94410DE2CF0E94450DDFCF0E94F1284A
:1008B00080E00E948E200E94820408950E94DF1F23
:1008C0000E9486040E94F6280895089581E0089504
:1008D0000895CF93DF93D82F0E946604C82F8823F2
:1008E00019F08D2F0E9468048C2FDF91CF9108950D
:1008F0000895CF93C82F0E9465048C2F0E9469042D
:10090000CF91089580E00E94790408950E94C02745
:100910000E9479040895CF930E94C027C82F809128
:100920002A028C1779F0C0932A020E9480296093D2
:100930002B0270932C0280932D0290932E028C2F09
:100940000E947904CF910895ADE0B0E0EAEAF4E0C6
:100950000C942C33488759876A877B878C879D87BF
:1009600091110E94740C1F8286E0FE013896DE0110
:10097000119601900D928A95E1F78D8181110DC03C
:1009800029813A814B815C816D817E818F810E94BA
:10099000BA0B2D96E2E00C944833CE0101960E94EA
:1009A000AF038111EDCFF5CFFC018481813021F4BB
:1009B000808191810E9467090895662329F00E9431
:1009C00007250E94DD2508950E946525FACFCF9363
:1009D000C82F882399F08CEF8C0F813A88F48C2FE4
:1009E0000E944E28882329F08C2F0E9493280E9471
:1009F000E50C8C2F0E948B280E94E50CCF91089566
:100A000080E28C0F883048F4C77081E001C0880F05
:100A1000CA95EAF70E94550CEFCF8BE58C0F833017
:100A200038F42C2F2452330BC9010E94EE27E6CF55
:100A3000E8E5EC0FEB3150F4F0E0EE0FFF1FEE585D
:100A4000FE4F808191810E941428D8CF83E38C0FC0
:100A50008331A0F661E08C2F0E94DD04CFCF882384
:100A600081F19CEF980F913A28F40E9493280E94FC
:100A7000E50C089590E2980F983050F4877091E05B
:100A800001C0990F8A95EAF7892F0E945B0CEFCF7E
:100A90009BE5980F933028F480E090E00E94EE27C9
:100AA000089598E5980F9B3128F480E090E00E942B
:100AB0001428089593E3980F933118F460E00E948E
:100AC000DD0408951F93CF93DF93182FEB010E944D
:100AD000E704209739F4812F0E942F05DF91CF91F1
:100AE0001F9108958FE99FE00197F1F700C0000082
:100AF0002197EFCF60E070E0893311F460E570E09A
:100B00000E9462050895882321F00E94550C0E94DE
:100B1000E50C0895882321F00E945B0C0E94E50CEF
:100B20000895A0E0B0E0E7E9F5E00C9426336C010D
:100B3000D62FC72FFC011581068102950F700E94E8
:100B40004A0CE82E8823F9F0E12E1123E1F08C2FD6
:100B5000807F803461F080E28D0F8830F0F08C2F40
:100B6000807E803221F4D230C0F00023B1F0809139
:100B7000800382FF12C082E00E940A0D0E944A0C8C
:100B800091E0E82EE926EC2FE295EF70C03CB0F53D
:100B9000F0E0EF57FB4C0C94E532E12CF4CF0C2F36
:100BA0000F70C03110F00295007F112399F00023DF
:100BB00059F080E28D0F883010F0D11107C0802FDE
:100BC0000E94550C0E94E50C8D2F51C0802F0E9471
:100BD000660CF8CF8D2F0E942F05002379F080E25C
:100BE0008D0F883010F0D11104C0802F0E945B0C53
:100BF00003C0802F0E946C0C0E94E50CEE2089F04F
:100C00000E94460C80FD0DC0F60115820E94400C2A
:100C10000E946E08C6010E94AA070E94400C0E9412
:100C20007E08CDB7DEB7E8E00C944233FC2FFF70AE
:100C3000FF2EC07FC03219F0F29480EFF822DD233E
:100C400041F0D130D1F1112309F444C00023F1F077
:100C5000BBCF8091800382FD15C0112359F0FF2086
:100C600029F08F2D0E94550C0E94E50C80E00E9417
:100C7000E704C4CF80E00E942F05FF2009F4BECF17
:100C80008F2DB4CF112369F0011104C08F2D0E9464
:100C90008305B4CF013009F0B1CF8F2D0E948C0CA9
:100CA000ADCF0111ABCF8F2D0E948A058F2D0E94F1
:100CB000980C8F2D0E947B0CA1CF112321F00630C0
:100CC00008F09CCFE3CF053008F098CF8F2D0E941D
:100CD0008A0594CF0023D1F3D93349F42FEF87EE5F
:100CE00093E0215080409040E1F700C000008D2F3C
:100CF0000E942F0583CF8C2F86958695837088233D
:100D000069F0813009F07ACF8D2F9C2F93701111EB
:100D100002C080E090E00E94142870CF8D2F9C2F9D
:100D20009370111102C080E090E00E94EE2766CF20
:100D3000612F8D2F0E94DD0461CF8C2F8370811174
:100D400039C0111129C04D2F429546954770440F67
:100D5000440F2D2F2F7030E0042E02C0220F331FBE
:100D60000A94E2F780E090E0D4FF09C08FE090E0C1
:100D700002C0880F991F4A95E2F780959095C69515
:100D8000C695C370822B932BC23071F0C33079F0BB
:100D9000C13039F00E943E080E94C0270E947904A9
:100DA0002DCF0E943508F8CF0E944708F5CF0E944A
:100DB0003208F2CF112361F1C0FFEECF4D2F4295E3
:100DC00046954770440F440F2D2F2F7030E0042EAE
:100DD00002C0220F331F0A94E2F780E090E0D4FFB4
:100DE00009C08FE090E002C0880F991F4A95E2F792
:100DF00080959095C695C695C370822B932BC23073
:100E000069F0C33071F0C13031F00E94A908C4CF3D
:100E1000823010F2D3CF0E94A008BECF0E94B20849
:100E2000BBCF0E945608B8CFCF70112339F08C2F5A
:100E30000E946E088D2F0E948305AECF8D2F0E94D9
:100E40008A058C2F0E947E08A7CFD23F31F170F423
:100E5000D03FB9F0D13FB1F1112309F451C00023C3
:100E600009F44BC08D2F0E94E70496CFD33FE1F0E9
:100E7000D43F21F11111F3CF011150C08C2F8F718C
:100E8000E1CF112341F0053008F086CF8C2F8F7110
:100E90000E94900881CF0530F7CF8C2F8F711111F0
:100EA000D1CF0E946E0878CF112329F08C2F8F713B
:100EB0000E94620871CF0E945D086ECF809180030E
:100EC00082FD06C08C2F8F71112309F4BBCFE9CFAF
:100ED000112349F0CF718C2F0E946E0863E08C2F94
:100EE0000E94EC0C59CF81E00E940A0D023008F4F8
:100EF00053CF82E00E940A0D4FCF8C2F8F71D1CF3C
:100F0000002309F4BBCFD93349F4EFEFF7EE23E028
:100F1000E150F0402040E1F700C000008D2F0E941A
:100F20002F053ACF0F931F93CF93DF93EC01688186
:100F300079818D810E9474098C010E94BB080E94F6
:100F40003108B801CE010E949105DF91CF911F9128
:100F50000F910895CF93DF93EC018C81882399F052
:100F6000CE010E94EE03811111C00E944A0C882319
:100F700051F08D81882339F08091800382FF03C076
:100F800082E00E940A0DDF91CF910895CE010E9468
:100F90009207CE010E94BD03F6CF80E090E00E9450
:100FA000EE2780E090E00E9414280E94740C0E94BA
:100FB000E50C0E94FA250E94DD2508950E949B28D9
:100FC0000E94CD0708950E94630C0E94DE070895D9
:100FD000282F92959F70963091F060F4925F9F70E9
:100FE000923030F481E0203F79F030F4283E30F048
:100FF00080E008959A5FF3CF243FD1F7089581E010
:10100000283EE0F3213FF9CF0895FC018481882335
:1010100039F0808191810E9467090E94E807089554
:1010200080E00895A6E0B0E0E8E1F8E00C942C330D
:101030002696E2E00C944833A7E0B0E0E2E2F8E064
:101040000C942C332796E2E00C94483308950E94C8
:10105000260808950E942708909353028093520215
:10106000089508950E942A0808952091520230910F
:101070005302822B932B0E942A080895209152023A
:1010800030915302822393230E942A0808952091CD
:10109000520230915302822793270E942A08089512
:1010A0000E94260808950E94500808950E9453083F
:1010B0009093510280935002089580E090E00E9446
:1010C0005608089521E030E0A90102C0440F551FE1
:1010D0008A95E2F7CA010E945608089521E030E09F
:1010E00002C0220F331F8A95E2F78091500290913F
:1010F0005102822B932B0E945608089521E030E084
:1011000002C0220F331F8A95E2F720953095809117
:10111000500290915102822393230E945608089511
:1011200021E030E002C0220F331F8A95E2F7809160
:10113000500290915102822793270E9456080895E9
:101140002091500230915102822B932B0E9456081D
:1011500008952091500230915102822393230E94DE
:10116000560808952091500230915102822793270A
:101170000E945608089508959B01677091E001C090
:10118000990F6A95EAF763E0369527956A95E1F736
:10119000220F331F220F331FFA01E20FF31F40E02B
:1011A00050E0682F70E08191DF0111979B01042EC0
:1011B00002C0369527950A94E2F7217021952827D9
:1011C000292328272C934F5F5F4F4430510559F74F
:1011D00008959C01982F977083E0369527958A95FE
:1011E000E1F7220F331F220F331FFB01E20FF31F22
:1011F00040E050E080E0219130E0092E02C03695B9
:1012000027950A94E2F721703327042E01C0220F9C
:101210000A94EAF7822B4F5F5F4F4430510559F72C
:101220000895282F862F9A3068F4263058F4622FBC
:1012300070E026E0929F600D711D112440E352E0A2
:101240000E94BC080895292F9A3068F4863058F41B
:1012500090E060E372E036E0239F800D911D112441
:101260000E94E908089580E00895A0E0B0E0EBE373
:10127000F9E00C9425338C01E0905002F09051027B
:101280008091520290915302E82AF92ACFE0D0E0EF
:10129000CC24C394D12CC6010C2E02C0880F991FF8
:1012A0000A94E2F78E219F21892B49F4219798F720
:1012B000B12C8B2DCDB7DEB7E9E00C944133BC2EB9
:1012C000B8018C2F0E941A10019781F3F2CFCF93AF
:1012D000DF93D82FC92F0E9435096D2F7C2F0E94D4
:1012E0001A10DF91CF9108951F93CF93DF93162F9C
:1012F000D72F90912F02992341F0862F972F0E948C
:101300006709DF91CF911F910895882381F0862F7F
:10131000972F0E943509C82F682F812F9D2F0E947B
:101320001109612F7D2F8C2F0E941A10EACF862F72
:10133000972F0E942309C82FF4CF0F931F93CF93A9
:10134000E0915402C7E0809155028E1304C0CF9102
:101350001F910F9108950E2F10E0CE9FF0011124E0
:10136000EA5AFD4F20813181428153816481758128
:1013700086810E941C08F8013196E770E4CF209125
:101380008E0230918F0240919002509191026091B3
:10139000920270919302809194020E941C08089519
:1013A00080919402803178F480919302882359F0DF
:1013B000E09154022091550230918F0240918E02AB
:1013C00057E02E1301C008956E2F70E05E9FF0016C
:1013D0001124DF01AA5ABD4F14968C9114978823CB
:1013E00061F111968C911197831327C08C9184130E
:1013F00024C015968C91159781111FC012968D915E
:101400009C91A0919002B09191028A1B9B0B883C09
:10141000910598F4809194028F708061809394027A
:10142000E45AFD4F80818F70806180838EE892E066
:101430000E94AA070E949D090895FB013196E7705A
:10144000C0CFE09154029091550227E0E91302C009
:1014500080E00895AE2FB0E02E9FF0011124EA5AEB
:10146000FD4F3181361306C03081381303C03581FA
:10147000341304C0FD013196E770E8CF81E0089590
:101480008F929F92AF92BF92DF92EF92FF920F9353
:101490001F93CF93DF93CDB7DEB72D970FB6F89498
:1014A000DEBF0FBECDBF8C0186E0F801DE011896CD
:1014B00001900D928A95E1F7F801E080F580A28015
:1014C000B38084819EE8892E92E0992E90919202B9
:1014D00091111BC0882309F4FCC0FF2009F43DC111
:1014E000C8010E940508882309F437C187E0F80184
:1014F000D40101900D928A95E1F7C4010E94D404B1
:101500000E94D0090E94BF09E4C0D09093022091AC
:10151000900230919102A501421B530BDD2009F48A
:10152000DBC0483C510508F0A6C0882309F4D1C0AF
:1015300090918F02918080919402803108F06BC06D
:10154000991228C090918E029E1124C0F1105DC0A6
:101550008F708061809394020E94BF098EE892E0B0
:101560000E94AA0780919402F8018683F12C8F2DA6
:101570002D960FB6F894DEBF0FBECDBFDF91CF9191
:101580001F910F91FF90EF90DF90BF90AF909F90D1
:101590008F900895F11039C040E0692D8E2D0E9482
:1015A000210A40E0692D8E2D0E94210AF82E81111A
:1015B000DDCF888599850E946709292F22952F7094
:1015C000903450F49F70223080F0992399F0F80104
:1015D0009681903178F4CBCF2A5F2F70223078F04B
:1015E000C8010E94AA07FD2CC2CF992319F08823B5
:1015F00009F4BDCF805E883008F4B9CFF1CF803FC9
:1016000008F4B5CF815F8230F7CF8091940281607A
:1016100080939402ABCF991207C090918E029E11D5
:1016200003C0FF2009F479C0C8010E94050888237F
:1016300009F493C0FF2009F490C080919402803295
:1016400088F020918E0230918F023A832983BC82E8
:10165000AB82909192029D831E828F83CE01019670
:101660000E94AA0787E0F801AEE8B2E001900D926F
:101670008A95E1F745CF909194029031A0F4488586
:1016800059856A857B858C859D850E9412088EE828
:1016900092E00E94AA0787E0F40111928A95E9F787
:1016A0000E94BF0963CF8823A1F020918F0281811E
:1016B0002813BACF80918E028E11B6CFF110B4CF1D
:1016C0009683C8010E94AA0787E0F40111928A95C7
:1016D000E9F7FF24F3944BCF483C510508F041C093
:1016E0008823B9F3FF20C9F190918F02818198136B
:1016F0002AC080918E028E1126C08091940280FDB6
:1017000019C08031B8F08683807F803F39F08681B0
:10171000982F907F905F8F70892B8683C8010E94DD
:10172000AA0787E0F801AEE8B2E001900D928A9531
:10173000E1F7E8CE87E0F801AEE8B2E001900D9263
:101740008A95E1F7C6CFC8010E94050881118ACFAA
:1017500080919402816080939402C8010E94AA073C
:10176000B8CF488559856A857B858C859D850E9483
:10177000120891CFAEE0B0E0E0ECFBE00C942B332C
:10178000288739874A875B876C877D878E87CE015C
:1017900008960E94400A8823B1F06C85662341F0C8
:1017A000288539854A855B857D858E850E941C0844
:1017B00017E0809154029091550289133EC02E96F5
:1017C000E3E00C94473387E0FE013896DE01119682
:1017D00001900D928A95E1F72091550240915402B3
:1017E0008C85882329F330E0C901019687709927F9
:1017F00050E08417950799F097E0929FD001939F4E
:10180000B00D1124AA5ABD4FFE01319601900D92E0
:101810009A95E1F7809355020E949D09C9CF0E94D5
:10182000E307109255021092540287E0EEE8F2E0CE
:10183000DF011D928A95E9F7BBCF189FC0011124E3
:101840008A5A9D4F0E94400A882309F4B8CFE0913C
:1018500054021E9FF0011124EA5AFD4F208131816C
:10186000428153816481758186810E941C08809128
:10187000540290E00196877099278093540299CF83
:1018800080919D02869586958695089580919D020A
:101890008770089590919D02977081E0911101C029
:1018A00080E008958091A90208959091A902982B53
:1018B0009093A9020895982F90958091A902892369
:1018C0008093A90208951092A90208959091A80208
:1018D000982B9093A8020895982F90958091A80234
:1018E00089238093A80208951092A802089508956C
:1018F0000E94770C089590919E02292F282322237D
:1019000031F08095892380939E020E94780C08957F
:1019100008950E94880C089590919F02292F2823F2
:10192000281729F0982B90939F020E94890C089504
:1019300090919F02292F2823222331F0809589231B
:1019400080939F020E94890C089580919F028823B2
:1019500029F010929F0280E00E94890C08950F9355
:101960001F93CF93DF930091040110910501C09163
:10197000A9028091A802C82BD0919F02DD2331F0EB
:101980000E943A2881110E94A50CCD2BF801C0833A
:10199000C0910401D091050148E050E065E972E092
:1019A000CE010E94F233892B59F088E0FE01A5E9AF
:1019B000B2E001900D928A95E1F7CE010E94D42702
:1019C000DF91CF911F910F9108950E94AF0C089560
:1019D00008950E94E80C08959091800392FF11C031
:1019E00098E0899F90011124622B60939D020E94D0
:1019F0006E0880919D028695869586950E94E90CD9
:101A000008950E946E08089510929D0280E00E9441
:101A1000E90C089590919D028095892380939D0201
:101A2000282F277021110DC0891759F0909180033C
:101A300092FF07C08695869586950E947E080E9433
:101A4000040D08959091800392FB222720F9281716
:101A500069F080FB92F99093800380917F039091CD
:101A600080030E946A0D82E00E940A0D0895809111
:101A7000800382FB882780F991E089270E94220D4C
:101A8000089581E00E94220D089580E00E94220DB9
:101A900008956FEF7FEF80E090E00E944A34089550
:101AA00080E090E00E9416349C0181E0263E3E4F8B
:101AB00009F080E0089582E090E00E9408340895E3
:101AC00083E090E00E940834089584E090E00E9452
:101AD00016340895BC0184E090E00E944A340895D1
:101AE000AB01BC018FE090E00E943E340895AB0151
:101AF000BC0183E190E00E943E34089560E070E014
:101B0000CB010E94770D089560E070E0CB010E9448
:101B1000700D0E947E0D0895A8E0B0E0E2E9FDE0BE
:101B20000C942C3366EE7EEF80E090E00E944A3405
:101B300060E082E090E00E942C3481E090E090939D
:101B400053028093520261E083E090E00E942C34C3
:101B500060E074E184E090E00E944A3460E086E056
:101B600090E00E942C346FEF87E090E00E942C34CC
:101B700040E050E0BA0188E090E00E943E3460E02E
:101B800084E290E00E942C3460E087E190E00E94C3
:101B90002C3460E08CE090E00E942C3460E08DE01A
:101BA00090E00E942C3419821A821B821C821D82B2
:101BB0001E821F82188648E050E068E170E0CE0186
:101BC00001960E941C3440E050E0BA0180E290E0AF
:101BD0000E943E340E94840D2896E2E00C94483323
:101BE0000E948C0D0895682F8EE090E00E942C34A6
:101BF0000895A6E0B0E0EFEFFDE00C942A330E94D8
:101C000074298C018091AA029091AB0280179107F0
:101C100079F019821A820E947429BC0149815A8183
:101C200080E090E00E94A4041093AB020093AA020B
:101C30002696E4E00C9446330E9448116093BE025D
:101C40007093BF028093C0029093C1026093BA0266
:101C50007093BB028093BC029093BD0208950E94D2
:101C600048116093BE027093BF028093C0029093AC
:101C7000C1026093B6027093B7028093B80290934A
:101C8000B9020895089508950E94420E0895089596
:101C90000E94470E089581E0089586E891E10E9430
:101CA000CE160E94430E0E94440E08950E94A8136F
:101CB0000895089508950E94590E0E945A0E08959D
:101CC0000E9489110E9478040E949C2108950E941C
:101CD0006B290E9412110E94AB130E94B9210E942D
:101CE000B9120E94600E0E9454230E94DF1F0E94BE
:101CF000DE1D0E94C7130E94480E0895A6E0B0E0C2
:101D0000E4E8FEE00C9423330E944B0E811115C0D1
:101D10000E94F90D0E94A8130E94301F0E949B216F
:101D20000E944B2281110E942F0E0E941B260E94AE
:101D30008B042696EBE00C943F330E940C138CEA44
:101D4000A82E82E0B82E750110E0F70101917F0105
:101D5000812F0E94AF111F5F1A3009F443C008178A
:101D6000A1F38091C20281FD0E94B5110E94560E1E
:101D7000C82E00E099249394802F0E94AF11182F51
:101D8000F50191915F01891739F1D82ED926F12CEF
:101D9000EE24E3948E2D8D218823B1F0CC20A1F088
:101DA000F9820A830E9474299C838B839D8291E02F
:101DB0008E2D8123811101C090E049815A816B8170
:101DC0007C818D810E94A404F394EE0CF6E0FF1256
:101DD000E1CFF501319710830F5F0A3069F60E9459
:101DE0001C0E98CF0813BDCF93CF1F93CF93DF93D3
:101DF0000E941F10EC01811522E5920708F053C0E4
:101E0000811540E5940708F0DDC0803E9105F8F4A7
:101E10008D3C910508F0AEC0883A910580F4853A72
:101E2000910508F099C08130910521F00497813A1D
:101E3000910550F4CE01DF91CF911F910895885AFA
:101E400091094B9708F48BC0C0E0D0E0F3CF811527
:101E500050E49507F8F4C11580E2D80708F0CBC02C
:101E6000C83ED10538F3CE019A9581159F4160F7A0
:101E70008D2F0E94C310182FCE0199270E941F108A
:101E8000212F30E0322F2227E901CC27DF71C82B28
:101E9000D92BD0CF99270E941F10CC27DF70C82BD9
:101EA000D92BD06AC7CF803842E59407C8F5803671
:101EB00052E5950708F067C0C03482E5D807B0F056
:101EC0008C2F86958695877020E2829FC001112411
:101ED000C37021E030E0A90102C0440F551FCA952C
:101EE000E2F7EA01C82BD92BDC68A4CFC03252E557
:101EF000D50708F041C08C2F8695869520E2829FF9
:101F0000C0011124C37021E030E0A90102C0440FD8
:101F1000551FCA95E2F7EA01C82BD92BDD688ACF95
:101F2000803C52E5950760F48F71C03AD24508F0C5
:101F30003FC090E0982F8827EC01C46FD06A7ACF19
:101F4000805C9245809708F07FCFDC2FCC27CC2790
:101F5000DF71C06FD06A6ECFA497D0646BCFC85AC0
:101F6000D0E0CC0FDD1FC855DE4F0990D881C02DC1
:101F7000D46460CFD0655ECFCF71D0E0DC2FCC27AA
:101F8000C16FD06A57CF86958695877020E2829F71
:101F9000C0011124C37021E030E0A90102C0440F48
:101FA000551FCA95E2F7EA01C82BD92BDA6842CF50
:101FB0000E94C310C82FD0E0DC2FCC27CC27DF71C4
:101FC000D06238CF8F710E94C31065E0D695C79557
:101FD0006A95E1F7CF70D0E0DC2FCC27282F30E0D6
:101FE00084FF05C054E0220F331F5A95E1F7C22B3E
:101FF000D32BD0691FCF8D2F8F710E94C310182F44
:10200000CE0199270E941F10212F30E0322F222766
:1020100022273F71282B392BE901D2CF462F672F7A
:102020007A3028F4463018F40E946203089580E064
:1020300090E008950E940E100E94F50E0895803ED3
:102040009105D1F1C8F48133910509F47FC048F4BA
:102050008932910509F46FC08A32910509F47DC077
:10206000089589339105E1F082389105C9F08533EF
:10207000910509F45BC00895843E9105D1F148F4BF
:10208000823E910531F1833E910541F181EE90E070
:102090000895863E9105C1F1873E9105E1F10895CD
:1020A00020917F032370211165C02091800323FFBD
:1020B00014C089E290E0089520917F0320FD43C081
:1020C0003091800330FF09C024FF4EC080E090E0D3
:1020D000089520917F0322FDF7CF089520917F037B
:1020E00022FD45C03091800330FD44C024FFF5CF70
:1020F000EDCF2091800321FFF0CF80917F0384FDFD
:10210000E5CF87EE90E0089520917F0323FFE5CF90
:1021100024FDDCCFF6CF20917F0323FD2EC030912C
:10212000800331FFE3CF84EE90E0089520917F0398
:1021300025FFD3CFBECF20917F0325FD21C0209165
:10214000800323FFCACF89E390E0089520917F03A5
:1021500026FFC3CF8AE290E0089520917F0326FFF7
:10216000BCCF81E390E0089583EE90E0089582EE85
:1021700090E0089580EE90E0089586EE90E0089556
:1021800085E390E0AACF90917F0392FF10C041E0D9
:10219000282F2471243009F040E031E0282F2871E5
:1021A000283009F030E0431711F02CE0822793FF2C
:1021B00010C041E0282F2471243109F040E031E0C3
:1021C000282F2871283109F030E0431711F02CE056
:1021D00082273091800330FF10C051E0282F2171F9
:1021E000213009F050E041E0282F2871283009F013
:1021F00040E0541711F029E0822731FF10C041E080
:10220000282F2171213109F040E031E0282F287179
:10221000283109F030E0431711F029E0822794FDBE
:10222000877E089510927B0310927C0310927D03A9
:1022300010927E030895CF92DF92EF92FF92CF9398
:10224000DF9300D000D0CDB7DEB76B017C010E94D8
:10225000A813811112C00E94802969837A838B831D
:102260009C83C61AD70AE80AF90AC0927B03D09267
:102270007C03E0927D03F0927E030F900F900F900D
:102280000F90DF91CF91FF90EF90DF90CF90089566
:10229000A4E0B0E0EEE4F1E10C942C330E94A8132A
:1022A000882371F00E94802969837A838B839C83C1
:1022B00069817A818B819C812496E2E00C94483379
:1022C0000E94802969837A838B839C8380917B031E
:1022D00090917C03A0917D03B0917E0329813A8186
:1022E0004B815C81280F391F4A1F5B1F29833A836A
:1022F0004B835C83DDCF0E94A813882319F00E94D2
:10230000742908950E944811CB01089580E0089532
:1023100008950E94500D811102C00E94F00D0E948C
:102320005B0D8093C2020E94650D909380038093A1
:102330007F030E9488110E94600D90E00E94320885
:1023400080915002909151020E945308089508957F
:102350000E94A711089508950E94AB110895E82FD7
:10236000F0E0E457FC4F80810895089580EA8A9553
:10237000F1F7089500C008950E94B61108950895D8
:102380000E94BF110895A5E0B0E0E9ECF1E10C94E2
:1023900027330E94A813182F60919603882309F40D
:1023A00045C01A821982FE01339683E0DF011D9237
:1023B0008A95E9F7862F90E032977F01BF01845715
:1023C0009C4F0E94D513DE2C0F2D8823B9F08091ED
:1023D000810390E045E050E0B70184579C4F0E9494
:1023E000F23321E02093C302892B99F410E00E947C
:1023F000AC11812F2596E7E00C9443338091C30202
:102400008823A1F385E0D7011D928A95E9F7109200
:10241000C302A0918103B0E0A457BC4F85E0ED2D2D
:10242000F02F01900D928A95E1F7E1CF70E06457AB
:102430007C4F8091810390E084579C4F0E945E14F2
:102440000E94C011D6CFF894E82FE295EF70F0E02B
:1024500041A18F7021E030E0B90102C0660F771F03
:102460008A95E2F7CB01962F9095942391A392A1A0
:10247000892B82A3789408950F931F93CF93DF93B2
:10248000CCE0D1E089918F3F11F00E94231281E0CE
:10249000C131D807B9F7C6E0D1E00CE011E089916D
:1024A0008F3F11F00E9423120C171D07C1F7DF9117
:1024B000CF911F910F910895A0E0B0E0E2E6F2E124
:1024C0000C942633EC01D62E062F10E0C801845F51
:1024D0009E4F7C01FC0180818F3F09F445C0F89438
:1024E000E82FE295EF70F0E091A18F7021E030E0ED
:1024F00001C0220F8A95EAF7892F822B81A382A13E
:102500002095282322A378940E94BA11E6E0F1E0F6
:1025100091E0C12C81918F3F81F0A82FA295AF70DF
:10252000A05EB0E02C9130E08F7002C03595279509
:102530008A95E2F72170892F211180E0C82A990F2E
:1025400081E0EC30F80731F7F70180818F3F11F01F
:102550000E94231261E0C11001C060E08D2D0E9435
:10256000BC11C00FD11FC882CDB7DEB7E8E00C9414
:102570004233ABE0B0E0EFEBF2E10C942C3380910E
:102580001101811124C085E0EEEDF1E0DE01179626
:1025900001900D928A95E1F785E0FE013796ACE057
:1025A000B1E001900D928A95E1F786E0E4EEF1E06A
:1025B000DE01119601900D928A95E1F786E0FE0109
:1025C0003196A6E0B1E001900D928A95E1F78091F5
:1025D000110190E0811101C095E09093960385E090
:1025E000891B809381030E943C128AE0ECE8F3E0AF
:1025F000DF01982F1D929A95E9F7E2E8F3E0DF01F9
:102600001D928A95E9F785E00E944D130E94A8115A
:102610002B96E2E00C944833AAE0B0E0E2E1F3E16B
:102620000C9429331A821982FE01339688E0DF0167
:102630001D928A95E9F7F12C8E010F5F1F4F6F2DC8
:10264000C8010E945C12F394B5E0FB12F8CF4AE097
:1026500050E0B80182E893E00E94F23321E0892B38
:1026600099F420E06091960370E064577C4F45E058
:1026700082E893E00E944E13182F0E94C311812B11
:102680002A96E5E00C9445338AE0F801A2E8B3E02D
:1026900001900D928A95E1F7E5CF0895A0E0B0E0B2
:1026A000E4E5F3E10C942633D82EE92EF62ED72F4D
:1026B000042FC22F222379F081E08093C6020E946A
:1026C00074299093C5028093C40280E0CDB7DEB731
:1026D000E8E00C944233C090C602CC20B1F3809164
:1026E000C4029091C5020E949D29059770F310E0E5
:1026F000A8016D2D7E2D8F2D9D2F0E94F233892BE9
:1027000041F0A8016D2D7E2D8F2D9D2F0E94FF334E
:10271000CC2D1092C6028C2FD9CF55985D988FE89A
:1027200091E00197F1F700C0000089B185FB88278F
:1027300080F90895CF930E946432C82F811102C09E
:102740000E945F328C2FCF9108958091CA02089524
:102750008091C90208950E949A138093C9020E9431
:102760008D138093CA020E94A513809311010E94C9
:10277000A51366E0882349F080E00E946D170E944F
:10278000A81381110E940B14089586E0F6CF0E94D1
:10279000A813811102C00E940E14089581E0909147
:1027A000CB029A3008F080E008950F931F93CF93E7
:1027B000DF93EC01162F072F8091CB028A3090F423
:1027C000612F702FCE010E945B14811121C0809176
:1027D000CB028F3FB1F40E9474299093C80280937A
:1027E000C70209C08091C7029091C8020E949D292A
:1027F000843F914028F780E0DF91CF911F910F91A6
:1028000008958F5F8093CB028A3028F781E0F4CF60
:102810001092CB02FBCF0E94792A08950E947C2A55
:102820000895A0E0B0E0E7E1F4E10C942633FA016A
:1028300069017801C82F880FDD0B3097B1F0DE01F8
:1028400093E0AA0FBB1F9A95E1F7AE5EBE4F1196BB
:102850008D919C91129784539D4F4C9150E0E417B9
:10286000F50708F4AF010E94FF33CE010E94672BE9
:10287000182F8823D1F0E114F104B9F083E0CC0FD4
:10288000DD1F8A95E1F7FE01EE5EFE4F438150E0C9
:10289000E416F50608F4A701CE5EDE4F6C817D815B
:1028A00064537D4FC6010E94FF33812FCDB7DEB741
:1028B000E8E00C9442330E94081608950E943E16E8
:1028C0000895AAE0B0E0E7E6F4E10C942433F82E92
:1028D0006D837E83A42ED22EE32EB02EC12EAD8129
:1028E000BE818D919D910D90BC91A02DBC01CD011B
:1028F0000E94AC29643671058105910510F4AA2067
:10290000A9F000E010E020E030E04B2D5C2D6D2DB3
:102910007E2D8F2D0E941114882349F00E9480295A
:10292000ED81FE81608371838283938381E02A96A7
:10293000EAE00C944033ABE0B0E0E1EAF4E10C945F
:102940002A338E010F5F1F4FC8010E94F51C41E022
:102950008B859801811101C040E00BE010E06DEF24
:1029600072E086E00E946114182F81110E94F21C0F
:10297000812F2B96E4E00C944633A1E0B0E0E3EC29
:10298000F4E10C942A330E94C11F8823D1F00E94E5
:10299000D91F8983E091EB01F091EC0141E094852E
:1029A000981301C040E001E010E09E012F5F3F4F0F
:1029B00069EF72E085E00E9461142196E4E00C94D6
:1029C000463380E0E6CFA8E0B0E0E9EEF4E10C9415
:1029D0002A338091F5029091F602A091F702B0910E
:1029E000F802BC01CD010E94AC2911E064367105EA
:1029F0008105910520F10E944811DC01CB0102966E
:102A0000A11DB11D89839A83AB83BC8300E010E0D4
:102A100020E030E044E050E0BE016F5F7F4F84E093
:102A20000E941114182F882351F00E94802960936E
:102A3000F5027093F6028093F7029093F802812FCB
:102A40002896E4E00C944633A5E0B0E0EAE2F5E134
:102A50000C942133762E6A014901580101E010E0FF
:102A60009E012F5F3F4F40E050E060E070E00E9429
:102A70001114182F8823C1F1D6018D919D910D90CD
:102A8000BC91A02DBC01CD010E94AC29643671051A
:102A90008105910510F18701940140E050E060E06C
:102AA00070E0872D0E941114182FB701C5010E94F4
:102AB00055239981981731F010E0812F2596EDE08C
:102AC0000C943D3311701123C1F30E948029F6014B
:102AD0006083718382839383F0CFB701C5010E9425
:102AE000552399818913D7CFA701B501C4010E944D
:102AF000FF33E3CFA1E0B0E0E0E8F5E10C94283348
:102B00000091EB011091EC01095F1F4FEE24E3945B
:102B1000F12C9E012F5F3F4F41EF52E063E082E0D6
:102B20000E942415182F882321F0CE0101960E94BF
:102B3000E222812F2196E6E00C944433A5E0B0E038
:102B4000E4EAF5E10C9426336B010091EB0110915E
:102B5000EC010F5F1F4F85E0E82EF12C9E012F5FE7
:102B60003F4F4DEE52E061E080E00E942415882343
:102B700049F095E0FE013196A8EEB2E001900D9289
:102B80009A95E1F795E0E8EEF2E0D60101900D921A
:102B90009A95E1F72596E8E00C944233A0E0B0E086
:102BA000E4EDF5E10C942433F82EE92EB62EA72E91
:102BB0008A010E94CE13CC24C394D12C882319F00F
:102BC0008AE0C82ED12CC1E0D0E06B2D7A2D8F2D5C
:102BD0009E2DF8010995811116C02196CC16DD06AF
:102BE00094F0CC9FC001CD9F900D900D112420E05A
:102BF00030E045E34A95F1F700002F5F3F4F28177B
:102C00003907B9F7E2CFCDB7DEB7EAE00C9440332D
:102C10000F931F93CF93DF93D82FC92F8B014EE9CA
:102C200055E10E94CE15811106C080E0DF91CF9161
:102C30001F910F9108954AE755E1B8018D2F9C2F00
:102C40000E94CE15882389F343EE54E1B8018D2FFD
:102C50009C2F0E94CE15882341F34DEB54E1B8011F
:102C60008D2F9C2F0E94CE158823F9F24BE954E159
:102C7000B8018D2F9C2F0E94CE15D8CF8F929F9296
:102C8000AF92BF92EF92FF920F931F93CF93DF9378
:102C9000CDB7DEB72B970FB6F894DEBF0FBECDBF12
:102CA000FB010091EB011091EC01C801019625E0B8
:102CB000DC0101900D922A95E1F765E070E00E9439
:102CC0005523F8018083CE0101967C010E94D72212
:102CD0008981F801878361E070E0C7010E94552374
:102CE000F801868360857185828593858090E402F2
:102CF0009090E502A090E602B090E7026815790591
:102D00008A059B0551F06093E4027093E50280937D
:102D1000E6029093E7020E941B11F80184850E944D
:102D20008E208BE0F8013D96D70101900D928A9597
:102D3000E1F7F801178A8B85882321F060E0C7014D
:102D40000E94271E2B960FB6F894DEBF0FBECDBF94
:102D5000DF91CF911F910F91FF90EF90BF90AF90B7
:102D60009F908F9008950E94392D0E94670E0E94B7
:102D7000462D08950E944B2D0E947E0E0E94652DC7
:102D800008950E940D290E941F2D0E944D0E0E9441
:102D9000B3160E94BA160E945B0EFBCF90932902D5
:102DA000809328020895A0E0B0E0E9EDF6E10C94EC
:102DB0002433E82F71110DC0442321F0F0E0EA55CF
:102DC000FC4F8491682F782FCDB7DEB7EAE00C94E2
:102DD0004033262F30E0C72FD0E0F0E0442321F02D
:102DE000EA55FC4FE491F0E086E0829F7001839FFA
:102DF000F00C11240FEF10E0C701B8010E949B32C4
:102E0000AB01220F331F65E5649FC001659F900DE4
:102E10001124281B390BC22ECC0CC20EC8018C1BEE
:102E20009D0B8E9F90018F9F300D9E9F300D112422
:102E3000832FCC9EB001CD9E700D1124672F772774
:102E40005801A61AB70AAE9ED001AF9EB00DBE9E25
:102E5000B00D11247B2F5801AC18B1086501CC9E30
:102E60005001CD9EB00CDC9EB00C1124AB2CBB24C9
:102E70000A191B090E9FE0010F9FD00D1E9FD00D58
:102E800011246E2F43305105C9F09CEFE91693E0F1
:102E9000F90650F44130510509F496CF42305105FE
:102EA00089F07E2F6D2F90CF4430510571F0463060
:102EB0005105B9F3632F8B2F7E2F86CF6B2F732F86
:102EC0008E2F82CF732F8D2F7FCF7D2F632FF8CF43
:102ED00041E00E94D31608950895EDE4F1E0808367
:102EE000618308950E9468170895CF93DF93982F08
:102EF000762F842FE901692F0E94721779836883E6
:102F00008A83DF91CF91089580919703843028F4CC
:102F1000837084608093970308958C3AE8F38370FC
:102F2000886AF8CF4F925F926F927F928F929F92B2
:102F3000AF92BF92CF92DF92EF92FF920F9388E011
:102F400090E00E9410342B013C0184E290E00E944A
:102F50000834282F30E040E050E060E070E080E08E
:102F600090E000E20E94533353014201C12CD12C66
:102F70007601242939294A295B296C297D298E2942
:102F80009F290F91FF90EF90DF90CF90BF90AF906F
:102F90009F908F907F906F905F904F900895A0E0EA
:102FA000B0E0E5EDF7E10C9426338901D42FC52F6D
:102FB0006B017C010E948417A8016D2F7C2F88E093
:102FC00090E00E943E3498014D2F5C2FB601C7015E
:102FD00000E20E946E33622F84E290E00E942C3463
:102FE000CDB7DEB7E8E00C944233E7E9F3E08DE2D9
:102FF000808311828FEF828380E883831482AAE426
:10300000B3E012968C911297836012968C9375811F
:103010002DE230E04FEF50E860E0868197810E941A
:10302000CF1708958091970380FF03C086958695FA
:10303000089580E0089590919B03933018F49F5F6A
:1030400090939B03882391F02091970330919803EC
:103050004091990350919A0360919B0370919C0356
:1030600080919D0390919E030E94CF17089581E067
:103070000E941B18089590919B03992319F0915079
:1030800090939B03882391F02091970330919803AC
:103090004091990350919A0360919B0370919C0316
:1030A00080919D0390919E030E94CF17089581E027
:1030B0000E943B18089570E00E94262308956091B5
:1030C0004E018091970380FF0DC020914D0130E0AB
:1030D000C901880F991F820F931F81569C4F0E9430
:1030E0005B18089580914F0190915001282F30E096
:1030F000F901EE0FFF1FE20FF31FE156FC4F891796
:1031000020F71182108212828F5F3396F8CF909150
:10311000970390FF11C090914F0150915001292FBA
:1031200030E0F901EE0FFF1FE20FF31FE156FC4FF5
:10313000951718F00E945F18089581836083428379
:103140009F5F3396F5CFA3E0B0E0E9EAF8E10C9495
:103150002C339091970390FF0AC09E012F5F3F4F41
:103160000E9475174B8169818A810E948718239676
:10317000E2E00C944833CF93DF93EC01EC81F0E074
:10318000EF55FD4F4491E7E9F3E0628181810E94B0
:10319000A3188C818F5F8C83DF91CF910895CF939B
:1031A000DF93EC01E7E9F3E0438162818C810E94C7
:1031B000A3188C818F5F8C83DF91CF910895A3E05A
:1031C000B0E0E5EEF8E10C942A338C018091010324
:1031D00081110AC09E012F5F3F4F4FEF6FEF0E949A
:1031E00075178A8180930103F8016481613049F089
:1031F0006230D1F08091010340E0662331F040E07D
:1032000015C06091010340E080E00E948718F8013A
:10321000848190E0019663E070E00E94AF32848385
:103220002396E4E00C9446334091010380E060E093
:10323000ECCFA3E0B0E0EFE1F9E10C942433E82E09
:10324000D62EF42EB22E9091970390FF42C030916B
:103250009803381308C080919903861304C08091A5
:103260009A03841729F080914C03826080934C0369
:10327000E92FE695E695AE2FB0E0A351BE4F8C91B5
:1032800080934A039C7F943041F59E012F5F3F4F0E
:103290004F2D6D2D8E2D0E9475174B8169818A816E
:1032A0000E9487183E2D30939803D0929903F09294
:1032B0009A03BB2071F02091970360919B0370915A
:1032C0009C034D2D5F2D80919D0390919E030E9444
:1032D000CF172396EAE00C944033823019F4F09033
:1032E0009A03E0CF8630F9F28930E9F28931D1F6DC
:1032F000E9518E2F8170A82EE695F0E0EF55FC4F36
:10330000E491C12C0E2F10E060915101C61618F007
:103310000E945F18C7CF2C2D30E0C09EC001C19E17
:10332000900D112470E00E949B328E2DA11013C0CD
:10333000860F90914F01A901490F511D9A01220F4B
:10334000331F240F351F21563C4F4F2D6D2D0E94EA
:103350007517C394D9CF861BECCF282FE7E9F3E08C
:10336000818143816281885F0E941919089581E0FB
:103370000E94AD190895282FE7E9F3E08181438188
:10338000628188500E941919089581E00E94BB193A
:103390000895282FE7E9F3E0628131E1630F08F433
:1033A0006FEF438181810E941919089581E00E9485
:1033B000C9190895282FE7E9F3E0628131E1631B21
:1033C00008F460E0438181810E941919089581E029
:1033D0000E94DA190895282FE7E9F3E0438131E1EB
:1033E000430F08F44FEF628181810E9419190895FB
:1033F00081E00E94EB190895282FE7E9F3E043816B
:1034000031E1431B08F440E0628181810E94191977
:10341000089581E00E94FC19089520E00E94191986
:103420000895EF92FF921F93CF93DF93EC0110E08A
:10343000EE24EA94F12C60915101161770F00E946D
:103440005F189A818C8190FF25C08F5F8C83DF91FC
:10345000CF911F91FF90EF90089580914F01810FC0
:103460009927991F9C01220F331F280F391F2156BE
:103470003C4F70E0C7010E94AF32962F8C81409183
:103480009A0360919903199F800D11240E9475176A
:103490001F5FD1CF8150DACFA0E0B0E0E2E5FAE1E2
:1034A0000C942333EC018C819A8190FD0EC0BB24D7
:1034B000B39481110EC0809151018150BB24B3940B
:1034C0008093030381E08C8304C0BB24BA948823D7
:1034D000B9F3A12C80915101A816B8F00E945F1891
:1034E0009091030381E0B81256C080915101815040
:1034F000992319F08FEF890F91E0809303039C8348
:10350000CDB7DEB7EBE00C943F3380914F01CA2C6E
:10351000D12C8C0D9D2D911D8C01000F111F080FBA
:10352000191F01561C4FF80111821082128234E0DB
:10353000E32EF12C912C80910303890D8D302CF119
:103540006CE00E948D32892F082E000C990BC81652
:10355000D90691F480919A038E9DA0018F9D500D04
:103560001124559547955595479598016091990374
:10357000809198030E9475179B0CF1E0EF1AF108F7
:10358000E114F104C1F6A394A5CF87FFDDCF90919C
:103590005101890FD9CF892F90E001966091510197
:1035A00070E00E94AF32982FA8CF1F93CF93DF9384
:1035B000EC018C81811109C081E08C83109202039F
:1035C00092E090934C0180934B0180914F01909138
:1035D0005001282F30E0F901EE0FFF1FE20FF31F1B
:1035E000E156FC4F891748F110E060915101161720
:1035F00050F10E945F1880914B0120910203280F27
:103600002093020390914C01980F90934C0119164E
:1036100054F4022E000C330B409151014150550BD4
:103620002417350734F0819580934B01813009F4DC
:103630001C82DF91CF911F91089511821082128216
:103640008F5F3396CFCF212F30E070E0C9010E9409
:10365000AF3290914F01980F892F90E04091020373
:10366000042E000C550BFC01EE0FFF1FE80FF91F95
:1036700024173507ACF040914C01042E000C550B7B
:10368000421753076CF09F0121563C4F40919A031B
:1036900060919903809198030E9475171F5FA5CFD1
:1036A000E156FC4F118210821282F8CFAEE0B0E0FA
:1036B000ECE5FBE10C9428338D879E87AD85BE85B4
:1036C00014961C91212F30E0D9010E94F3329B0106
:1036D000AC010E94093369837A838B839C83E0E287
:1036E000F0E0E11BF109A5E5B0E09B01AC010E940F
:1036F000093369877A878B879C879F01DF010E9446
:10370000EB329B01AC010E9414336D837E838F8367
:1037100098879B01AC0189819A81AB81BC81280F7C
:10372000391F4A1F5B1F69857A858B859C850E949E
:10373000C332022F30E00A3248F5A901440F551F69
:10374000420F531F55954795142F1095F12C85E581
:10375000E82EE01A80915101F81630F10E945F18AE
:10376000AD85BE8514969C9181E0992319F0903225
:1037700019F48FEF80934A0180914A01890FED85FA
:10378000FE8584832E96E6E00C94443385E590E034
:10379000821B930BAC01440F551F480F591F57FF55
:1037A000D1CF4F5F5F4FCECF8E2DF1FC802F409158
:1037B0004F014F0D5527551F9A01220F331F240F1C
:1037C000351F21563C4F412F609199030E94751778
:1037D000F394C0CF0F931F93CF93DF93EC0100E0DE
:1037E00010E040915101842F90E0081719076CF008
:1037F0000E945F188C8190E00196817099278C83DC
:10380000DF91CF911F910F91089580914F01800F0B
:10381000912F911D9C01220F331F280F391F215614
:103820003C4F9C816091990380919803469550E0AC
:10383000041715074CF4992349F040919A030E940C
:1038400075170F5F1F4FCDCF9923B9F340E0F7CF26
:10385000A0E0B0E0EEE2FCE10C941E33FC016280DB
:10386000448081E08483E1EAF2E07490E0E2F3E0F6
:10387000E491C0919A03C695C158D0E0CC0FDD1FEA
:10388000CD2FDD27812C75E0972EAA24AA94B12C88
:1038900055245A94E719EE2EF12C80915101881687
:1038A00038F00E945F18CDB7DEB7E0E10C943A33F0
:1038B000C82CD12C82E0861568F09C9CF0019D9C60
:1038C000F00D1124E95FFC4F809198038083809173
:1038D00099038183411023C09C9CF0019D9CF00DB5
:1038E0001124E95FFC4F1382128280914F018C0DED
:1038F0009D2D911D9C01220F331F280F391F21562A
:103900003C4F9C9CF0019D9CF00D1124E95FFC4F05
:103910004281618180810E9475178394BECF9C9CF7
:1039200080019D9C100D1124095F1C4FF8018381BB
:103930008823F1F081508383589EC0011124648153
:1039400070E00E949B32FB01FF27EF55FD4F8491F1
:10395000E82FE7195E9EC0011124B7010E949B3237
:1039600080919A03689FB0011124F8017283BDCF42
:103970000E94D533B5010E94AF328C179D070CF021
:10398000B4CFF2E0F61598F40E94D533B5010E9449
:10399000AF32F80180830E94D53320919903269598
:1039A000622F70E00E94AF32280FF80121839C9CA7
:1039B000F0019D9CF00D1124E95FFC4F1282809173
:1039C0009A03893C58F088EC9C9CF0019D9CF00D7A
:1039D0001124E95FFC4F8483838387CF8431A0F770
:1039E00084E1F2CF10924C030895CF93DF93EC0162
:1039F00088E0E7E9F3E0DE0101900D928A95E1F7B6
:103A000080914A0390914B03A0914C03888799873A
:103A1000AA87DF91CF910895EAE4F3E011828281D1
:103A2000846082830895E7E9F3E080818E7F80835C
:103A30000E940C1DEAE4F3E08281816082830E948F
:103A40005F180895E7E9F3E020812E7F208331811C
:103A50004281538164817581868197810E94CF174D
:103A60000E940C1DEAE4F3E08281816082830E945F
:103A70005F180895609197036695669570E04BE036
:103A800050E082E591E00E94E533892B19F481E052
:103A900080934B030E947B119093440380934303D4
:103AA00080914C03846080934C0308959091970318
:103AB00090FF3FC08823F1F18B32F0F58F73282FF0
:103AC000220F220F809197038370282B2093970356
:103AD00080914C03816080934C03662381F0309188
:103AE00098034091990350919A0360919B037091C0
:103AF0009C0380919D0390919E030E94CF1760913B
:103B000097036695669570E04BE050E082E591E0A2
:103B10000E94E533892B91F00E940C1D81E0809377
:103B2000460340919A0360919903809198030E9403
:103B30000D1A089581E0C3CF8AE2C1CF0E943A1DD9
:103B4000EDCF682F80919703869586958F5F8B3296
:103B500008F081E00E94561D089581E00E94A11D99
:103B60000895682F90919703969596958FEF890FFA
:103B7000913009F48AE20E94561D089581E00E9466
:103B8000B11D089561E00E94561D0895E7E9F3E034
:103B9000808181608083869586950E94C21D0895EC
:103BA0008091970380FF03C00E94221D08950E9408
:103BB000C61D089560E00E94561D08958091490336
:103BC000811144C00E94500D811104C00E94F00D6B
:103BD0000E94F5170E949217209397033093980341
:103BE0004093990350939A0360939B0370939C03B3
:103BF00080939D0390939E0380914C0383608093F8
:103C00004C032430A0F40E94F5170E9492172093D1
:103C10009703309398034093990350939A036093CA
:103C20009B0370939C0380939D0390939E030E943B
:103C300084170E940C1D8091970380FF04C0869515
:103C400086950E94DA1D81E08093490308951F93B1
:103C5000CF93DF93EC01162F8A8580FF0DC08881FA
:103C600080FF25C0809197038160809397038881AE
:103C7000869586950E94561D8A8581FF06C0212F54
:103C80004B816A8189810E9419198A8582FF05C04A
:103C90008985882379F00E943A1D8A8583FF03C0B5
:103CA00081E080934603DF91CF911F9108950E9498
:103CB000131DE2CF0E940C1DF0CFEF92FF920F93E5
:103CC0001F93CF93DF9380914B03882309F465C042
:103CD00080914A03E0919703E695E695E81BE0930F
:103CE0004503823009F05EC0F0E0E356FD4FE491F9
:103CF000CE2FD0E00BEB18E180914603882361F0D2
:103D0000109246030E947B119093440380934303D7
:103D100010924803109247030E947B119C018091EE
:103D2000430390914403A901481B590B4F3F5F4740
:103D3000A0F5409106034423B1F010920603409190
:103D4000040350910503241B350B2F3F3F4758F4C4
:103D5000405D5A48509305034093040320914C035F
:103D6000286020934C03E0904703F09048038C0FA9
:103D70009D1F909344038093430383E493E0F801F1
:103D800009958091470390914803892B31F4E11400
:103D9000F10419F081E080930603CDB7DEB7E6E0C9
:103DA0000C944433C8E2D0E006E51BE1883109F405
:103DB000A3CFC0F48F3009F43AC048F4863021F123
:103DC000893059F1C0EDD7E00CE617E195CF853188
:103DD000C9F7F0E0EF56FD4FE491CE2FD0E005EDAE
:103DE0001AE18ACFC4EFD1E00AEE1BE1843209F474
:103DF00083CF853231F1833229F7EFE8F2E0C591C4
:103E0000D4910FED18E178CFF0E0E656FD4FE49144
:103E1000CE2FD0E00FEC18E16FCFE695F0E0E95639
:103E2000FD4FE491CE2FD0E001E11AE165CFE69598
:103E3000F0E0EC56FD4FE491CE2FD0E00CE41AE117
:103E40005BCF8E2F63E00E948132E92FF0E0E457D0
:103E5000FD4FE491CE2FD0E008E21CE14DCF089554
:103E60000E945D1E0895FA01882311F009950895B6
:103E7000FB01FCCFCF93DF93C82FD62F0E941218DF
:103E80008C1748F00E9412188D1728F40E94AD1D5F
:103E9000DF91CF9108958C2F0E94C21DF9CF1F93FF
:103EA000CF93DF93EC01FB011581111168C00E94D3
:103EB000520C8272FE01E052F847E531F10508F03C
:103EC0005EC0E357FB4C0C94E5320E94D01D812F5D
:103ED000DF91CF911F9108954EEB5DE16DEA7DE199
:103EE0000E94331FF4CF4DEA5DE16EEB7DE1F8CF28
:103EF00045EC59E167EB79E1F3CF47EB59E165EC2C
:103F000079E1EECF47EE59E166ED79E1E9CF46ED93
:103F100059E167EE79E1E4CF49E05AE168EF79E1F0
:103F2000DFCF48EF59E169E07AE1DACF47E558E1C0
:103F300067E378E1D5CF47E358E167E578E1D0CF93
:103F400081E00E94C21DC3CF65E082E00E943A1F5B
:103F5000BECF68E086E0FACF6EE089E0F7CF64E19B
:103F60008FE0F4CF67E185E1F1CF88E1EACF62E24B
:103F700089E1ECCF83E2E5CF6AE285E2E7CF11E0A9
:103F8000A6CF8091C3038170089586E090E00E94DF
:103F900008340895682F86E090E00E942C3408953C
:103FA000E3ECF3E080818470896180830E94CA1F02
:103FB00008958091C30386958695869508950E94FD
:103FC000500D811104C00E94F00D0E94D01F0E946C
:103FD000C51F8093C303803320F08770886280936D
:103FE000C3039091C303892F8170882321F0892F07
:103FF0008695869586950E94E22008959091C30348
:10400000892F869586958695983240F48F5F880F24
:10401000880F880F9770892B8093C3038091C30307
:1040200081608093C3030E94CA1F8091C303869559
:10403000869586950E94E22008958091C30388307A
:1040400078F088508093C30391E0883008F490E0C2
:104050008091C30390FB80F98093C3030E94CA1F21
:104060008091C3038695869586950E94E2200895E7
:104070008091C30380FD13C081608093C3038130AE
:1040800019F489E08093C3038091C3030E94CA1F7F
:104090008091C3038695869586950E94E2200895B7
:1040A0008091C30380FF08C08E7F8093C3030E946A
:1040B000CA1F80E00E94E22008958091C30380FF20
:1040C00003C00E94502008950E94382008958091D6
:1040D000C3038695869586958F5F8F71863008F02D
:1040E00080E0880F880F880F9091C3039770892B09
:1040F0008093C30391E0883008F490E08091C3037B
:1041000090FB80F98093C3030E94CA1F8091C30370
:104110008695869586950E94E2200895863008F05F
:1041200085E02091C3032770982F990F990F990F5D
:10413000922B9093C30321E0983008F420E09091F3
:10414000C30320FB90F99093C3030E94E2200895DB
:104150000E948E208091C3030E94CA1F08959C0173
:10416000FB018581882361F12330F8E73F07E1F007
:1041700060F42130E8E73E07A9F02230F8E73F0776
:10418000C9F02115384749F008952430E8E73E0783
:1041900071F02530384789F0089585E00E94A82005
:1041A00080E0089580E0FACF0E941D20F9CF0E94A0
:1041B000FE1FF6CF0E945D20F3CF0E946720F0CF54
:1041C00081E00895A8E0B0E0E8EEF0E20C94263338
:1041D0008630F0F481111DC0809180008F7780932C
:1041E0008000809186009091870080918600909158
:1041F0008700E0E0F0E0CF0169E070E00E949B32D0
:1042000070938900609388002896E8E00C9442330C
:1042100085E090918000906890938000A091860046
:10422000B0918700282F30E00E94F33269837A83AF
:104230008B839C8325E030E040E050E00E94C33255
:1042400069017A01F90180918600909187006CE004
:1042500070E00E949B326C157D0568F680918600A7
:104260009091870000918600109187002091860030
:104270003091870066E070E00E949B32C60ED71E28
:10428000E11CF11CD701C60145E0880F991FAA1F48
:10429000BB1F4A95D1F789839A83AB83BC83C8013E
:1042A00066E070E00E949B3240E050E0260F371F2E
:1042B000411D511D69817A818B819C810E94C3328D
:1042C00029833A834B835C83E0918600F0918700D9
:1042D000CA01B9010E947132DF019B01AC010E9449
:1042E00009336D837E838F8398879B01AC0169813D
:1042F0007A818B819C810E94713269837A838B835E
:104300009C83DC01CB015FE0B695A79597958795D7
:104310005A95D1F7409186005091870060E070E097
:10432000481759076A077B0720F48091860090910F
:104330008700BC0165CF0895259A2D9882E8809367
:10434000800089E1809381008FEF9FEF9093870039
:10435000809386000E94DF1F08958FE891E0019707
:10436000F1F700C00000089581E008950E94A813AD
:1043700008950F931F93CF93DF938091110191E0E4
:10438000892780935103292F281B20935003809164
:104390001101909352038091110190934F038091EA
:1043A0001101882309F44AC080915E01E82FE2954B
:1043B000EF70A1E2AE0FB0E04C918F7021E030E0E1
:1043C000B90102C0660F771F8A95E2F7CB01962FDD
:1043D000909594239C93EE5DF0E09081892B8083EF
:1043E00080915D01E82FE295EF70A1E2AE0FB0E0A1
:1043F0004C918F70B90102C0660F771F8A95E2F762
:10440000CB01962F909594239C93EE5DF0E09081E4
:10441000892B80830E94AD21609152034EE551E0CB
:10442000CDE5D1E005E513E0FA018E2F841B861758
:1044300060F0DF91CF911F910F91089587EF8093E6
:104440005E0186EF80935D01AFCF7191872F8295DA
:104450008F70805E90E0DC012C913991832F8295E2
:104460008F70805E90E0DC018C9190E03F7002C024
:10447000959587953A95E2F78170880F30E07F70C7
:1044800002C0359527957A95E2F72170822BD801E5
:104490008D938D01CACFCF92DF92FF920F931F931E
:1044A000CF93DF9310E000E084E0C82ED12C809100
:1044B0005203181748F0802FDF91CF911F910F9171
:1044C000FF90DF90CF900895C12FD0E0FE01E25A17
:1044D000FE4F6081E62FE295EF70E05EF0E04081F4
:1044E000FE01E35AFE4F5081E52FE295EF70E05E4A
:1044F000F0E0808190E05F7002C0959587955A95B5
:10450000E2F78170880F50E06F7002C055954795B3
:104510006A95E2F74170842BDE01AB5ABC4FEC91F7
:104520009E2F9370981709F440C0EE0FEE0FE82B02
:10453000EC93F0905103F10EEF70F0E0E85EFD4F68
:10454000CD5ADC4F80819881890F888320E08430A8
:1045500084F0EF2DF0E0E35BFC4F80818F5F808380
:104560000E94B621882321F060E08F2D0E942B034A
:1045700021E088818D3F84F4EF2DF0E0E35BFC4F78
:104580008081815080830E94B621882321F061E0E0
:104590008F2D0E942B0321E08881082E000C990B9F
:1045A000B6010E94AF328883022B1F5F80CF4091FB
:1045B000520350E06091510370E0635B7C4F0E94B6
:1045C000FF330895A0E0B0E0E8EEF2E20C94263369
:1045D0006C01D0E080E090914F03D91740F0811139
:1045E0000E942F0ECDB7DEB7E8E00C944233F09076
:1045F0005003FD0E0F2D10E0035B1C4FF601ED0F75
:10460000F11DC081F8019081C91BEC2E1E1444F0ED
:104610009C2FC7FD90E0C91BC1110DC0DF5FDBCF30
:10462000EA94F80180818F5F808360E08F2D0E9483
:104630002B0381E0EBCFCF5FF80180818150808335
:1046400061E08F2D0E942B0381E0E6CF9C01AB013E
:10465000569A6BB16F7B7BB17064EFB7F894CA0167
:10466000880F991F840F951F820F931F821793073E
:1046700041F4EFBF8FE594E00197F1F700C000002F
:104680000895D9014D919D0158E07BB9000000C00B
:1046900047FF6BB9440F000000C000C000C06BB9F9
:1046A00000C05A9591F7E2CF0895FC01680F791F79
:1046B0008FEF91E3E617F70709F408952191822718
:1046C00028E030E087FF08C0880F89272150310992
:1046D00021153105B9F7EECF880FF8CFCF93DF93CF
:1046E000EB0186319C4719F50E94520C9D8199235C
:1046F000A1F08A7A91E0811101C090E09093570374
:10470000882349F085E30E948B280E94E50C80E015
:10471000DF91CF91089589E2F6CF809157038823E6
:1047200021F085E30E949328F0CF89E2FBCF81E05E
:10473000EFCFCF93DF93EC01FB018581882309F450
:10474000D2C09E0130572332310508F0B2C00E941A
:10475000650D9093800380937F03FE01E150F04745
:10476000E232F10520F4EE55FB4C0C94E5328091D9
:104770007F03816080937F0393C080918003886072
:10478000809380038DC080917F038260F3CF8091FE
:104790007F038460EFCF80917F038860EBCF8091AF
:1047A00080038160EDCF809180038260E9CF8091AA
:1047B0007F038061DFCF80917F038062DBCF8091B8
:1047C0007F038064D7CF0E94E30780917F038068D6
:1047D000D1CF80917F038C60CDCF809180038360A7
:1047E000CFCF80917F038E7FC5CF80918003877F5D
:1047F000C7CF80917F038D7FBDCF80917F038B7F5B
:10480000B9CF80917F03877FB5CF809180038E7F62
:10481000B7CF809180038D7FB3CF80917F038F7E50
:10482000A9CF80917F038F7DA5CF80917F038F7B60
:10483000A1CF0E94E30780917F038F779BCF809168
:104840007F03837F97CF809180038C7F99CF809166
:104850007F0382FB992790F921E0922790FB82F950
:1048600090FB83F987CF80918003982F909591706A
:104870008E7F892B90FB81F983CF90917F03892FC5
:104880008F7B96FF806476CF0E94E30790917F0331
:10489000892F97FB87F980586DCF81E00E94F30D37
:1048A00080917F03909180030E946A0D0E94E3072C
:1048B00080E0DF91CF91089580E0F0CF90917F0369
:1048C000892F8F7E94FF806155CF90917F03892F30
:1048D0008E7F90FF81604ECF90918003892F877FDC
:1048E00093FF88604DCF81E0E4CF282F35EB230381
:1048F000C001112497FF04C080589109892F0895A1
:1049000080589F4FFBCF80915E0380FF0DC0609168
:10491000640170E0660F771F60387105C0F561159E
:104920007105B9F1862F089581FF07C06091640178
:1049300084E0689FB0011124EFCF82FF04C0609132
:10494000640188E0F6CF80915D038823E9F09091BF
:1049500063016091640170E0891730F093E0660FA5
:10496000771F9A95E1F7D8CF869F9001879F300DEA
:10497000112483E0220F331F8A95E1F7692F70E03D
:10498000C9010E94AF32C8CF68E070E0CBCF8FE79B
:10499000089581E0089580915E0380FF0CC06091CE
:1049A000600170E07595679575956795611571055E
:1049B00061F1862F089581FF06C06091600170E06B
:1049C00075956795F3CF6091600170E082FD15C029
:1049D00020915C032223B1F090915F01609160010E
:1049E00070E0291750F4269FA001279F500D112435
:1049F000692F70E0CA010E94AF3260387105B0F2D1
:104A00008FE7089561E070E0D4CF81E00895909140
:104A1000610320916203922B20916403922B2091D9
:104A20006303922B992331F098E090935D0391E01A
:104A300090935C038D3C31F40E9483248195809394
:104A400062030895E2E3E80FE231B0F5F0E0EC53E1
:104A5000FB4C0C94E5320E948324F1CF0E94832406
:104A600081958093610308950E948324FACF0E9468
:104A7000CB248093630308950E94CB248195F9CFC2
:104A80000E94CB2481958093640308950E94CB24D7
:104A9000FACF815D990B21E030E001C0220F8A95A9
:104AA000EAF780916003822B8093600308958091E0
:104AB0005E03816080935E03089580915E0382604F
:104AC000F9CF80915E038460F5CF409161038D3C06
:104AD00059F48091620387FF0DC010926203442352
:104AE00059F410925D0308C08E3C81F480916203FA
:104AF00018169CF3442381F0809163039091640322
:104B0000892B811159C010925C0308958F3C41F4A8
:104B100047FFF0CF10926103809162038823E0CFBA
:104B2000803D19F41416B4F3E5CF90916303893DE9
:104B300029F41916FCF610926303DCCF8A3D19F4B0
:104B400097FFD8CFF8CF909164038B3D29F497FF5E
:104B5000D1CF10926403CECF8C3D19F41916CCF34B
:104B6000C9CF9FE2980F983090F4815D990B21E0B6
:104B700030E0B90102C0660F771F8A95E2F7CB01DA
:104B8000809590916003892380936003B3CF8D3D1E
:104B900031F480915E038E7F80935E03ABCF8E3DB8
:104BA00021F480915E038D7FF7CF8F3D09F0A2CF76
:104BB00080915E038B7FF0CF08950E94742920912D
:104BC000610330916203232B222321F080935A0347
:104BD00090935B032091630330916403232B222382
:104BE00021F080935803909359038FE593E00E943E
:104BF000DF27089586E0EFE5F3E0DF011D928A9557
:104C0000E9F710925D0310925C0310925E03089521
:104C1000FC01828181110DC0838181110AC08481D0
:104C2000811107C081E09581911101C080E0817000
:104C3000089581E0FCCFA6E0B0E0E1E2F6E20C945A
:104C4000293386E0EFE5F3E09E012F5F3F4FD90166
:104C500001900D928A95E1F7109261031092620320
:104C600010926303109264038B819C81892B8901CC
:104C7000882391F080915A0390915B030E949D29B3
:104C80009C0180915D038823C9F14091650150E04A
:104C90004217530708F43FC08D819E81892B8823DA
:104CA00099F080915803909159030E949D299C018D
:104CB00080915C03882309F467C04091610150E052
:104CC0004217530708F46EC0B8018FE593E00E94C5
:104CD000A628811105C08FE593E00E940826811166
:104CE0000E94DD2586E0F801AFE5B3E001900D926A
:104CF0008A95E1F72696E5E00C94453340916601EC
:104D00009AE0499FA00111244217530728F68F5FAC
:104D100080935D0302C08F3FD1F7FB80FF2059F0E5
:104D20000E94832491E01F140CF09FEF899F802D37
:104D3000112480936103FC80FF2059F00E9483249A
:104D400091E01F140CF09FEF899F802D1124809318
:104D5000620380916103882309F49ECFF09062037F
:104D6000FF2009F499CF0E947524811101C081E0D0
:104D7000809361038F2D0E947524882319F08093FE
:104D800062038ACF81E0FBCF409162019AE0499FA4
:104D9000A00111244217530708F096CF8F5F80932C
:104DA0005C0302C08F3FD1F7FD80FF2059F00E94C5
:104DB000CB2491E01F140CF09FEF899F802D1124CC
:104DC00080936303FE80FF2059F00E94CB2491E082
:104DD0001F140CF09FEF899F802D11248093640392
:104DE00080916303882309F46FCFF0906403FF2060
:104DF00009F46ACF0E947524811101C081E080937B
:104E000063038F2D0E947524882319F08093640317
:104E10005BCF81E0FBCF0F931F93CF93DF93C42F22
:104E2000D22FFC0185818823C9F0409367030E943B
:104E30007429909366038093650380E28C0F883019
:104E400040F4C77081E001C0880FCA95EAF70E945C
:104E50008305DF91CF911F910F9108951091670302
:104E600014133CC080916503909166030E949D29B4
:104E7000883C910598F5C0E2CD0F1D1741F180E205
:104E8000810F883040F4177081E001C0880F1A95B7
:104E9000EAF70E948A05C83020F0802F0E947A0528
:104EA000D8CF91E08D2F877001C0990F8A95EAF7CE
:104EB000892F0E948305802F0E947A05D77081E098
:104EC00001C0880FDA95EAF70E948A05C2CF802FC9
:104ED0000E947A05C83008F0BCCFF0CF80E28C0F7A
:104EE000883008F0B6CFC77081E001C0880FCA953E
:104EF000EAF7EACF0F93FC01CB01E851FC47E7301A
:104F0000F10590F5EA52FB4C0C94E53206E221EEF5
:104F100041EE6AE17CE70E940B2780E00F91089543
:104F200007E225EE45EE6BE17CE7F5CF06E221EEE8
:104F300040EE68E17CE7EFCF07E225EE44EE69E161
:104F40007CE7E9CF06E221EE42EE6CE17CE7E3CFBD
:104F500007E225EE46EE6DE17CE7DDCF08E221E0D9
:104F600045EE6EE17CE7D7CFFB0185818111109280
:104F7000670381E0D3CF90936E0380936D03089510
:104F80000E94A813811103C0809168030895E091E5
:104F90006D03F0916E03309729F00190F081E02DC0
:104FA0000995089580E00895E0916D03F0916E03F6
:104FB000309721F00280F381E02D09950895DC01FE
:104FC000E0916D03F0916E03309739F082E08C939D
:104FD0000680F781E02DCD0109950895A3E0B0E0AA
:104FE000E4EFF7E20C942C339C0180916B039091D9
:104FF0006C0382179307A1F030936C0320936B032B
:10500000E0916D03F0916E03309751F083E0898356
:105010003B832A830084F185E02DCE01019609951A
:105020002396E2E00C944833A3E0B0E0EAE1F8E232
:105030000C942C339C018091690390916A03821730
:105040009307A1F030936A0320936903E0916D0305
:10505000F0916E03309751F084E089833B832A837B
:105060000084F185E02DCE01019609952396E2E0BA
:105070000C94483340910401509105019A012E5F30
:105080003F4F485F5F4F80E0F90190812F5F3F4FB6
:1050900091118F5F42175307B9F70895882371F074
:1050A0002091040130910501F9013296285F3F4FAC
:1050B0009191981729F0E217F307D1F780E008954E
:1050C00081E008959C01FC0132968FEF90E04191C0
:1050D000461751F08F3F19F4411101C0892F9F5F8E
:1050E0009630A9F78F3F09F40895280F311D87FDE9
:1050F0003A95F901628308959C01FC013296285F7C
:105100003F4F8191861303C0DF0111971C92E21774
:10511000F307B9F70895682F809104019091050174
:105120000E9462280895682F8091040190910501E2
:105130000E947C280895E0910401F09105013296C7
:1051400086E0DF011D928A95E9F70895DC01FB01F5
:1051500011969C9111978181981322C012968C917F
:105160001297882319F0928189131AC013968C9193
:105170001397882319F09381891312C015968C9187
:105180001597882319F0958189130AC014969C916C
:10519000992321F081E02481291303C080E001C01C
:1051A00081E08170089508950E94D32808958F5F4B
:1051B00080936F030E94D428089583E080936F0347
:1051C0000E94D42808950E94D728089581E08093F2
:1051D0006F030E94D42808950E94E6280895089538
:1051E00008950E94F0280895089508950E94EF28D8
:1051F0000895CF930E94F4280E940C130E94F52872
:10520000C0E08C2F0E94AF11811105C0CF5FCA3062
:10521000C1F7CF91089581E0FCCF85B7806885BF45
:1052200085B7806885BF08951F921FB61F9211240D
:105230008F939F93AF93BF9380917003811113C09D
:105240008091C4039091C503A091C603B091C70398
:105250004196A11DB11D8093C4039093C503A093F3
:10526000C603B093C703BF91AF919F918F911F90D9
:105270001FBE1F9018958091CC03843031F10E949D
:1052800056041092700388E190E020E40FB6F89481
:10529000A895809360000FBE2093600083B7817F44
:1052A000846083BF83B7816083BF7894889583B718
:1052B0008E7F83BF0FB6F894A895809160008861B7
:1052C00080936000109260000FBE08950E94E30773
:1052D0000E945E04089582E084BD93E095BD9AEF3C
:1052E00097BD80936E0008952FB7F8948091C40302
:1052F0009091C503A091C603B091C7032FBF089535
:10530000A4E0B0E0E6E8F9E20C942C338FB7F8940F
:105310002091C4033091C5034091C6035091C70347
:1053200029833A834B835C838FBF69817A818B8128
:105330009C812496E2E00C9448339C014FB7F8948A
:105340008091C4039091C503A091C603B091C70397
:105350004FBF821B930B0895A4E0B0E0E2EBF9E2AB
:105360000C942A33462F572FBC012FB7F894809105
:10537000C4039091C503A091C603B091C7032FBF8A
:105380008C019D01041B150B260B370BC901B801BD
:105390002496E4E00C94463378941F921FB61F9233
:1053A00011248F939F93AF93BF938091C4039091E7
:1053B000C503A091C603B091C7030196A11DB11DFD
:1053C0008093C4039093C503A093C603B093C7030F
:1053D000BF91AF919F918F911F901FBE1F90189505
:1053E00081E08093E00080E28093D8001092C900B1
:1053F0008FE19EE40197F1F700C0000087E090EB99
:10540000DC018093D5039093D603A093D703B09388
:10541000D80388E19CE00FB6F894A89580936000CB
:105420000FBE90936000FFCF88E19CE00FB6F89428
:10543000A895809360000FBE90936000FFCF8EE12F
:10544000489B03C081508111FBCF489BFECF08953C
:10545000589880E28A95F1F7589A0895FC012BE05C
:105460002A95F1F728E090E080E031E040E14A95AC
:10547000F1F7880F489B02C08160932742E04A956C
:10548000F1F7000040E14A95F1F721502111EECFEC
:1054900020E12A95F1F729B132E03A95F1F70000C1
:1054A00040E14A95F1F7217092272081920F908375
:1054B0000895A1E0B0E0EFE5FAE20C9428331982F8
:1054C0008C017C01E60EF11C0E151F0541F481E0F4
:1054D0009981911180E02196E6E00C9444330E947A
:1054E0001F2ACE0101960E942E2AF80181938F0176
:1054F000EBCF509A589A08955098589AE89AE9E64E
:10550000F0E080818C7F808308956150770B91E07B
:1055100001C0990F6A95EAF7692F90E021E06111C7
:1055200008C0992399F0589A80E28A95F1F7589823
:105530000895362F3823332339F0589A922730E2D2
:105540003A95F1F76695EBCF5898F9CF5898ECCF8C
:10555000FF920F931F93CF93DF93EC018C01060F03
:10556000111DC017D10729F4CDB7DEB7E5E00C94C3
:105570004533F9900E94282A68E08F2D0E94852AE1
:10558000F0CF1F920F920FB60F9211240F931F931B
:105590002F933F934F935F936F937F938F939F933B
:1055A000AF93BF93EF93FF93CF93DF930F92CDB75A
:1055B000DEB719820E941F2ACE0101960E942E2A70
:1055C000082F069506950695982F92959570202F91
:1055D0002570920F292F237096959695920F9827F4
:1055E00097708981892B81115CC0083008F059C0FF
:1055F00080E18A95F1F7589A509A82E08A95F1F7FE
:1056000000C0589888E0089F80011124D801AE5E40
:10561000BE4F1696ED91FC9117973097A9F06091C7
:10562000EB017091EC0114962D913C911597260F8A
:10563000371F11968D919C911297680F791F1396C1
:105640004C9113978C910995F801EE5EFE4F6381A2
:10565000662351F02091EB013091EC01848195811A
:10566000820F931F0E94A82A0E94282A80E18A950F
:10567000F1F758985098589A80E18A95F1F7F80117
:10568000EE5EFE4F6081662351F02091EB01309178
:10569000EC0181819281820F931F0E94592A0E94FE
:1056A0001F2A0F90DF91CF91FF91EF91BF91AF91A2
:1056B0009F918F917F916F915F914F913F912F912A
:1056C0001F910F910F900FBE0F901F9018950F9381
:1056D0001F93CF93DF938C0108970CF065C0F8946B
:1056E000509A589885E08A95F1F70000C02FC6952A
:1056F000C570802F8570C80F8C2F8370C695C69596
:1057000093E0000F111F9A95E1F7C80FC8018C2B89
:10571000EC010E94282A00C068E08C2F0E94852A94
:1057200090E19A95F1F75098589A489B35C087E0D8
:1057300090E0489933C0F801EE5EFE4F6381662326
:1057400061F02091EB013091EC0184819581820F11
:10575000931F0E94592A882321F10E941F2A80E268
:105760008A95F1F75898509A90E19A95F1F7F801D7
:10577000EE5EFE4F6081662351F02091EB01309187
:10578000EC0181819281820F931F0E94A82A0E94BE
:10579000282A789481E009C000C0C7CF01970097FC
:1057A00049F4509A589A789480E0DF91CF911F91F4
:1057B0000F91089500C0BDCF809179030895089599
:1057C000282FCB01BA013091CC033430E1F42F7093
:1057D0002093E9002FEF3091E80035FD07C035ED4B
:1057E0003A95F1F7000021502111F5CF2091E80002
:1057F00025FF09C040E050E00E94DD2D8091E800C7
:105800008E778093E8000895BC0143E050E082E089
:105810000E94E02B0895BC0146E050E082E00E9427
:10582000E02B0895CF93DF93D82FC92F48E050E0A5
:10583000682F792F81E00E94E02B88E0ED2FFC2F6C
:10584000A1E7B3E001900D928A95E1F7DF91CF9146
:1058500008958091CB03811109C00E94652F0E9499
:10586000C22F8091E20084608093E200089510923C
:10587000CB0308950E94E62808956091C80381E053
:10588000611101C080E00E94DD2808959091CC0351
:1058900081E0943009F080E06091C8030E94E32821
:1058A000089542E061EC81E00E94E12E42E261EC69
:1058B00082E00E94E12E9091CC0381E0943009F0C7
:1058C00080E06091C8030E94D72808958091CE039C
:1058D000893089F148F4823009F4A0C0833009F49A
:1058E0005AC0813041F008958A3009F487C08B3066
:1058F00009F46CC008958091CD03813A09F04AC043
:105900008091E800877F8093E8008091D103909197
:10591000D203892B61F060E080E090E070E00E94AB
:105920002C2E8091E8008B778093E800089568E042
:1059300081E793E0F3CF8091CD03813259F58091D7
:10594000D1039091D203029728F58091E800877FD8
:105950008093E8008091E80082FF18C09091F300E6
:105960008091F200029731F48091F100813011F0C2
:10597000863021F48091F100809379038091E800D2
:105980008B778093E8000E94152F04C08091CC0390
:105990008111E0CF08958091CD03813AD9F78091AC
:1059A000D1039091D203892BA9F78091E800877FDA
:1059B0008093E8008091E80080FFFCCF8091710126
:1059C0008093F1008091E8008E77DBCF8091CD034A
:1059D000813201F78091D1039091D203892BD1F6C6
:1059E0008091E800877F8093E8000E94152F8091C6
:1059F000CF03809371010E94E30708958091CD0346
:105A0000813241F68091E800877F8093E8000E9410
:105A1000152F8091D00380937A0308958091CD0350
:105A2000813A09F0B7CF8091E800877F8093E80042
:105A30008091E80080FFFCCF80917A03C1CF84B7CA
:105A4000877F84BF0FB6F894A89580916000886125
:105A500080936000109260000FBE80E890E00FB667
:105A6000F89480936100909361000FBE0E94EC282F
:105A700008950E94652F0E94C22FE2EEF0E080811F
:105A80008460808378940E944532089587E691E08F
:105A90000E94BB2708958091CC03853031F480911A
:105AA000CC03853019F00E94662908950E943B2995
:105AB0008091CA03882399F30E94F928882379F3F7
:105AC0000E94C72D0E94E307EACF08959A014091F2
:105AD000D3035091D4030E946E2D0895AC01CB01E5
