:100000000C94CD020C94CB260C9405030C940503A0
:100010000C9405030C9405030C9405030C94050340
:100020000C9405030C9405030C94EB2B0C94BF2C3F
:100030000C9437250C9405030C9405030C940503CC
:100040000C9405030C9405030C9405030C94050310
:100050000C9405030C94DA250C9405030C94050309
:100060000C9405030C9405030C9405030C940503F0
:100070000C9405030C9405030C9405030C940503E0
:100080000C9405030C9405030C9405030C940503D0
:100090000C9405030C9405030C9405030C940503C0
:1000A0000C9405030C9405030C94050329001E0011
:1000B0001F002000210022002B0014001A0008005D
:1000C00015001700E00004001600070009000A00F0
:1000D000E1001D001B0006001900050000000000E3
:1000E000E32421522C005200460027002600250060
:1000F000240023002A00130012000C0018001C002A
:10010000343133000F000E000D000B00E500380005
:10011000370036001000110000000000E6002252F7
:100120002800510000000000000000000000000056
:1001300029002F002602270230003102E00034029D
:100140002F02300234002402E1001E023602370280
:100150003802230200000000235201004C00490035
:100160000000000000000000000000002A002E0235
:100170004D0052004A004B00283156004F005100FC
:1001800050004E00E50022025B00210220021F0207
:10019000000000002D0201004C003100000000783A
:1001A000017804780378027800003A003B003C00B4
:1001B0003D003E00E00059005A005B005C005D001D
:1001C000E100AA00A9004800530000000000000060
:1001D00001000100E2000000000028782778227862
:1001E00021782078000043004200410040003F0099
:1001F000E4006200610060005F005E00E500450011
:1002000044000000000000000000000001000100A8
:10021000E6000000010001000100010001000100F2
:1002200001000100010001000100010001000100C6
:1002300001000100010001000100010001000100B6
:1002400001000100000000000100010001000100A8
:100250000100010001000100010001000100D900BE
:10026000D200CD00D100D3000100DA00D000CE00D2
:10027000CF000100010001000100010001000100A8
:100280000000000001000100010001001E0F050038
:10029000047F3F1F643214643214783C1E1E140A1B
:1002A000052223252628292A2C2D2F3032333536B6
:1002B000383A3B3D3E4042434547494A4C4E5051F7
:1002C000535557595A5C5E6062646668696B6D6F1E
:1002D00071737577797B7D7F81838587898A8C8E21
:1002E00090929496989A9C9E9FA1A3A5A7A8AAAC29
:1002F000AEAFB1B3B4B6B8B9BBBCBEBFC1C2C3C563
:10030000C6C7C9CACBCCCDCED0D1D2D2D3D4D5D604
:10031000D7D7D8D9D9DADADBDBDBDCDCDCDCDCDD37
:10032000DDDDDDDCDCDCDCDCDBDBDBDADAD9D9D81B
:10033000D7D7D6D5D4D3D2D2D1D0CECDCCCBCAC9B3
:10034000C7C6C5C3C2C1BFBEBCBBB9B8B6B4B3B1E2
:10035000AFAEACAAA8A7A5A3A19F9E9C9A9896947D
:1003600092908E8C8A89878583817F7D7B79777552
:1003700073716F6D6B6968666462605E5C5A595731
:10038000555351504E4C4A4947454342403E3D3BF0
:100390003A3836353332302F2D2C2A29282625237A
:1003A00022FFAA7F55400001010101010101010165
:1003B0000202020202020202020303030303030316
:1003C00003040404040404040505050505060606E3
:1003D0000606070707070708080808090909090AA0
:1003E0000A0A0B0B0B0C0C0C0D0D0D0E0E0E0F0F45
:1003F0000F101011111112121313141415151616D3
:100400001717181819191A1A1B1B1C1D1D1E1E1F41
:100410002020212222232424252626272829292A90
:100420002B2C2D2D2E2F30313232333435363738B8
:10043000393A3B3C3D3E3F404142434445464748B4
:10044000494A4C4D4E4F50515354555658595A5B8A
:100450005D5E5F616264656668696B6C6D6F70722A
:10046000737577787A7B7D7E8082838587888A8C96
:100470008E8F91939596989A9C9EA0A2A3A5A7A9CA
:10048000ABADAFB1B3B5B7BABCBEC0C2C4C6C9CBC1
:10049000CDCFD1D4D6D8DBDDDFE2E4E7E9EBEEF077
:1004A000F3F5F8FAFDFF1A034900720069007300C2
:1004B00020005200650076002E002000350061000B
:1004C00000000E034B0065006500620069006F00CC
:1004D00000000403090409023B00020100A0FA091C
:1004E000040000010301010009211101000122445F
:1004F0000007058103080001090401000103000051
:1005000000092111010001223200070582032000A9
:1005100001120100020000000810CB565310050123
:1005200002000105010980A101850319012AB70014
:10053000150126B700950175108100C0050C090151
:10054000A101850419012AA002150126A002950126
:1005500075108100C005010906A101050719E029F0
:10056000E71500250195087501810295017508813F
:10057000010507190029FF150026FF0095067508DB
:10058000810005081901290515002501950575014A
:100590009102950175039101C00011241FBECFEF98
:1005A000DAE0DEBFCDBF04B603FE18C08091C403FD
:1005B0009091C503A091C603B091C7038730904BBB
:1005C000A740B04B59F41092C4031092C503109287
:1005D000C6031092C703E0E0F8E3099512E0A0E03B
:1005E000B1E0E8EBF1E602C005900D92A432B1074C
:1005F000D9F723E0A4E2B2E001C01D92A43CB20707
:10060000E1F70E940F160C9486300C940000CF93F3
:10061000DF93D82FC62F0E94BF20882341F0D1112D
:100620000AC089EAC11101C08AEA0E94370580E048
:10063000DF91CF910895D130D1F78EE4C111F5CF7C
:100640008BE4F3CF8430B8F46A30A8F4463098F4E1
:1006500050E096E0699F400D511D1124FA019CE382
:10066000899FE00DF11D1124EE0FFF1FE455FF4F90
:1006700085919491089581E090E008950E9422036D
:10068000089581E008950E944103089581E008954E
:100690000E94410308950E944803089508950E940E
:1006A0004E030895A6E0B0E0E8E5F3E00C94322FA5
:1006B00049835A839E8330912B0289819A8131111B
:1006C0001AC03E81332399F0222389F00E94DC086E
:1006D000182F682F89819A810E94B80869817A81D0
:1006E000812F0E94C20F2696E3E00C944E2F0E94A9
:1006F000CA08182FF3CF0E94DC0869817A81F1CFF4
:10070000FC01262F40815181628173818481958112
:100710000E9452030895CF93DF93EC0161E00E94A1
:100720008003BE010E944303DF91CF910895CF93D0
:10073000DF93EC0160E00E948003BE010E944F0342
:10074000DF91CF91089581E008950E94A303089559
:10075000CF93C82F0E948D078C2F0E94A5032FEFE7
:1007600084E39CE0215080409040E1F700C000000D
:10077000CF91089581E00E94A8030E94FE2508956C
:1007800080E00E94A8030E94222608950F931F93E1
:10079000CF93DF938C0161E00E948003EC01F801AC
:1007A000858181110E94521EB801CE010E944B0327
:1007B000811106C080E0DF91CF911F910F910895C4
:1007C000B801CE010E94D51F8823A1F3B801CE0144
:1007D0000E94D523882371F3B801CE010E9495228F
:1007E000882341F3B801CE010E946B22882311F3C4
:1007F000B801CE010E94711E8823E1F2F8018581C3
:10080000882361F0C330FCE7DF07E9F058F4C11535
:10081000ECE7DE07A9F0C130DC47B9F0C8010E945F
:100820004603C9CFCB358CE7D807A9F0CC35ECE728
:10083000DE0771F0CA35DC4789F70E94F30CEECF72
:100840000E94BA03B7CF0E94FB0C0E94C003B2CF34
:100850000E94E90CE3CF0E94F70CE0CF0E94142520
:1008600080E00E94B41F0E945A0408950E94011F54
:100870000E945E040E9419250895089581E008955C
:100880000895CF93DF93D82F0E943E04C82F88236A
:1008900019F08D2F0E9440048C2FDF91CF91089585
:1008A0000895CF93C82F0E943D048C2F0E944104CD
:1008B000CF91089580E00E94510408950E941E2463
:1008C0000E9451040895CF930E941E24C82F809146
:1008D00026028C1779F0C09326020E94A32560930C
:1008E0002702709328028093290290932A028C2F6A
:1008F0000E945104CF910895ADE0B0E0E2E8F4E049
:100900000C94332F488759876A877B878C879D870C
:1009100091110E94290C1F8286E0FE013896DE01AB
:10092000119601900D928A95E1F78D8181110DC08C
:1009300029813A814B815C816D817E818F810E940A
:10094000730B2D96E2E00C944F2FCE0101960E947E
:100950008B038111EDCFF5CFFC012481213021F4EF
:10096000808191810E940E090895CF93C82F88231A
:1009700099F08CEF8C0F813A88F48C2F0E949C2484
:10098000882329F08C2F0E94DF240E94980C8C2F42
:100990000E94D7240E94980CCF91089580E28C0F7A
:1009A000883048F4C77081E001C0880FCA95EAF723
:1009B0000E940C0CEFCFEBE5EC0FE33040F4F0E0DD
:1009C000E555FE4F808190E00E943D24E5CFC85A56
:1009D000CB3110F7EC2FF0E0EE0FFF1FEB58FE4F7E
:1009E000808191810E946224D7CF882339F19CEFC6
:1009F000980F913A28F40E94DF240E94980C0895E1
:100A000090E2980F983050F4877091E001C0990FF0
:100A10008A95EAF7892F0E94120CEFCF9BE5980F79
:100A2000933028F490E080E00E943D240895885A95
:100A30008B3120F490E080E00E94622408951F939F
:100A4000CF93DF93182FEB010E94B504209739F460
:100A5000812F0E94F504DF91CF911F9108958FE9B6
:100A60009FE00197F1F700C000002197EFCF70E001
:100A700060E0893311F460E570E00E941F0508957D
:100A8000882321F00E940C0C0E94980C0895882362
:100A900021F00E94120C0E94980C0895B0E0A0E092
:100AA000E4E5F5E00C942C2F6C01D62FC72FFC0148
:100AB0001581068102950F700E94020CE82E882392
:100AC000F9F0E12E1123E1F08C2F807F803461F06A
:100AD00080E28D0F883008F18C2F807E803221F4E7
:100AE000D230D8F00023C9F080916F0382FF15C087
:100AF00082E00E94BD0C0E94020C91E0E82EE926E3
:100B0000BC2EB2949FE0B922FBE0FB15B8F1EB2DAF
:100B1000F0E0E857FF4C0C94EC2EE12CF1CF0C2FB9
:100B20000F70C07F11F00295007F112399F0002310
:100B300059F080E28D0F883010F0D11107C0802F5E
:100B40000E940C0C0E94980C8D2F5AC0802F0E947E
:100B50001C0CF8CF8D2F0E94F504002379F080E261
:100B60008D0F883010F0D11104C0802F0E94120C1C
:100B700003C0802F0E94220C0E94980CEB2DE8509D
:100B8000FF0B349720F40E941E240E945104EE2093
:100B900089F00E94FE0B80FD0DC0F60115820E94B7
:100BA000F80B0E941608C6010E9458070E94F80B15
:100BB0000E942608CDB7DEB7E9E00C94482F2C2F11
:100BC0002F70F22EC07FC03219F0F29480EFF8221D
:100BD000DD2341F0D130D1F1112309F444C00023C9
:100BE000F1F0B2CF80916F0382FD15C0112359F04F
:100BF000FF2029F08F2D0E940C0C0E94980C80E0A1
:100C00000E94B504BBCF80E00E94F504FF2009F4E8
:100C1000B5CF8F2DABCF112369F0011104C08F2DFB
:100C20000E944005ABCF013009F0A8CF8F2D0E9464
:100C3000400CA4CF0111A2CF8F2D0E9447058F2D0C
:100C40000E944C0C8F2D0E94300C98CF112321F064
:100C5000063008F093CFE3CF053008F08FCF8F2D0B
:100C60000E9447058BCF0023D1F3D93349F43FEFDE
:100C700087EE93E0315080409040E1F700C00000E3
:100C80008D2F0E94F5047ACF8C2F869586958370E0
:100C900069F0813009F072CF8D2F9C2F9370111164
:100CA00002C080E090E00E94622468CF8D2F9C2FCC
:100CB0009370111102C080E090E00E943D245ECF4D
:100CC0008C2F8370A1F5111159CF4D2F4295469568
:100CD0004770440F440F2D2F2F7030E0042E02C0B8
:100CE000220F331F0A94E2F790E080E0D4FF09C09E
:100CF0008FE090E002C0880F991F4A95E2F7809537
:100D00009095C695C695C370822B932BC23049F03F
:100D100058F4C13019F00E94E60730CF0E94DD0779
:100D20002DCF0E94EF072ACF0E94DA0727CF8695A2
:100D3000112311F08C2F8170882309F41FCF4D2FC0
:100D4000429546954770440F440F2D2F2F7030E089
:100D5000042E02C0220F331F0A94E2F790E080E0D5
:100D6000D4FF09C08FE090E002C0880F991F4A9518
:100D7000E2F780959095C695C695C370822B932B0C
:100D8000C23049F058F4C13019F00E945108F6CE33
:100D90000E944808F3CE0E945A08F0CE0E94FE0737
:100DA000EDCECF70112329F08C2F0E9416088D2FC5
:100DB00037CF8D2F0E9447058C2F0E942608DECE4C
:100DC000D23F41F160F4D03FB9F0D13F81F011231F
:100DD00009F446C00111B8CE8C2F8F711FC0D33FCC
:100DE00001F1D43FA1F780916F0382FD24C08C2FC5
:100DF0008F71112311F312C0112341F0053008F057
:100E0000BDCE8C2F8F710E943808B8CE063008F006
:100E1000B5CEF7CF8C2F8F711111CFCF0E9416084E
:100E2000ADCE112329F08C2F8F710E940A08A6CE17
:100E30000E940508A3CE112349F0CF718C2F0E9488
:100E4000160863E08C2F0E949F0C98CE81E00E94D0
:100E5000BD0C023008F492CE82E00E94BD0C8ECE12
:100E6000002359F0D93309F00BCFEFEFF7EE23E071
:100E7000E150F0402040E1F701CF8C2F8F719DCFE2
:100E80000F931F93CF93DF93EC01688179818D815C
:100E90000E9419098C010E9463080E94D907B801B9
:100EA000CE010E944E05DF91CF911F910F910895C1
:100EB000CF93DF93EC018C81882399F0CE010E94BF
:100EC000C603811111C00E94020C882351F08D814C
:100ED000882339F080916F0382FF03C082E00E9473
:100EE000BD0CDF91CF910895CE010E944007CE0145
:100EF0000E949703F6CF90E080E00E943D2490E0AE
:100F000080E00E9462240E94290C0E94980C08959F
:100F10000E94E7240E947B0708950E94190C0E94FA
:100F20008807089592959F70963091F058F4925FDB
:100F30009F70923058F4803F19F030F4883E30F4BE
:100F400081E008959A5FF4CF843FD1F380E0089563
:100F5000883EB0F3813FD1F7F3CFFC0124812223F7
:100F600039F0808191810E940E090E9492070895B4
:100F700080E00895A6E0B0E0E0ECF7E00C94332FB9
:100F80002696E2E00C944F2FA7E0B0E0EAECF7E001
:100F90000C94332F2796E2E00C944F2F08950E9473
:100FA000CE0708950E94CF0790934F0280934E0280
:100FB000089508950E94D207089520914E0230911D
:100FC0004F02822B932B0E94D207089520914E024C
:100FD00030914F02822393230E94D20708952091DB
:100FE0004E0230914F02822793270E94D207089524
:100FF0000E94CE0708950E94F80708950E94FB07FB
:1010000090934D0280934C02089590E080E00E94FE
:10101000FE07089521E030E0A90102C0440F551FEA
:101020008A95E2F7CA010E94FE07089521E030E0A8
:1010300002C0220F331F8A95E2F780914C029091F3
:101040004D02822B932B0E94FE07089521E030E091
:1010500002C0220F331F8A95E2F7209530958091C8
:101060004C0290914D02822393230E94FE07089523
:1010700021E030E002C0220F331F8A95E2F7809111
:101080004C0290914D02822793270E94FE070895FB
:1010900020914C0230914D02822B932B0E94FE072F
:1010A000089520914C0230914D02822393230E9497
:1010B000FE07089520914C0230914D02822793271C
:1010C0000E94FE0708950895262F277091E001C021
:1010D000990F2A95EAF723E0769567952A95E1F727
:1010E000660F771F660F771FFA01E60FF71F50E0B4
:1010F00040E0682F70E08191DF0111979B01042E81
:1011000002C0369527950A94E2F721702195282789
:10111000292328272C934F5F5F4F4430510559F7FF
:101120000895A82FA77023E0969587952A95E1F753
:10113000880F991F880F991FFB01E80FF91F50E0D6
:1011400040E080E0219130E00A2E02C036952795DC
:101150000A94E2F721703327042E01C0220F0A946B
:10116000EAF7822B4F5F5F4F4430510559F70895DE
:10117000262F9A3070F4863060F4682F70E086E095
:10118000989F600D711D11244CE252E0822F0E9445
:1011900064080895292F9A3068F4863058F490E056
:1011A0006CE272E036E0239F800D911D11240E94B5
:1011B0009108089580E00895B0E0A0E0E2EEF8E044
:1011C0000C942C2F7C0100914C0210914D028091C7
:1011D0004E0290914F02082B192BCFE0D0E0CC2487
:1011E000C394D12CBC2EC6010C2E02C0880F991FAF
:1011F0000A94E2F780239123892B49F4219790F7F1
:10120000B12C8B2DCDB7DEB7E9E00C94482FB70198
:101210008C2F0E94CE0F019789F3F3CFCF93DF93EA
:10122000EC010E94DC08BE010E94CE0FDF91CF913D
:1012300008951F93CF93DF93EB0190912B02992395
:1012400039F0CB010E940E09DF91CF911F910895D3
:10125000882369F0CB010E94DC08182F682FCE018B
:101260000E94B808BE01812F0E94CE0FEDCFCB01A6
:101270000E94CA08182FF6CF1F93CF93DF93C09117
:10128000500217E0809151028C1304C0DF91CF917E
:101290001F910895D0E01C9FF0011D9FF00D1124B7
:1012A000EE5AFD4F208131814281538164817581E5
:1012B00086810E94C4072196C770E4CF20918A02DC
:1012C00030918B0240918C0250918D0260918E0280
:1012D00070918F02809190020E94C4070895CF936D
:1012E000DF9380919002807F09F04DC080918F0242
:1012F000882309F448C0E091500250915102C091F6
:101300008B02D0918A0260918C0270918D0247E02D
:101310005E17C9F18E2F90E0E49FF0011124EE5A80
:10132000FD4F2481222391F1489FF001499FF00D48
:101330001124DF01AE5ABD4F11962C9111972C1339
:1013400025C02C912D1322C015962C911597211193
:101350001DC012962D913C91261B370B283C310560
:10136000A8F4809190028F70806180939002E85A77
:10137000FD4F80818F70806180838AE892E00E94B7
:1013800058070E943C09DF91CF910895FC013196E6
:10139000E770BECF482F209150029091510257E044
:1013A000291302C080E0089530E0529FF001539F5E
:1013B000F00D1124EE5AFD4F8181681306C0808123
:1013C000481303C085818111EECF2F5F3F4F2770F7
:1013D000E7CFA4E1B0E0EFEEF9E00C94292F8C0107
:1013E00086E0F801DE011F9601900D928A95E1F7E3
:1013F000F8018481E5809AE8A92E92E0B92E9091B7
:101400008E0291111FC08823D1F0EE20A9F0C801EF
:101410000E94AD07F82E882379F087E0F801D50106
:1014200001900D928A95E1F7C5010E94AC040E94DB
:101430006F090E945E095FC0C8010E945807FF241F
:10144000F39459C0C080D18082809380F0908F0245
:1014500020918C0230918D02A401421B530BFF207E
:1014600009F4F9C0483C510508F0A7C0882309F4E5
:1014700042C090918B0280919002282F207F09F02A
:101480005CC09D1116C090918A02C91212C0E11071
:101490004EC08F708061809390020E945E098AE83E
:1014A00092E00E94580780919002F8018683F12C07
:1014B00022C0E1103CC06D2D8C2D0E94CA096D2DFB
:1014C0008C2D0E94CA09E82E8111F1CFCF86D88ACF
:1014D0008F8598890E940E09292F22952F7024301C
:1014E00078F49F702230A8F09923B9F0F801968122
:1014F000907F99F4FE2C8F2D6496ECE00C94452F90
:101500002A5F2F70223068F0C8010E945807EF2C24
:10151000F1CF992311F0882369F3805E883050F36E
:10152000F3CF803F38F3815F833070F7E3CF809152
:101530009002816080939002BACF9D1113C0909168
:101540008A02C9120FC0E1100DC08683C8010E9433
:10155000580787E0F801AAE8B2E001900D928A9559
:10156000E1F767CFC8010E94AD07882309F464CF73
:10157000EE2009F461CF80919002803288F02091B2
:101580008A0230918B02398728879B868A869091C0
:101590008E029C871D868E87CE0108960E94580772
:1015A00087E0F801AAE8B2E001900D928A95E1F790
:1015B0000E946F090E945E0942CF90919002292FEC
:1015C000207FA1F4682D9A8A898AA6017A899E2DA6
:1015D0000E94BA078AE892E00E94580787E0F50166
:1015E00011928A95E9F70E945E0961CF882309F478
:1015F00082CF80918B028D1110C080918A02C81217
:101600000CC0E1100AC09683C8010E94580787E009
:10161000F50111928A95E9F76ECFC8010E94AD07D6
:10162000882309F409CFEE2009F406CF80919002B7
:10163000803208F4B5CF20918A0230918B023A8330
:1016400029839C828B8290918E029D831E828F8340
:10165000CE010196A3CF483C5105B8F5882309F483
:10166000EECEFE2CEE2009F4E7CE80918B028D1198
:101670001EC080918A02C8121AC08091900280FD1B
:101680000DC0982F907F51F08683903F09F45ECF74
:10169000982F907F905F8F70892B57CF87E0F8014C
:1016A000AAE8B2E001900D928A95E1F724CFC80133
:1016B0000E94AD07811174CF809190028160809368
:1016C0009002C8010E94580716CF682D9A8A898A0D
:1016D000A6017A899E2D0E94BA0787E0F501119232
:1016E0008A95E9F7A6CEAEE0B0E0E9E7FBE00C941E
:1016F000322F288739874A875B876C877D878E875B
:10170000CE0108960E94E9098823B1F06C85662312
:1017100041F0288539854A855B857D858E850E94C7
:10172000C40717E0809150029091510289133DC087
:101730002E96E3E00C944E2F87E0FE013896DE01F2
:10174000119601900D928A95E1F78C85882349F3D3
:101750002091510230E0C90101968770992740918C
:1017600050024817190699F097E0929FD001939F75
:10177000B00D1124AE5ABD4FFE01319601900D926D
:101780009A95E1F7809351020E943C09CACF0E94CA
:101790008D07109251021092500287E0EAE8F2E0C1
:1017A000DF011D928A95E9F7BCCF819FC00111240A
:1017B0008E5A9D4F0E94E909882309F4B9CFE09120
:1017C00050021E9FF0011124EE5AFD4F20813181FD
:1017D000428153816481758186810E94C407809112
:1017E000500290E0019687709927809350029ACF1B
:1017F00080919902869586958695089580919902A3
:101800008770089590919902977081E009F480E0C3
:1018100008958091A50208959091A502892B809347
:10182000A502089580959091A50298239093A50212
:1018300008951092A50208959091A402892B809397
:10184000A402089580959091A40298239093A402F5
:1018500008951092A402089508950E942C0C0895F2
:1018600090919A02292F282331F080958923809323
:101870009A020E942D0C089508950E943C0C089530
:1018800090919B02292F2823281729F0982B9093B9
:101890009B020E943D0C089590919B02292F2823C2
:1018A00031F08095892380939B020E943D0C08951E
:1018B00080919B02882329F010929B0280E00E9475
:1018C0003D0C08950F931F93CF93DF930091040174
:1018D00010910501C091A5028091A402C82B8091AE
:1018E0009B02882331F0C82B0E94872481110E941B
:1018F000580CF801C083C0910401D091050148E063
:1019000050E061E972E0CE010E94F92F892B59F075
:1019100088E0FE01A1E9B2E001900D928A95E1F71D
:10192000CE010E943224DF91CF911F910F91089533
:101930000E94620C089508950E949B0C0895909156
:101940006F0392FF11C098E0899F90011124622BD0
:10195000609399020E941608809199028695869557
:1019600086950E949C0C08950E9416080895109276
:10197000990280E00E949C0C0895909199028095B4
:10198000892380939902282F277069F4891759F0C9
:1019900090916F0392FF07C08695869586950E9469
:1019A00026080E94B70C089590916F0392FB22279E
:1019B00020F9281769F080FB92F990936F038091CA
:1019C0006E0390916F030E941C0D82E00E94BD0C7B
:1019D000089580916F0382FB882780F991E0892721
:1019E0000E94D40C089581E00E94D40C089580E0F8
:1019F0000E94D40C08956FEF7FEF90E080E00E948A
:101A00005130089590E080E00E941D3021E0863E34
:101A10009E4F09F020E0822F089582E090E00E941E
:101A20000F30089583E090E00E940F30089584E025
:101A300090E00E941D300895BC0184E090E00E9477
:101A400051300895AB01BC018FE090E00E94453019
:101A50000895AB01BC0183E190E00E9445300895F8
:101A600060E070E0CB010E94290D089560E070E015
:101A7000CB010E94220D0E94300D0895A8E0B0E035
:101A8000E4E4FDE00C94332F66EE7EEF90E080E01E
:101A90000E94513060E082E090E00E94333081E0AB
:101AA00090E090934F0280934E0261E083E090E0DB
:101AB0000E94333060E074E184E090E00E94513095
:101AC00060E086E090E00E9433306FEF87E090E0C6
:101AD0000E94333040E050E0BA0188E090E00E947C
:101AE000453060E084E290E00E94333060E087E1BE
:101AF00090E00E94333060E08CE090E00E94333050
:101B000060E08DE090E00E94333019821A821B82DF
:101B10001C821D821E821F82188648E050E068E108
:101B200070E0CE0101960E94233040E050E0BA01FF
:101B300080E290E00E9445300E94360D2896E2E057
:101B40000C944F2F0E943E0D0895682F8EE090E078
:101B50000E9433300895A6E0B0E0E1EBFDE00C9484
:101B6000312F0E9497258C018091A6029091A702A7
:101B70008017910781F019821A820E949725682F99
:101B800049815A81792F80E090E00E947C04109373
:101B9000A7020093A6022696E4E00C944D2F0E9423
:101BA000EA106093BA027093BB028093BC029093D8
:101BB000BD026093B6027093B7028093B80290930F
:101BC000B90208950E94EA106093BA027093BB02B2
:101BD0008093BC029093BD026093B2027093B302F3
:101BE0008093B4029093B5020895089508950E94D9
:101BF000F50D089508950E94FA0D089581E0089565
:101C00008FE091E10E941C160E94F60D0E94F70DD4
:101C100008950E9429130895089508950E940C0EB6
:101C20000E940D0E08950E9412110E9450040E94FD
:101C3000A72008950E948E250E94C4100E942C1394
:101C40000E94C4200E943C120E94130E0E94532244
:101C50000E94011F0E94051D0E9448130E94FB0D57
:101C60000895A6E0B0E0E7E3FEE00C942A2F0E947E
:101C7000FE0D811113C00E94AB0D0E9429130E941A
:101C8000531E0E94A6200E94482181110E94E20D4D
:101C90000E9463042696EBE00C94462F0E94961255
:101CA00088EAA82E82E0B82E750110E0F7010191B4
:101CB0007F01812F0E9438111F5F1A3009F441C043
:101CC0000817A1F38091BE0281FD0E943E110E947F
:101CD000090EC82E10E099249394812F0E94381188
:101CE000082FF50181915F01081729F1F12CEE24ED
:101CF000E394D02ED8268D2D8E21A9F0CC2099F0FA
:101D0000F9821A830E9497259C838B839D8291E0A0
:101D1000802F8E2109F490E049815A816B817C816A
:101D20008D810E947C04F394EE0CF6E0FF12E3CF69
:101D3000F501319700831F5F1A3079F60E94CF0DAD
:101D40009CCF0813BFCF97CF1F93CF93DF930E94F1
:101D5000D30FEC01C11580E5D807F0F5C11580E47B
:101D6000D80708F09CC0C03ED10520F5CD3CD10578
:101D700008F082C0C83AD10578F4C53AD10508F018
:101D800073C0C130D10519F1209709F1C430D105D4
:101D9000F0F4D0E0C0E01BC0C33CD105D0F7C85A76
:101DA000D0E0CC0FDD1FC255DE4F0990D881C02D89
:101DB000D4640DC0C11580E2D80708F0D1C0C115A8
:101DC00081E0D80708F05AC0C83ED10510F7CE010F
:101DD000DF91CF911F910895C03682E5D80718F59D
:101DE000C03482E5D80708F06BC0C03282E5D8075E
:101DF00008F05FC0C11582E5D80708F497C02C2F02
:101E00002695269580E2289F900111248C2F8370BF
:101E1000C1E0D0E002C0CC0FDD1F8A95E2F7C22BF3
:101E2000D32BDD68D4CFC03A82E5D80760F4C03840
:101E300082E5D80708F459C0CF71D0E0DC2FCC2759
:101E4000C46FD06AC4CFC03C82E5D80708F462C032
:101E5000C03E82E5D80708F09CCFDC2FCC27CC27EA
:101E6000DF71C06FD06AB3CFC55AD0E0CC51DE4F1E
:101E7000C881D0E0D064ABCFD065A9CF8D2F0E94B0
:101E80007510182FCE0199270E94D30FC12FD0E0D3
:101E9000DC2FCC27CC27DF71C82BD92B98CFCE01D4
:101EA00099270E94D30FCC27DF70C82BD92BD06A7B
:101EB0008ECFCF71D0E0DC2FCC27C16FD06A87CF17
:101EC0002C2F26952695277080E2289F90011124BB
:101ED0008C2F8370C1E0D0E002C0CC0FDD1F8A954B
:101EE000E2F7C22BD32BDC6872CF2C2F26952695D8
:101EF000277080E2289F900111248C2F8370C1E00D
:101F0000D0E002C0CC0FDD1F8A95E2F7C22BD32BA5
:101F1000DA685DCF8C2F8F710E947510C82FD0E0CA
:101F2000DC2FCC27CC27DF71D06251CF8C2F8F7163
:101F30000E94751055E0D695C7955A95E1F7CF7078
:101F4000D0E0DC2FCC27282F30E084FF05C044E010
:101F5000220F331F4A95E1F7C22BD32BD06937CF1D
:101F60008D2F8F710E947510182FCE0199270E9416
:101F7000D30FC12FD0E0DC2FCC27CC27DF71C82BAB
:101F8000D92BD2CF462F7A3030F4663020F4672F29
:101F90000E943E03089590E080E008950E94C20FE1
:101FA0000E94A40E089582389105B9F1B0F48133EE
:101FB000910509F47DC048F48932910509F46DC09A
:101FC0008A32910509F47BC008958533910509F49F
:101FD0005FC08933910509F10895833E9105D9F1D8
:101FE00038F4803E910529F1823E910579F10895FA
:101FF000863E9105D9F1873E910509F43EC0843EA5
:10200000910541F520916F0321FF24C080916E035B
:1020100084FD19C087EE90E0089520916E0323702F
:1020200009F05AC020916F0323FF14C089E290E0A9
:10203000089520916E0320FD38C030916F0330FF6A
:1020400009C024FF43C090E080E0089520916E0312
:1020500022FDF7CF089520916E0322FD3AC0309102
:102060006F0330FD39C024FFF5CFEDCF20916E0313
:1020700023FFF0CF24FDE7CFCDCF20916E0323FDCA
:102080002EC030916F0331FFEECF84EE90E00895C3
:1020900020916E0325FFDECFC9CF20916E0325FD71
:1020A00021C020916F0323FFD5CF89E390E0D2CFE9
:1020B00020916E0326FFCECF8AE290E00895209112
:1020C0006E0326FFC7CF81E390E0089583EE90E092
:1020D000089582EE90E0089580EE90E0089586EEF7
:1020E00090E0089585E390E0089590916E0392FF4B
:1020F00010C041E0282F2471243009F040E031E085
:10210000282F2871283009F030E0431711F02CE017
:10211000822793FF10C041E0282F2471243109F059
:1021200040E031E0282F2871283109F030E04317D2
:1021300011F02CE0822730916F0330FF10C051E086
:10214000282F2171213009F050E041E0282F28711B
:10215000283009F040E0541711F029E0822731FFC0
:1021600010C041E0282F2171213109F040E031E019
:10217000282F2871283109F030E0431711F029E0A9
:10218000822794FD877E089510926A0310926B0354
:1021900010926C0310926D030895CF92DF92EF922C
:1021A000FF926B017C010E94291381110EC00E94D5
:1021B000A325C61AD70AE80AF90AC0926A03D09280
:1021C0006B03E0926C03F0926D03FF90EF90DF9051
:1021D000CF9008950F931F930E942913882329F00D
:1021E0000E94A3251F910F9108950E94A32500919D
:1021F0006A0310916B0320916C0330916D03600FA3
:10220000711F821F931FEECF0E942913882319F09C
:102210000E94972508950E94EA10CB01089580E05E
:10222000089508950E94020D811102C00E94A20D1E
:102230000E940D0D8093BE020E94170D90936F03B4
:1022400080936E030E9411110E94120D90E00E9473
:10225000DA0780914C0290914D020E94FB0708958D
:1022600008950E943011089508950E943411089530
:10227000E82FF0E0E558FC4F80810895089580EA4A
:102280008A95F1F7089500C008950E943F110895BE
:1022900008950E9448110895A5E0B0E0E2E5F1E15B
:1022A0000C942F2F0E942913F82E60918503882308
:1022B00009F440C085E0E82E8E010F5F1F4FF80142
:1022C0008E2D11928A95E9F7862F90E0B8018558F6
:1022D0009C4F0E9456138823B9F08091700390E0C0
:1022E00045E050E0B80185589C4F0E94F92F21E04D
:1022F0002093BF02892B91F4F12C0E9435118F2D70
:102300002596E6E00C944B2F8091BF028823A1F321
:10231000F8011192EA94E9F71092BF02A0917003BC
:10232000B0E0A558BC4F85E0F80101900D928A9568
:10233000E1F7E3CF70E065587C4F8091700390E047
:1023400085589C4F0E94DD130E944911D8CFF89404
:10235000E82FE295EF70F0E031A1282F2F7081E097
:1023600090E001C0880F2A95EAF7982F9095932363
:1023700091A392A1892B82A3789408950F931F9320
:10238000CF93DF93CCE0D1E089918F3F11F00E9491
:10239000A71181E0C131D807B9F7C6E0D1E00CE060
:1023A00011E089918F3F11F00E94A7110C171D07B2
:1023B000C1F7DF91CF911F910F910895B0E0A0E098
:1023C000E4EEF1E10C942D2FEC01D62E062F10E057
:1023D000C801845F9E4F7C01FC0180818F3F09F41E
:1023E00044C0F894E82FE295EF70F0E091A18F706F
:1023F00021E030E001C0220F8A95EAF7892F822B75
:1024000081A382A12095282322A378940E944311BE
:10241000E6E0F1E031E0C12C21912F3F59F1A22FEC
:10242000A295AF70B0E090968C9190E02F7002C0B2
:10243000959587952A95E2F780FD1CC0832FC82AC1
:10244000330F81E0EC30F80739F7F70180818F3FD7
:1024500011F00E94A71161E0C11001C060E08D2D54
:102460000E944511C00FD11FC882CDB7DEB7E8E08A
:102470000C94492F80E0E3CFABE0B0E0E2E4F2E17E
:102480000C94332F8091110181112CC085E0EAE674
:10249000F1E0DE01179601900D928A95E1F78F81A8
:1024A00080930C01888580930D01898580930E01AE
:1024B0008A8580930F018B858093100186E0EFE67B
:1024C000F1E0DE01119601900D928A95E1F7FE018F
:1024D0003196A6E0B1E0CE01079621912D93E81741
:1024E000F907D9F78091110195E0811190E090935F
:1024F000850385E0891B809370030E94BE118AE0EA
:10250000EBE7F3E0DF01982F1D929A95E9F7E1E7F9
:10251000F3E0DF011D928A95E9F785E00E94D4126D
:102520000E9431112B96E2E00C944F2FAAE0B0E00C
:10253000ECE9F2E10C94302F8E010F5F1F4F8AE01F
:10254000F80111928A95E9F7F12C6F2DC8010E94CC
:10255000DE11F394F5E0FF12F8CF4AE050E0B80145
:1025600081E793E00E94F92F21E0009709F420E031
:10257000892B41F08AE0F801A1E7B3E001900D92C8
:102580008A95E1F76091850370E065587C4F45E0DE
:1025900081E793E00E94D512182F0E944C11812BE5
:1025A0002A96E5E00C944C2F0895B0E0A0E0EBED06
:1025B000F2E10C942D2F6C017B01042FC22F2223FA
:1025C00079F081E08093C2020E9497259093C10226
:1025D0008093C00280E0CDB7DEB7E8E00C94492FCD
:1025E000D091C202DD23B1F38091C0029091C1026B
:1025F0000E94AF25059770F310E0A801B601C7014E
:102600000E94F92F892B31F0A801B601C7010E9461
:102610000630CD2F1092C2028C2FDDCF55985D98D9
:102620008FE891E00197F1F700C0000089B185FBC8
:10263000882780F90895CF930E946B2EC82F8111AF
:1026400002C00E94662E8C2FCF9108958091C60201
:1026500008958091C50208950E941B138093C502BE
:102660000E940E138093C6020E94261380931101CC
:102670000E94261366E0882349F080E00E94B91684
:102680000E94291381110E948C13089586E0F6CFD1
:102690000E942913811102C00E948F13089581E0C6
:1026A0009091C7029A3008F080E008950F931F932D
:1026B000CF93DF93EC018B018091C7028A30B8F48D
:1026C000B801CE010E94DA13C82F811122C0809177
:1026D000C7028F3FB9F40E9497259093C40280935C
:1026E000C3028C2FDF91CF911F910F91089580919C
:1026F000C3029091C4020E94AF25843F914000F72D
:10270000C0E0EFCF8F5F8093C7028A3020F7C1E02F
:10271000E8CF1092C702E5CF0E94852608950E9457
:1027200088260895B0E0A0E0E8E9F3E10C942E2FAC
:102730007901C82F880FDD0B41155105A9F0FE0165
:1027400093E0EE0FFF1F9A95E1F7EE5EFE4F818159
:10275000928188539D4F208130E04217530708F43F
:102760009A01A9010E940630CE010E947127D82E3D
:102770008823D1F001151105B9F083E0CC0FDD1FDE
:102780008A95E1F7FE01EE5EFE4F438150E00417AB
:10279000150708F4A801CE5EDE4F6C817D81685379
:1027A0007D4FC7010E9406308D2DCDB7DEB7E7E023
:1027B0000C944A2F0E94721508950E94A315089543
:1027C000A4E0B0E0E6EEF3E10C94312F6091F10269
:1027D0007091F2028091F3029091F4020E94BE2562
:1027E00011E0643671058105910518F10E94EA1027
:1027F0006E5F7F4F8F4F9F4F69837A838B839C835C
:1028000010E000E030E020E044E050E0BE016F5F07
:102810007F4F84E00E949213182F882351F00E946A
:10282000A3256093F1027093F2028093F3029093D8
:10283000F402812F2496E4E00C944D2FB0E0A0E048
:10284000E4E2F4E10C942B2FC82F7B01D42F690113
:102850005801FB0160817181828193810E94BE25B4
:10286000643671058105910510F4DD23C9F010E08F
:1028700000E030E020E0A501B6018C2F0E94921309
:10288000C82F882339F00E94A325F7016083718344
:10289000828393838C2FCDB7DEB7EAE00C94472F69
:1028A000C1E0F8CFABE0B0E0E8E5F4E10C94312F03
:1028B000CE0101960E94221C41E08B85811101C04E
:1028C00040E00BE010E09E012F5F3F4F69EF72E0A8
:1028D00086E00E941E14182F81110E941F1C812F58
:1028E0002B96E4E00C944D2FA1E0B0E0EAE7F4E190
:1028F0000C94312F0E94E31E8823D1F00E94FB1E0E
:102900008983E091E701F091E80141E09485981313
:1029100001C040E001E010E09E012F5F3F4F65EFF6
:1029200072E085E00E941E142196E4E00C944D2F85
:1029300080E0E6CFA1E0B0E0E0EAF4E10C94282FDB
:10294000762E4A015901680101E010E09E012F5FD7
:102950003F4F50E040E070E060E00E949213182F7B
:10296000882399F1F40160817181828193810E94B1
:10297000BE25643671058105910500F18701950139
:1029800050E040E070E060E0872D0E949213B82E86
:10299000B701C6010E94542211E09981981310E0FA
:1029A0001B2139F00E94A325F40160837183828387
:1029B0009383812F2196EDE00C94442FB701C6013B
:1029C0000E94542299818913D9CFA701B601C5016C
:1029D0000E940630EECFA1E0B0E0E1EFF4E10C940C
:1029E0002F2F0091E7011091E801095F1F4FEE249E
:1029F000E394F12C9E012F5F3F4F4DEE52E063E0D8
:102A000082E00E949A14182F882321F0CE010196AB
:102A10000E94E321812F2196E6E00C944B2FA5E044
:102A2000B0E0E5E1F5E10C942D2F6B010091E70199
:102A30001091E8010F5F1F4F85E0E82EF12C9E01F9
:102A40002F5F3F4F49EE52E061E080E00E949A1410
:102A5000882349F095E0FE013196A4EEB2E00190A2
:102A60000D929A95E1F795E0E4EEF2E0D60101903F
:102A70000D929A95E1F72596E8E00C94492FB0E085
:102A8000A0E0E5E4F5E10C942B2F7C015B016A01E9
:102A90000E944F1301E010E0882311F00AE010E0DB
:102AA000C1E0D0E0B501C701F6010995811104C06C
:102AB00021960C171D072CF4CDB7DEB7EAE00C9475
:102AC000472FCC9F9001CD9F300D300D112490E009
:102AD00080E045E34A95F1F70000019682179307DD
:102AE000C1F7E0CF0F931F93CF93DF93EC018B01DE
:102AF0004FE055E10E943F15811106C080E0DF9153
:102B0000CF911F910F9108954BEE54E1B801CE0182
:102B10000E943F15882391F340EE53E1B801CE01A6
:102B20000E943F15882351F344E754E1B801CE01D8
:102B30000E943F15882311F342E554E1B801CE010C
:102B40000E943F15DCCFABE0B0E0E9EAF5E10C9480
:102B50002D2F0091E7011091E801C801019625E0B1
:102B6000FB01DC0101900D922A95E1F765E070E030
:102B70000E945422F8018083CE0101960E94D82140
:102B80008981F801878361E070E0CE0101960E949F
:102B90005422F80186836085718582859385C09073
:102BA000E002D090E102E090E202F090E3026C15C6
:102BB0007D058E059F0551F06093E0027093E10260
:102BC0008093E2029093E3020E94CD10F801848585
:102BD0000E94B41F8BE0F8013D96DE011196019032
:102BE0000D928A95E1F7F801178A8B85882329F0E1
:102BF00060E0CE0101960E944E1D2B96E8E00C94F9
:102C0000492F0E943C290E941A0E0E9449290895CA
:102C10000E944E290E94310E0E94682908950E9448
:102C200030250E9422290E94000E0E9401160E9457
:102C300008160E940E0EFBCF90932502809324026B
:102C40000895EF92FF920F931F93CF93DF93EB01C1
:102C5000E82FD1110EC0442321F0F0E0EA55FC4FDB
:102C6000E4916E2F7E2F8E2FCDB7DEB7E6E00C9469
:102C70004B2F0D2F10E0282F30E0442329F02A5548
:102C80003C4FF901249130E0F6E0CF9FC0011124C0
:102C9000EFEFF0E0BF010E94A22EAB018C2F90E07D
:102CA000880F991FA5E5A49FB001A59F700D112461
:102CB000861B970B982F990F980FBF01601B710B04
:102CC000629FD001639FB00D729FB00D11248B2FB6
:102CD0009D9FB0011124672F7727EF01C61BD70BEB
:102CE000BE01629FE001639FD00D729FD00D112441
:102CF0007F01E91AF108E09EB001E19E700DF09E9F
:102D0000700D1124672F7727E61BF70BE29F8001D8
:102D1000E39F100DF29F100D1124E12F722F42300E
:102D2000510599F048F44115510569F041305105BC
:102D300081F0EB2F8D2F07C04430510569F080F0F2
:102D400046305105B1F76E2F8FCFE22F7B2F812FA9
:102D5000FACFE22F7D2FF7CFEB2F822F712FF3CFFA
:102D60007B2F822FED2FEFCF41E00E942116089597
:102D70000895EDE4F1E08083618308950E94B41624
:102D80000895CF93DF93762FE901682F842F0E9457
:102D9000BE16798368838A83DF91CF9108958091ED
:102DA0008603982F9C7F29F4837084608093860328
:102DB00008958C3AE8F38370886AF8CFB0E0A0E019
:102DC000E4EEF6E10C942D2F88E090E00E9417309D
:102DD0006B017C0184E290E00E940F30282F30E0EC
:102DE00040E050E060E070E080E090E000E20E94AF
:102DF0005A2FB22FA32FF42FE52FD62FC72F9701CD
:102E00008601BC29A12BFE295E2F532B2B2F3A2F95
:102E10004F2F6D2F7C2FCDB7DEB7E8E00C94492FF4
:102E2000B0E0A0E0E6E1F7E10C94292F49015A0156
:102E30006B017C010E94CF168401A4016A2D7B2DB9
:102E400088E090E00E94453094014A2D5B2DB60148
:102E5000C70100E20E94752F622F84E290E00E9479
:102E60003330CDB7DEB7ECE00C94452FE6E8F3E065
:102E70008DE2808311828FEF828380E883831482C6
:102E8000A6E4B3E012968C911297836012968C930D
:102E900075812DE230E04FEF50E860E08681978148
:102EA0000E94101708958091860380FF03C08695C5
:102EB0008695089580E0089590918A03933018F4E0
:102EC0009F5F90938A03882391F02091860330912D
:102ED0008703409188035091890360918A03709120
:102EE0008B0380918C0390918D030E94101708959D
:102EF00081E00E945C17089590918A03992319F04C
:102F0000915090938A03882391F020918603309109
:102F10008703409188035091890360918A037091DF
:102F20008B0380918C0390918D030E94101708955C
:102F300081E00E947C17089570E00E942722089586
:102F400060914E018091860380FF0BC080914D01FE
:102F500023E0829FC001112482579C4F0E949C173E
:102F6000089580914F019091500123E0829FF001DC
:102F70001124E257FC4F891748F711821082128200
:102F80008F5F3396F8CF9091860390FF0EC090919B
:102F90004F012091500133E0939FF0011124E2573B
:102FA000FC4F921718F00E94A01708958183608348
:102FB00042839F5F3396F5CFA3E0B0E0E2EEF7E106
:102FC0000C94332F9091860390FF0AC09E012F5FCF
:102FD0003F4F0E94C1164B8169818A810E94C317AD
:102FE0002396E2E00C944F2FCF93DF93EC01EC811A
:102FF000F0E0EF55FD4F4491E6E8F3E06281818116
:103000000E94DC178C818F5F8C83DF91CF910895B4
:10301000CF93DF93EC01E6E8F3E0438162818C819A
:103020000E94DC178C818F5F8C83DF91CF91089594
:10303000A3E0B0E0EEE1F8E10C94312F8C01809137
:10304000FD0281110AC09E012F5F3F4F4FEF6FEFCE
:103050000E94C1168A818093FD02F801648161306B
:1030600069F08091FD0240E0662361F040E062304B
:1030700011F44091FD0280E060E004C06091FD0227
:1030800040E080E00E94C317F801848190E001963F
:1030900063E070E00E94B62E84832396E4E00C94F3
:1030A0004D2FA3E0B0E0E7E5F8E10C942C2F082FBA
:1030B000E62EF42EC22E9091860390FF41C02091FF
:1030C0008703281308C080918803861304C0809169
:1030D0008903841729F08091480382608093480314
:1030E000E92FE695E695AE2FB0E0A751BE4F8C9143
:1030F000809346039C7F943039F59E012F5F3F4FAC
:103100004F2D6E2D802F0E94C1164B8169818A81BF
:103110000E94C31700938703E0928803F09289030B
:10312000CC2071F02091860360918A0370918B030B
:10313000302FA70180918C0390918D030E9410176E
:103140002396E9E00C94482F823019F4F09089031B
:10315000E1CF8630A1F1893091F18931D9F6E95179
:103160006E2F6170B62EE695F0E0EF55FC4F14918E
:10317000D12C60915101D61618F00E94A017CACF29
:10318000D19EC001112470E00E94A22E802FB110A8
:1031900014C0860F20914F01622F6D0D7727771F86
:1031A0009B01220F331F260F371F22573C4F4F2DF5
:1031B0006E2D0E94C116D394DCCF861BEBCF022F5D
:1031C000A9CFE6E8F3E09181282F4381628188E06E
:1031D000890F0E945118089581E00E94E118089516
:1031E000E6E8F3E09181282F4381628188EF890F1F
:1031F0000E945118089581E00E94F0180895E6E8B1
:10320000F3E0628121E1620F08F46FEF282F438120
:1032100081810E945118089581E00E94FF1808954D
:10322000E6E8F3E0628121E1621B08F460E0282F08
:10323000438181810E945118089581E00E941019F4
:103240000895E6E8F3E0438121E1420F08F44FEFEF
:10325000282F628181810E945118089581E00E9487
:1032600021190895E6E8F3E0438121E1421B08F4C7
:1032700040E0282F628181810E945118089581E0E9
:103280000E943219089520E00E9451180895EF928B
:10329000FF921F93CF93DF93EC0110E0EE24EA94AA
:1032A000F12C60915101161770F00E94A0179A81BD
:1032B0008C8190FF27C08F5F8C83DF91CF911F910E
:1032C000FF90EF90089520914F01422F410F552715
:1032D000551FCA019A01220F331F280F391F225789
:1032E0003C4F70E0C7010E94B62E962F8C81409112
:1032F000890360918803199F800D11240E94C116D3
:103300001F5FCFCF8150D8CFB0E0A0E0EAE8F9E16D
:103310000C94292FEC018A81BB24BA9480FD02C051
:10332000BB24B3948C8181110AC081E0B81222C001
:103330008091510181508093FF0281E08C83A12C08
:103340004CE0942E80915101A816B8F00E94A0176D
:103350008091FF0291E0B91259C0811152C0809151
:10336000510181508093FF021C82CDB7DEB7ECE0A3
:103370000C94452F1092FF02E0CF00914F01CA2C10
:10338000D12C0C0D1D2D111DC801880F991F080F80
:10339000191F02571C4FF80111821082128234E06B
:1033A000E32EF12C812C8091FF02880D8D301CF1D1
:1033B000692D0E94942E892F082E000C990BC81697
:1033C000D90691F4809189038E9DA0018F9D500DA7
:1033D0001124559547955595479598016091880317
:1033E000809187030E94C1168B0CF1E0EF1AF1085F
:1033F000D1F6A394A7CF87FFDFCF90915101890F1A
:10340000DBCF81508093FF02BC82AFCF90E001966A
:103410006091510170E00E94B62E8093FF028C8370
:10342000A4CFEF92FF920F931F93CF93DF93EC0102
:103430008C81811109C081E08C831092FE0292E0A0
:1034400090934C0180934B0180914F0190915001DA
:1034500023E0829FF0011124E257FC4F891758F1B5
:1034600010E003E060915101161758F10E94A01777
:1034700080914B012091FE02280F2093FE02909133
:103480004C01980F90934C01191654F4022E000C25
:10349000330B409151014150550B2417350734F03F
:1034A000819580934B01813009F41C82CDB7DEB742
:1034B000E6E00C944B2F1182108212828F5F3396BC
:1034C000CDCFE12EF12C70E0C7010E94B62E2091E5
:1034D0004F01820F482F50E02091FE02022E000C77
:1034E000330BE216F306BCF020914C01022E000CC7
:1034F000330B2E153F057CF0809F9001112422573D
:103500003C4F4091890360918803809187030E941A
:10351000C1161F5FA7CFFA01EE0FFF1FE40FF51FC3
:10352000E257FC4F118210821282F3CFB0E0A0E08C
:10353000ECE9FAE10C94292FEC014C81042F10E006
:103540009801D8010E94FA2E9B01AC010E94102F15
:103550004B015C01E0E2F0E0E01BF10BA5E5B0E01F
:10356000AC019B010E94102F6B017C019F01DF01C8
:103570000E94F22E9B01AC010E941B2F9B01AC010B
:10358000280D391D4A1D5B1DC701B6010E94CA2EB8
:10359000F22E822F90E039E23F1520F143E0249F84
:1035A0009001112435952795122F109500E085E59F
:1035B000E82EEF1880915101081718F10E94A0170A
:1035C0009C8181E0992319F0903219F48FEF809358
:1035D0004A0180914A01890F8C83CDB7DEB7ECE0B8
:1035E0000C94452F25E530E0B901681B790B9B0150
:1035F000220F331F260F371F37FFD4CF2F5F3F4FC8
:10360000D1CF8E2D01FD8F2D20914F01622F600FA4
:103610007727771F9B01220F331F260F371F225753
:103620003C4F412F609188030E94C1160F5FC2CFAB
:103630000F931F93CF93DF93EC0110E000E0909184
:1036400051019017110609F06CF40E94A0178C81AB
:1036500090E00196817099278C83DF91CF911F9123
:103660000F91089520914F01A801420F511D9A0119
:10367000220F331F240F351F22573C4F4C8160917E
:1036800088038091870396959017110651F04CF0AE
:10369000442349F0409189030E94C1160F5F1F4FD8
:1036A000CECF4423B9F340E0F7CFB0E0A0E0EBE5A4
:1036B000FBE10C94252FFC016280448081E084832F
:1036C000E1EAF2E07490E0E2F3E0E491C091890372
:1036D000C695C158D0E0CC0FDD1FCD2FDD27812C42
:1036E00075E0972EAA24AA94B12C55245A94E71970
:1036F000EE2EF12C80915101881638F00E94A0170F
:10370000CDB7DEB7E0E10C94412FC82CD12C82E07C
:10371000861568F09C9CF0019D9CF00D1124ED5FD6
:10372000FC4F8091870380838091880381834110BF
:1037300023C09C9CF0019D9CF00D1124ED5FFC4F7B
:103740001382128220914F01C601820F911D9C01AC
:10375000220F331F280F391F22573C4F9C9CF0012A
:103760009D9CF00D1124ED5FFC4F428161818081B1
:103770000E94C1168394BECF9C9C80019D9C100D1D
:1037800011240D5F1C4FF80183818823F1F08150D3
:103790008383859DC0011124648170E00E94A22E64
:1037A000FB01FF27EF55FD4F8491E82FE719E59DB9
:1037B000C0011124B7010E94A22E80918903689F45
:1037C000B0011124F8017283BDCF0E94DC2FB50136
:1037D0000E94B62E8C179D070CF0B4CFF2E0F615C0
:1037E00098F40E94DC2FB5010E94B62EF801808368
:1037F0000E94DC2F209188032695622F70E00E94A2
:10380000B62E280FF80121839C9CF0019D9CF00DA1
:103810001124ED5FFC4F128280918903893C58F09E
:1038200088EC9C9CF0019D9CF00D1124ED5FFC4FF9
:103830008483838387CF8431A0F784E1F2CF109211
:103840004803089528E0E6E8F3E0DC0101900D92DA
:103850002A95E1F7209146033091470340914803B0
:10386000FC012087318742870895E6E4F3E0118266
:103870008281846082830895E6E8F3E080818E7F10
:1038800080830E94351CE6E4F3E0828181608283BC
:103890000E94A0170895E6E8F3E020812E7F2083A0
:1038A00031814281538164817581868197810E9433
:1038B00010170E94351CE6E4F3E082818160828368
:1038C0000E94A0170895609186036695669570E042
:1038D0004BE050E082E591E00E94EC2F892B19F437
:1038E00081E0809347030E940411909340038093EA
:1038F0003F0380914803846080934803089590912A
:10390000860390FF39C09370811137C09460909303
:10391000860380914803816080934803662391F079
:103920002091860330918703409188035091890349
:1039300060918A0370918B0380918C0390918D0329
:103940000E941017609186036695669570E04BE0C3
:1039500050E082E591E00E94EC2F892BB1F00E94AB
:10396000351C81E080934203409189036091880374
:10397000809187030E94431908958B3210F0986A52
:10398000C6CF880F880F982BC2CF0E94631CE9CF47
:10399000682F909186039695969581E0890F8B32DA
:1039A00008F081E00E947F1C089581E00E94C81CFD
:1039B0000895682F90918603969596958FEF890FBD
:1039C00009F48AE20E947F1C089581E00E94D91CBC
:1039D000089561E00E947F1C0895E6E8F3E080818D
:1039E00081608083869586950E94E91C0895809168
:1039F000860380FF03C00E944B1C08950E94ED1CAB
:103A0000089560E00E947F1C089580914503811114
:103A100044C00E94020D811104C00E94A20D0E94A8
:103A200036170E94DE162093860330938703409357
:103A300088035093890360938A0370938B03809368
:103A40008C0390938D038091480383608093480397
:103A50002C7FA1F40E9436170E94DE162093860365
:103A600030938703409388035093890360938A03BC
:103A700070938B0380938C0390938D030E94CF16D9
:103A80000E94351C8091860380FF04C08695869530
:103A90000E94011D81E08093450308951F93CF93F9
:103AA000DF93EC01162F8A8580FF0DC0888180FF8F
:103AB00025C08091860381608093860388818695E6
:103AC00086950E947F1C8A8581FF06C0212F4B812D
:103AD0006A8189810E9451188A8582FF05C0898583
:103AE000882379F00E94631C8A8583FF03C081E0EC
:103AF00080934203DF91CF911F9108950E943C1C57
:103B0000E2CF0E94351CF0CFEF92FF920F931F93EC
:103B1000CF93DF9380914703882309F464C0809199
:103B20004603E0918603E695E695E81BE0934103A2
:103B3000823009F05DC0F0E0E356FD4FE491CE2FF6
:103B4000D0E004EF17E180914203882361F01092E6
:103B500042030E9404119093400380933F0310920C
:103B60004403109243030E940411E0913F03F0913B
:103B700040039C012E1B3F0B2F3F3F47A0F5209198
:103B800002032223B1F0109202032091000330912E
:103B90000103821B930B8F3F9F4758F4205D3A48E7
:103BA0003093010320930003809148038860809341
:103BB0004803E0904303F0904403EC0FFD1FF093A3
:103BC0004003E0933F038FE393E0F8010995809170
:103BD000430390914403892B31F4E114F10419F06B
:103BE00081E080930203CDB7DEB7E6E00C944B2F63
:103BF000863049F4F0E0E656FD4FE491CE2FD0E058
:103C000008E018E1A0CF893051F4E695F0E0E956DC
:103C1000FD4FE491CE2FD0E007E419E194CF8F302F
:103C200051F4E695F0E0EC56FD4FE491CE2FD0E054
:103C300004E819E188CF853149F4F0E0EF56FD4FF3
:103C4000E491CE2FD0E001E11AE17DCFC8E2D0E0CF
:103C500006E91AE1883109F476CF833239F4EFE8C6
:103C6000F2E0C591D49108E118E16DCFC4EFD1E045
:103C700008E11BE1843209F466CFC0EDD7E008EB20
:103C800016E1853209F05FCF8E2F63E00E94882E07
:103C9000E92FF0E0E457FD4FE491CE2FD0E005E5A9
:103CA0001BE151CF08950E94841D0895FA018111EE
:103CB00001C0FB0109950895CF93DF93C82FD62F3C
:103CC0000E9453178C1748F00E9453178D1728F441
:103CD0000E94D51CDF91CF9108958C2F0E94E91C82
:103CE000F9CF1F93CF93DF93EC01FB0115811111E5
:103CF00010C00E94090C8272FE01E052F847E531C3
:103D0000F10508F05EC0EC56FF4C0C94EC2E0E94BE
:103D1000F71C812FDF91CF911F91089545EE5CE153
:103D200065ED7CE10E94561EF4CF45ED5CE165EE49
:103D30007CE1F8CF4BEF58E16CEE78E1F3CF4CEE3D
:103D400058E16BEF78E1EECF4DE159E16CE079E1BC
:103D5000E9CF4CE059E16DE179E1E4CF4FE359E17E
:103D60006EE279E1DFCF4EE259E16FE379E1DACF3C
:103D700048E957E168E777E1D5CF48E757E168E9D7
:103D800077E1D0CF81E00E94E91CC3CF65E082E0FB
:103D90000E945C1EBECF68E086E0FACF6EE089E04C
:103DA000F7CF64E18FE0F4CF67E185E1F1CF88E1FF
:103DB000EACF62E289E1ECCF83E2E5CF6AE285E215
:103DC000E7CF11E0A6CF8091B2038170089586E01D
:103DD00090E00E940F300895682F86E090E00E94E6
:103DE00033300895E2EBF3E0808184708961808351
:103DF0000E94EC1E08958091B20386958695869563
:103E000008950E94020D811104C00E94A20D0E941B
:103E1000F21E0E94E71E8093B203803320F0877069
:103E200088628093B2039091B203892F817090FFD2
:103E300004C0892F8695869586950E940520089551
:103E40008091B203982F969596959695953040F46B
:103E50009F5F990F990F990F8770892B8093B203F9
:103E60008091B20381608093B2030E94EC1E809126
:103E7000B2038695869586950E94052008958091C7
:103E8000B203982F987F79F088508093B203887F8F
:103E900091E009F490E08091B20390FB80F9809367
:103EA000B2030E94EC1E8091B2038695869586959A
:103EB0000E94052008958091B20380FD13C08160A7
:103EC0008093B203813019F489E08093B20380912A
:103ED000B2030E94EC1E8091B2038695869586956A
:103EE0000E94052008958091B20380FF08C08E7F54
:103EF0008093B2030E94EC1E80E00E94052008958A
:103F00008091B20380FF03C00E94731F08950E9436
:103F10005B1F08959091B203892F869586958695AB
:103F20008F5F8F7197708630E0F4880F880F880F4D
:103F3000892B8093B2038091B203887F91E009F4CA
:103F400090E08091B20390FB80F98093B2030E94CD
:103F5000EC1E8091B2038695869586950E94052079
:103F600008959093B203E7CF863008F085E09091F2
:103F7000B2039770282F220F220F220F922B9093BB
:103F8000B203987F21E009F420E09091B20320FB76
:103F900090F99093B2030E94052008950E94B41FE7
:103FA0008091B2030E94EC1E08959C01FB01858163
:103FB000882349F12230F8E73F07F9F040F4211552
:103FC000E8E73E0769F02130384779F0089524305A
:103FD00098E7390779F058F02530384789F0089587
:103FE00085E00E94CE1F80E0089580E0FACF0E9415
:103FF0003F1FF9CF0E94201FF6CF0E94801FF3CFF2
:104000000E948A1FF0CF81E008958F929F92AF9215
:10401000BF92EF92FF920F931F93CF93DF9386305F
:10402000B0F5811135C0909180009F77909380000A
:10403000A0918600B0918700282F30E00E94FA2ED0
:1040400025E030E040E050E00E94CA2E89019A014C
:1040500080918600909187006CE070E00E94A22E13
:1040600060177107C8F0C80169E070E00E94A22ED5
:104070007093890060938800DF91CF911F910F9119
:10408000FF90EF90BF90AF909F908F90089585E044
:10409000909180009068CACF8091860090918700AF
:1040A000E0908600F0908700E0918600F091870014
:1040B000C6E0D0E0BE010E94A22E060F171F211DF0
:1040C000311D4801590185E0880C991CAA1CBB1CB4
:1040D0008A95D1F7C701BE010E94A22E9F0150E030
:1040E00040E0260F371F411D511DC501B4010E943C
:1040F000CA2E49015A01E0918600F0918700CA0159
:10410000B9010E94782E9B01AC01DF010E94102FA3
:104110009B01AC01C501B4010E94782E2FE0969559
:104120008795779567952A95D1F70091860010912C
:10413000870030E020E0061717072807390708F046
:1041400097CF609186007091870092CF0895259A4D
:104150002D9882E88093800089E1809381008FEF21
:104160009FEF90938700809386000E94011F08951F
:104170008FE891E00197F1F700C00000089581E019
:1041800008950E94291308950F931F93CF93DF93EF
:104190009091110181E0982790934D03282F291BBE
:1041A00020934C039091110180934E039091110143
:1041B00080934B0380911101811106C087EF80939A
:1041C0005E0186EF80935D0120915E01E22FE29512
:1041D000EF70F0E061A12F7081E090E0AC0101C0D0
:1041E000440F2A95EAF7342F3095362331A322A1C4
:1041F000242B22A320915D01E22FE295EF70F0E0E5
:1042000031A12F7001C0880F2A95EAF7982F909559
:10421000932391A392A1892B82A30E94B82060913D
:104220004E0341E553E0CEE5D1E00DE511E0FA01A2
:1042300026C02991822F82958F7090E0DC019096A4
:104240008C9190E02F7002C0959587952A95E2F7A2
:104250008170D8019D918D01292F22952F7030E01A
:10426000D90190962C9130E09F7002C0359527952A
:104270009A95E2F790E020FD92E0892B81938E2FB2
:10428000841B8617B0F2DF91CF911F910F91089593
:10429000B0E0A0E0EEE4F1E20C942D2F10E000E09D
:1042A00084E0C82ED12C80914E03181730F0802F57
:1042B000CDB7DEB7E8E00C94492FC12FD0E0FE0166
:1042C000E25AFE4F8081E82FE295EF70F0E0E0A126
:1042D000F0E08F7002C0F595E7958A95E2F7E170FE
:1042E000DE01A35ABE4F4C91A42FA295AF70B0E04F
:1042F00090968C9190E04F7002C0959587954A9565
:10430000E2F780FD4DC080E08E2BDE01AF5ABC4F3E
:10431000EC919E2F9370981709F440C0EE0FEE0FAA
:10432000E82BEC93E0904D03E10EEF70F0E0EC5ED3
:10433000FD4FC15BDC4F80819881890F8883F12C10
:10434000843084F0EE2DF0E0E75BFC4F80818F5FDE
:1043500080830E94C120F82E882321F160E08E2DF9
:104360000E94070388818D3F84F4EE2DF0E0E75B27
:10437000FC4F8081815080830E94C120F82E8823C9
:10438000A1F061E08E2D0E9407038881082E000CA9
:10439000990BB6010E94B62E88830F291F5F83CF29
:1043A00082E0B2CFFF24F394DDCFFF24F394EDCF6E
:1043B00040914E0350E060914D0370E0675B7C4F8D
:1043C0000E9406300895B0E0A0E0E9EEF1E20C941E
:1043D0002D2F6C01D0E080E090914B03D91740F075
:1043E00081110E94E20DCDB7DEB7E8E00C94492FB1
:1043F000F0904C03FD0E0F2D10E0075B1C4FF601F3
:10440000ED0FF11DC081F8019081C91BEC2E1E1427
:1044100044F09C2FC7FD90E0C91BC1110DC0DF5FA8
:10442000DBCFEA94F80180818F5F808360E08F2D7D
:104430000E94070381E0EBCFCF5FF80180818150BC
:10444000808361E08F2D0E94070381E0E6CF569ABA
:104450004BB14F7B5BB15064EFB7F8949B01220FD7
:10446000331F260F371F280F391F2817390741F42C
:10447000EFBF8FE594E00197F1F700C000000895C9
:10448000DC016D91CD0178E05BB9000000C067FFF1
:104490004BB9660F000000C000C000C04BB900C09F
:1044A0007A9591F7E2CF0895FC01680F791F8FEF9D
:1044B00091E3E617F70709F408952191822728E090
:1044C00030E087FF06C0880F892721503109C9F7DE
:1044D000F0CF880FFACFCF93DF93EB0186319C4763
:1044E00011F50E94090C9D81992399F08A7A91E037
:1044F00009F490E090935303811109C089E20E946E
:10450000D7240E94980C80E0DF91CF91089585E335
:10451000F6CF80915303811104C089E20E94DF2409
:10452000F0CF85E3FBCF81E0EFCFCF93DF93EC01BA
:10453000FB018581882309F4D2C09E0130572332C4
:10454000310508F0B2C00E94170D90936F0380935D
:104550006E03FE01E150F047E232F10520F4E75529
:10456000FF4C0C94EC2E80916E03816080936E035F
:1045700093C080916F03886080936F038DC080919A
:104580006E038260F3CF80916E038460EFCF8091E1
:104590006E038860EBCF80916F038160EDCF8091D7
:1045A0006F038260E9CF80916E038061DFCF8091DD
:1045B0006E038062DBCF80916E038064D7CF0E9450
:1045C0008D0780916E038068D1CF80916E038C60DF
:1045D000CDCF80916F038360CFCF80916E038E7FAC
:1045E000C5CF80916F03877FC7CF80916E038D7F8A
:1045F000BDCF80916E038B7FB9CF80916E03877F93
:10460000B5CF80916F038E7FB7CF80916F038D7F81
:10461000B3CF80916E038F7EA9CF80916E038F7D83
:10462000A5CF80916E038F7BA1CF0E948D078091D3
:104630006E038F779BCF80916E03837F97CF80919E
:104640006F038C7F99CF80916E0382FB992790F93D
:1046500021E0922790FB82F990FB83F987CF80912C
:104660006F03982F909591708E7F892B90FB81F925
:1046700083CF90916E03892F8F7B96FF806476CFD6
:104680000E948D0790916E03892F97FB87F98058C0
:104690006DCF81E00E94A50D80916E0390916F0314
:1046A0000E941C0D0E948D0780E0DF91CF9108953C
:1046B00080E0F0CF90916E03892F8F7E94FF806110
:1046C00055CF90916E03892F8E7F90FF81604ECFE2
:1046D00090916F03892F877F93FF88604DCF81E092
:1046E000E4CF0F931F93CF93DF93C42FD22FFC01FE
:1046F00085818823C9F0409356030E9497259093A3
:1047000055038093540380E28C0F883040F4C770C7
:1047100081E001C0880FCA95EAF70E944005DF9149
:10472000CF911F910F91089510915603141332C029
:1047300080915403909155030E94AF25883C9105C8
:1047400048F5C0E2CD0F1D17B9F080E2810F883027
:1047500040F4177081E001C0880F1A95EAF70E94B3
:104760004705C83048F481E09D2F977001C0880F3D
:104770009A95EAF70E944005802F0E943705C830BD
:1047800070F6D77081E001C0880FDA95EAF70E94D1
:104790004705C5CF80E28C0F883008F6C77081E0EE
:1047A00001C0880FCA95EAF7F2CF0F93DB01885159
:1047B0009C4787309105A0F5FC01E553FF4C0C9414
:1047C000EC2E06E221EE41EE6AE17CE7CD010E948B
:1047D000712380E00F91089507E225EE45EE6BE12D
:1047E0007CE7F4CF06E221EE40EE68E17CE7EECF15
:1047F00007E225EE44EE69E17CE7E8CF06E221EE30
:1048000042EE6CE17CE7E2CF07E225EE46EE6DE199
:104810007CE7DCCF08E221E045EE6EE17CE7D6CF15
:1048200015968C91882319F010925603D3CF81E00E
:10483000D1CF90935D0380935C0308950E94291368
:10484000811103C0809157030895E0915C03F091BA
:104850005D03309729F00190F081E02D09950895CE
:1048600080E00895E0915C03F0915D03309721F0C2
:104870000280F381E02D09950895A3E0B0E0E3E420
:10488000F4E20C94332F20915A0330915B032817E4
:104890003907A1F090935B0380935A03E0915C0386
:1048A000F0915D03309751F023E029839B838A8345
:1048B0000084F185E02DCE01019609952396E2E072
:1048C0000C944F2FA3E0B0E0E8E6F4E20C94332F11
:1048D000209158033091590328173907A1F090937C
:1048E000590380935803E0915C03F0915D03309786
:1048F00051F024E029839B838A830084F185E02D95
:10490000CE01019609952396E2E00C944F2F409139
:104910000401509105019A012E5F3F4F485F5F4FA0
:1049200080E02417350709F40895F90191919F015A
:104930009923B9F38F5FF5CF882371F0209104019B
:1049400030910501F9013296285F3F4F91919817F8
:1049500029F0E217F307D1F780E0089581E0089588
:104960009C01FC0132969FEF80E04191461751F087
:104970009F3F19F4411101C0982F8F5F8630A9F72E
:104980009F3F09F40895290F311D97FD3A95F901CC
:1049900062830895FC01329608962191261303C084
:1049A000DF0111971C92E817F907B9F70895682FEE
:1049B00080910401909105010E94B0240895682F10
:1049C00080910401909105010E94CA240895E0910C
:1049D0000401F0910501329686E0DF011D928A956F
:1049E000E9F7089508950E94F2240895811106C000
:1049F00081E080935E030E94F324089582E0F9CF62
:104A000083E080935E030E94F32408950E94F624BD
:104A1000089581E080935E030E94F32408950E942C
:104A200009250895089508950E941325089508956D
:104A300008950E9412250895CF930E9417250E9481
:104A400096120E941825C0E08C2F0E943811811107
:104A500005C0CF5FCA30C1F7CF91089581E0FCCF88
:104A600085B7806885BF85B7806885BF08951F9228
:104A70001FB61F9211248F939F93AF93BF93809182
:104A80005F03811113C08091B3039091B403A0918F
:104A9000B503B091B6034196A11DB11D8093B30338
:104AA0009093B403A093B503B093B603BF91AF91B5
:104AB0009F918F911F901FBE1F9018958091BB03EF
:104AC000843031F10E942E0410925F0388E190E05F
:104AD00020E40FB6F894A895809360000FBE209351
:104AE000600083B7817F846083BF83B7816083BFA9
:104AF0007894889583B78E7F83BF0FB6F894A89576
:104B000080916000886180936000109260000FBE09
:104B100008950E948D070E943604089582E084BDA6
:104B200093E095BD9AEF97BD80936E0008952FB7DF
:104B3000F8948091B3039091B403A091B503B09120
:104B4000B6032FBF08952FB7F8946091B303709107
:104B5000B4038091B5039091B6032FBF08959C01D3
:104B60004FB7F8948091B3039091B403A091B5032B
:104B7000B091B6034FBF821B930B0895CF92DF9283
:104B8000EF92FF922FB7F894C090B303D090B40384
:104B9000E090B503F090B6032FBFA7019601261B46
:104BA000370B480B590BCA01B901FF90EF90DF900A
:104BB000CF90089578941F921FB61F9211248F935F
:104BC0009F93AF93BF938091B3039091B403A0914F
:104BD000B503B091B6030196A11DB11D8093B30337
:104BE0009093B403A093B503B093B603BF91AF9174
:104BF0009F918F911F901FBE1F90189581E0809309
:104C0000E00080E28093D8001092C9008FE19EE41A
:104C10000197F1F700C0000087E090EBDC01809382
:104C2000C4039093C503A093C603B093C70388E160
:104C30009CE00FB6F894A895809360000FBE909307
:104C40006000FFCF88E19CE00FB6F894A8958093B0
:104C500060000FBE90936000FFCF8EE1489B02C0C2
:104C60008150E1F7489BFECF0895589880E28A95DD
:104C7000F1F7589A0895FC013BE03A95F1F798E076
:104C800020E080E031E040E14A95F1F7880F489B51
:104C900002C08160232742E04A95F1F7000040E11D
:104CA0004A95F1F7915079F790E19A95F1F799B11A
:104CB00032E03A95F1F7000040E14A95F1F7917042
:104CC00092272081920F90830895A1E0B0E0EBE657
:104CD000F6E20C942F2F19828C017C01E60EF11C58
:104CE0000E151F0541F481E09981911180E0219614
:104CF000E6E00C944B2F0E942D26CE0101960E94D7
:104D00003B26F80181938F01EBCF509A589A089572
:104D10005098589AE89AE9E6F0E080818C7F808389
:104D200008956150770B91E001C0990F6A95EAF7F9
:104D300020E031E0911108C0222391F0589A80E2DE
:104D40008A95F1F758980895492F482339F0589AD1
:104D5000232740E24A95F1F79695ECCF5898F9CF82
:104D60005898EDCFFF920F931F93CF93DF93EC01F1
:104D70008C01060F111DC017D10729F4CDB7DEB77E
:104D8000E5E00C944C2FF9900E94352668E08F2DB9
:104D90000E949126F0CF1F920F920FB60F9211240E
:104DA0000F931F932F933F934F935F936F937F9333
:104DB0008F939F93AF93BF93EF93FF93CF93DF9323
:104DC0000F92CDB7DEB719820E942D26CE01019633
:104DD0000E943B26082F069506950695282F2295BA
:104DE0002570902F9570290F922F937026952695F8
:104DF000920F982797708981982B09F05CC0083032
:104E000008F059C080E18A95F1F7589A509A82E0EB
:104E10008A95F1F700C0589888E0089F8001112416
:104E2000D801AE5EBE4F1696ED91FC911797309764
:104E3000A9F06091E7017091E80114962D913C91E1
:104E40001597260F371F11968D919C911297680F19
:104E5000791F13964C9113978C910995F801EE5E8A
:104E6000FE4F6381662351F02091E7013091E80104
:104E700084819581820F931F0E94B2260E9435265D
:104E800080E18A95F1F758985098589A80E18A9570
:104E9000F1F7F801EE5EFE4F6081662351F020913C
:104EA000E7013091E80181819281820F931F0E9476
:104EB00065260E942D260F90DF91CF91FF91EF91F3
:104EC000BF91AF919F918F917F916F915F914F9122
:104ED0003F912F911F910F910F900FBE0F901F9038
:104EE00018950F931F93CF93DF93EC0108970CF065
:104EF0004CC0F894509A589885E08A95F1F70000D4
:104F00009C2F969595708C2F8570980F892F8370A4
:104F10009695969523E0CC0FDD1F2A95E1F7980F23
:104F20008E01092B0E94352600C068E0802F0E9468
:104F3000912680E18A95F1F75098589A489B1EC0B7
:104F400087E090E048991CC0FE01EE5EFE4F638151
:104F50006623F9F02091E7013091E8018481958181
:104F6000820F931F0E946526811113C0509A589A90
:104F70007894DF91CF911F910F91089500C0DECFFB
:104F8000019729F4509A589A789480E0F2CF00C0A3
:104F9000D9CF0E942D2680E28A95F1F75898509A31
:104FA00080E18A95F1F7CE5EDE4F6881662351F08D
:104FB0002091E7013091E80189819A81820F931F46
:104FC0000E94B2260E943526789481E0D2CF80914B
:104FD00068030895089508959B01BA019091BB0359
:104FE0009430E9F48F708093E9009FEF8091E8009E
:104FF000915085FD06C085ED8A95F1F7000091116D
:10500000F5CF8091E80085FF0AC050E040E0C9017B
:105010000E94DF298091E8008E778093E800089550
:1050200043E050E0BC0182E00E94EC270895CF935A
:10503000DF93EC0148E050E0BC0181E00E94EC27E6
:1050400088E0FE01A0E6B3E001900D928A95E1F7B9
:10505000DF91CF9108958091BA03811109C00E9418
:105060006F2B0E94CC2B8091E20084608093E20041
:1050700008951092BA0308950E9409250895609139
:10508000B70381E0611101C080E00E94002508950E
:105090009091BB0381E0943009F080E06091B70308
:1050A0000E940625089542E061EC81E00E94EB2A0F
:1050B00042E261EC82E00E94EB2A9091BB0381E026
:1050C000943009F080E06091B7030E94F6240895BF
:1050D0008091BD03833009F461C030F48130D1F197
:1050E000823009F49EC008958A3009F48AC08B305A
:1050F00009F46FC0893009F050C08091BC0381323F
:1051000009F04BC08091C0039091C103029708F051
:1051100044C08091E800877F8093E8008091E80098
:1051200082FF37C09091F3008091F200029731F432
:105130008091F100813011F0863021F48091F100EE
:10514000809368038091E8008B778093E8000E9449
:105150001F2B23C08091BC03813AF9F48091E800B1
:10516000877F8093E8008091C0039091C103892BD1
:1051700061F468E080E693E070E00E942E2A80915E
:10518000E8008B778093E800089560E090E080E08D
:10519000F3CF8091BB038111C1CF08958091BC03EF
:1051A000813AD9F78091C0039091C103892BA9F767
:1051B0008091E800877F8093E8008091E80080FF7D
:1051C000FCCF809169018093F1008091E8008E7797
:1051D000BCCF8091BC03813201F78091C0039091D4
:1051E000C103892BD1F68091E800877F8093E80086
:1051F0000E941F2B8091BE03809369010E948D073E
:1052000008958091BC03813241F68091E800877F48
:105210008093E8000E941F2B8091BF038093690355
:1052200008958091BC03813A09F0B7CF8091E800DE
:10523000877F8093E8008091E80080FFFCCF809119
:105240006903C1CF84B7877F84BF0FB6F894A89550
:1052500080916000886180936000109260000FBEB2
:1052600080E890E00FB6F89480936100909361001D
:105270000FBE0E940F2508950E946F2B0E94CC2B19
:10528000E2EEF0E080818460808378940E944B2E6F
:1052900008958FE591E00E94192408958091BB0341
:1052A000853031F48091BB03853019F00E94892547
:1052B00008950E945E258091B903882399F30E9486
:1052C0001C25882379F30E94C9290E948D07EACF03
:1052D00008959A014091C2035091C3030E9471291D
:1052E0000895492F55274330510519F168F441308D
:1052F000510509F444C04230510509F445C090E01D
:1053000080E050E040E025C04132510549F1423291
:105310005105A9F784E490E045E555E06115710574
:10532000C1F082E390E043E255E06130710589F01D
:10533000E6CF99278130910581F0009729F00297F7
:10534000F1F6E6EAF4E002C0E2EDF4E0849190E0E8
:10535000AF01F901518340830895E2ECF4E0F6CF08
:1053600089E090E048EE54E06115710591F389E021
:1053700090E041E055E06130710559F3C0CF82E122
:1053800090E041E155E0E5CF8BE390E046ED54E05D
:10539000E0CF80E189BD82E189BD09B400FEFDCF87
:1053A0008091D8008F7D8093D8008091E00082604A
:1053B0008093E0008091E00081FDFCCF0895AF92E2
:1053C000BF92CF92DF92FF920F931F93CF93DF9301
:1053D0006C01EB018A010E943E2BF82E811123C043
:1053E0000115110539F0F80180819181C81BD90B95
:1053F000C80ED91EB12CA12C2097A9F08091E800ED
:1054000085FD22C08091E8008E778093E800011529
:105410001105A1F0F80180819181A80EB91EB18219
:10542000A08285E0F82E8F2DDF91CF911F910F91F3
:10543000FF90DF90CF90BF90AF9008950E943E2BD9
:105440008823D1F2F82EEFCFF60181916F0180937E
:10545000F1002197FFEFAF1ABF0ACECFFC01809178
:10546000C2039091C30386179707A0F061157105D9
:1054700029F49091E8009E779093E80090E0611500
:10548000710551F4911108C08091E80082FF34C089
:1054900080E00895BC01F2CF8091BB038823C1F165
:1054A0008530C1F18091E80083FD30C08091E80033
:1054B00082FDEACF8091E80080FFE1CF8091F30088
:1054C0002091F200382F6115710519F0283031054F
:1054D00058F091E02830310509F090E02091E80083
:1054E0002E772093E800CBCF81918093F10061501B
:1054F00071092F5F3F4FE7CF8091BB03882341F0B5
:10550000853041F08091E80083FFBECF81E00895AF
:1055100082E0089583E00895FC018091C203909198
:10552000C30386179707A0F06115710529F48091D0
:10553000E8008E778093E80090E06115710551F4E2
:10554000911108C08091E80082FF35C080E0089585
:10555000BC01F2CF8091BB038823C9F18530C9F12A
:105560008091E80083FD31C08091E80082FDEACFA0
:105570008091E80080FFE1CF8091F3002091F2005C
:10558000382F6115710519F02830310558F091E078
:105590002830310509F090E08091E8008E77809303
:1055A000E800CBCF84918093F1003196615071096E
:1055B0002F5F3F4FE6CF8091BB03882341F08530BA
:1055C00041F08091E80083FFBDCF81E0089582E043
:1055D000089583E00895982F973028F08F70809376
:1055E000E90081E008959093E900242F762F50E0A0
:1055F000981731F07091EC002091ED005091F0007F
:1056000021FD02C09F5FE8CF3091EB003E7F3093D9
:10561000EB003091ED003D7F3093ED003091EB00D9
:1056200031603093EB007093EC002093ED005093C9
:10563000F0002091EE0027FDE5CF80E008958091F5
:10564000BC0387FF13C08091E80082FF06C08091F1
:10565000E8008B778093E80004C08091BB03811140
:10566000F2CF08958091BB038823D9F38091E8009D
:1056700080FFF8CF8091E8008E77ECCF2091E40096
:105680003091E50095E6A9012091EC00822F817010
:1056900020FF06C08091E80080FF06C080E00895EA
:1056A0002091E80022FD1AC08091BB03882389F075
:1056B000853089F08091EB0085FD0FC02091E400DA
:1056C0003091E50042175307F9F29150E1F684E07A
:1056D000089582E0089583E0089581E008950E948E
:1056E000DE2B0E94E62BE0EEF0E08081816080837B
:1056F000E8EDF0E080818F77808319BCA7EDB0E002
:105700008C918E7F8C9380818F7E80831092BA03E0
:1057100008950F931F93CF93DF930E94DE2B0E9477
:10572000E62BC8EDD0E088818F77888388818068F8
:10573000888388818F7D888319BC1092BB03109267
:10574000B7031092B9031092B80300EE10E0F8010D
:1057500080818B7F808388818160888342E060E0E4
:1057600080E00E94EB2AE1EEF0E080818E7F808372
:10577000E2EEF0E0808181608083808188608083B8
:10578000F80180818E7F8083888180618883DF91AA
:10579000CF911F910F910895E8EDF0E080818F7E09
:1057A0008083E7EDF0E080818160808384E082BFC8
:1057B00081E08093BA030E94892B0895E8EDF0E020
:1057C00080818E7F80831092E20008951092DA002B
:1057D0001092E10008951F920F920FB60F921124BC
:1057E0002F933F934F935F936F937F938F939F93E9
:1057F000AF93BF93EF93FF938091E10082FF0BC0C3
:105800008091E20082FF07C08091E1008B7F80934E
:10581000E1000E944A2E8091DA0080FF19C0809139
:10582000D80080FF15C08091DA008E7F8093DA0067
:105830008091D90080FF96C080E189BD82E189BD59
:1058400009B400FEFDCF81E08093BB030E942B28AA
:105850008091E10080FF19C08091E20080FF15C0B7
:105860008091E2008E7F8093E2008091E20080616F
:105870008093E2008091D80080628093D80019BCA8
:1058800085E08093BB030E943F288091E10084FF64
:105890002BC08091E20084FF27C080E189BD82E1B6
:1058A00089BD89B5982F917080FFFBCF8091D8007A
:1058B0008F7D8093D8008091E1008F7E8093E100FE
:1058C0008091E2008F7E8093E2008091E20081600F
:1058D0008093E2008091B703882309F449C084E0F3
:1058E0008093BB030E9448288091E10083FF29C078
:1058F0008091E20083FF25C08091E100877F809343
:10590000E10082E08093BB031092B7038091E10035
:105910008E7F8093E1008091E2008E7F8093E20091
:105920008091E20080618093E20042E060E080E0EC
:105930000E94EB2A8091F00088608093F0000E9422
:105940003C28FF91EF91BF91AF919F918F917F91F3
:105950006F915F914F913F912F910F900FBE0F90DC
:105960001F90189519BC1092BB030E94392870CF64
:105970008091E30087FD93E09093BB03B3CF1F9228
:105980000F920FB60F9211242F933F934F935F9373
:105990006F937F938F939F93AF93BF93CF93DF9337
:1059A000EF93FF93D091E900DF708091EC00C82F56
:1059B000C17080FDC0E81092E9008091F000877FFF
:1059C0008093F00078940E94032D1092E90080915A
:1059D000F00088608093F000CD2BCF70C093E90079
:1059E000FF91EF91DF91CF91BF91AF919F918F91F7
:1059F0007F916F915F914F913F912F910F900FBECB
:105A00000F901F901895AAE2B0E0E9E0FDE20C9437
:105A1000322F8CEB93E02091F100FC012193CF0118
:105A2000F3E0843C9F07B9F70E9468288091E80062
:105A300083FF1EC18091BC039091BD039A3008F092
:105A400017C1E92FF0E0EE52FF4C0C94EC2E803899
:105A500099F0823809F00CC18091C0038F708730B3
:105A600008F006C18093E9008091EB0085FB882750
:105A700080F91092E90006C08091B8039091B903B3
:105A8000911182609091E800977F9093E800809355
:105A9000F1001092F1008091E8008E77E5C0882334
:105AA00009F4D3C0823009F0E3C08091BE038111B4
:105AB000D6C08091C0038F702FEF280F263008F0DA
:105AC000D7C08093E9002091EB0020FFC8C093303D
:105AD00031F48091EB0080628093EB00C0C0909124
