:100000000C94B5020C94852A0C94ED020C94ED022C
:100010000C94ED020C94ED020C94ED020C94ED02A4
:100020000C94ED020C94ED020C94A52F0C947830F6
:100030000C94D8280C94ED020C94ED020C94ED0273
:100040000C94ED020C94ED020C94ED020C94ED0274
:100050000C94ED020C9490290C94ED020C94ED029A
:100060000C94ED020C94ED020C94ED020C94ED0254
:100070000C94ED020C94ED020C94ED020C94ED0244
:100080000C94ED020C94ED020C94ED020C94ED0234
:100090000C94ED020C94ED020C94ED020C94ED0224
:1000A0000C94ED020C94ED020C94ED0229001E005C
:1000B0001F002000210022002B0014001A0008005D
:1000C00015001700E10004001600070009000A00EF
:1000D000E0001D001B0006001900050000000000E4
:1000E000E20021522C002F002A00270026002500C4
:1000F000240023003100130012000C0018001C0023
:10010000340033000F000E000D000B0028003800F3
:10011000370036001000110000000000E7002252F6
:100120002C0030003500000000000000000000003E
:100130003502000000005200000000000000000036
:10014000500051004F0000000000000000000000BF
:10015000000000000000000000000000000000009F
:100160002A002E002D00000000000000000000000A
:100170000000000000000000000000004F005200DE
:1001800051005000000000000000000000000000CE
:100190000000000000000000000000003A003B00EA
:1001A0003C003D003E003F00000000000000520007
:1001B0000000007800000000500051004F0001785E
:1001C000000000000000000000000000000000002F
:1001D0000000000000000000450044004300420011
:1001E000410040004C000000000000000000000042
:1001F0004A000000000000000000AC004D000000BC
:10020000A900AA00A800AB00000000000000000048
:10021000000000001E0F0500047F3F1F64321464BD
:100220003214783C1E1E140A052223252628292A6A
:100230002C2D2F3032333536383A3B3D3E40424349
:100240004547494A4C4E5051535557595A5C5E6088
:1002500062646668696B6D6F71737577797B7D7F9A
:1002600081838587898A8C8E90929496989A9C9E99
:100270009FA1A3A5A7A8AAACAEAFB1B3B4B6B8B9B5
:10028000BBBCBEBFC1C2C3C5C6C7C9CACBCCCDCE1D
:10029000D0D1D2D2D3D4D5D6D7D7D8D9D9DADADB00
:1002A000DBDBDCDCDCDCDCDDDDDDDDDCDCDCDCDC8C
:1002B000DBDBDBDADAD9D9D8D7D7D6D5D4D3D2D2CB
:1002C000D1D0CECDCCCBCAC9C7C6C5C3C2C1BFBEB3
:1002D000BCBBB9B8B6B4B3B1AFAEACAAA8A7A5A31E
:1002E000A19F9E9C9A98969492908E8C8A898785DD
:1002F00083817F7D7B79777573716F6D6B696866BC
:100300006462605E5C5A5957555351504E4C4A498D
:1003100047454342403E3D3B3A3836353332302F35
:100320002D2C2A292826252322FFAA7F55400001AB
:1003300001010101010101010202020202020202A5
:100340000203030303030303030404040404040477
:10035000050505050506060606060707070707083B
:10036000080808090909090A0A0A0B0B0B0C0C0CEE
:100370000D0D0D0E0E0E0F0F0F1010111111121288
:1003800013131414151516161717181819191A1A05
:100390001B1B1C1D1D1E1E1F202021222223242466
:1003A000252626272829292A2B2C2D2D2E2F3031A2
:1003B0003232333435363738393A3B3C3D3E3F40B4
:1003C0004142434445464748494A4C4D4E4F50519F
:1003D0005354555658595A5B5D5E5F616264656659
:1003E00068696B6C6D6F7072737577787A7B7D7EE0
:1003F0008082838587888A8C8E8F91939596989A30
:100400009C9EA0A2A3A5A7A9ABADAFB1B3B5B7BA47
:10041000BCBEC0C2C4C6C9CBCDCFD1D4D6D8DBDD1B
:10042000DFE2E4E7E9EBEEF0F3F5F8FAFDFF1A039B
:1004300049007200690073002000520065007600D8
:100440002E0020003500610000000E034B00650007
:100450006500620069006F000000040309040902DE
:100460003B00020100A0FA090400000103010100A1
:100470000921110100012244000705810308000140
:1004800009040100010300000009211101000122FB
:100490007B0007058203200001120100020000001A
:1004A0000810CB565310050102000105010902A1F5
:1004B0000185020901A10005091901290815002576
:1004C0000195087501810205010930093115812561
:1004D0007F95027508810609381581257F9501757C
:1004E000088106050C0A38021581257F95017508DB
:1004F0008106C0C005010980A101850319012AB741
:1005000000150126B700950175108100C0050C0982
:1005100001A101850419012AA002150126A0029556
:100520000175108100C005010906A101050719E048
:1005300029E71500250195087501810295017508C7
:1005400081010507190029FF150026FF0095067592
:100550000881000508190129051500250195057573
:10056000019102950175039101C011241FBECFEFC7
:10057000DAE0DEBFCDBF04B603FE18C08091D5031C
:100580009091D603A091D703B091D8038730904BB8
:10059000A740B04B59F41092D5031092D603109295
:1005A000D7031092D803E0E0F8E3099512E0A0E049
:1005B000B1E0E6E5F9E602C005900D92A832B10778
:1005C000D9F723E0A8E2B2E001C01D92A53DB20731
:1005D000E1F70E9485160C9443340C940000CF93ED
:1005E000DF93D82FC62F0E947821882341F0D111A4
:1005F0000AC089EAC11101C08AEA0E943E0580E072
:10060000DF91CF910895D130D1F78EE4C111F5CFAC
:100610008BE4F3CF8330B8F46A30A8F4463098F412
:10062000E42FF0E096E0699FE00DF11D11249CE3BA
:10063000899FE00DF11D1124EE0FFF1FE455FF4FC0
:1006400085919491089581E090E008950E940A03B5
:10065000089581E008950E942903089581E0089596
:100660000E94290308950E943003089508950E946E
:1006700036030895A6E0B0E0E0E4F3E00C94EF3236
:1006800049835A839E8330912F0289819A81311147
:100690001AC03E81332399F0222389F00E94F90881
:1006A000182F682F89819A810E94D50869817A81E3
:1006B000812F0E94D20F2696E3E00C940B330E9408
:1006C000E708182FF3CF0E94F90869817A81F1CFEA
:1006D000FC01262F40815181628173818481958143
:1006E0000E943A030895CF93DF93D82FC92F61E07A
:1006F0000E9468036D2F7C2F0E942B03DF91CF9106
:100700000895CF93DF93D82FC92F60E00E9468032C
:100710006D2F7C2F0E943703DF91CF91089581E0E8
:1007200008950E948F030895CF93C82F0E94A707B2
:100730008C2F0E9491032FEF84E39CE02150804096
:100740009040E1F700C00000CF91089581E00E9441
:1007500094030E94B429089580E00E9494030E94AB
:10076000D82908950F931F93CF93DF938C0161E0F5
:100770000E946803EC01F801858181110E94F31E3B
:10078000B801CE010E943303882309F442C0B801A6
:10079000CE010E9473208823E1F1B801CE010E94AE
:1007A0003E278823B1F1B801CE010E945D23882342
:1007B00081F1B801CE010E943223882351F1B801A2
:1007C000CE010E94131F882321F1F801858188231F
:1007D00081F0CA35FCE7DF0739F178F4C130ECE786
:1007E000DE07F9F0C330FCE7DF07C9F0C115DC47CD
:1007F00071F0C8010E942E030DC0CB35ECE7DE0777
:10080000B1F0CC35DC47A9F70E94FB0CF2CF0E9477
:10081000A60380E0DF91CF911F910F9108950E9470
:100820000D0D0E94AC03F5CF0E94050DE2CF0E9492
:10083000090DDFCF0E94B52880E00E9452200E945F
:10084000460408950E94A31F0E944A040E94BA28E9
:100850000895089581E008950895CF93DF93D82FE8
:100860000E942A04C82F882319F08D2F0E942C047F
:100870008C2FDF91CF9108950895CF93C82F0E94B8
:1008800029048C2F0E942D04CF91089580E00E94AE
:100890003D0408950E9484270E943D040895CF934B
:1008A0000E948427C82F80912A028C1779F0C09368
:1008B0002A020E94442960932B0270932C02809399
:1008C0002D0290932E028C2F0E943D04CF9108950B
:1008D000ADE0B0E0EEE6F4E00C94F03248875987E2
:1008E0006A877B878C879D8791110E94380C1F82B5
:1008F00086E0FE013896DE01119601900D928A95F0
:10090000E1F78D8181110DC029813A814B815C8194
:100910006D817E818F810E947E0B2D96E2E00C948A
:100920000C33CE0101960E9473038111EDCFF5CFF8
:10093000FC018481813021F4808191810E942B0906
:100940000895662329F00E94CB240E94A1250895D2
:100950000E942925FACFCF93C82F882399F08CEFD6
:100960008C0F813A88F48C2F0E941228882329F05A
:100970008C2F0E9457280E94A90C8C2F0E944F2870
:100980000E94A90CCF91089580E28C0F883048F422
:10099000C77081E001C0880FCA95EAF70E94190C60
:1009A000EFCF8BE58C0F833038F42C2F2452330B90
:1009B000C9010E94B227E6CFE8E5EC0FEB3150F415
:1009C000F0E0EE0FFF1FEE58FE4F808191810E94F4
:1009D000D827D8CF83E38C0F8331A0F661E08C2F2A
:1009E0000E94A104CFCF882381F19CEF980F913A08
:1009F00028F40E9457280E94A90C089590E2980FAD
:100A0000983050F4877091E001C0990F8A95EAF709
:100A1000892F0E941F0CEFCF9BE5980F933028F48D
:100A200080E090E00E94B227089598E5980F9B31EE
:100A300028F480E090E00E94D827089593E3980F6F
:100A4000933118F460E00E94A10408951F93CF939E
:100A5000DF93182FEB010E94AB04209739F4812F0C
:100A60000E94F304DF91CF911F9108958FE99FE0D9
:100A70000197F1F700C000002197EFCF60E070E030
:100A8000893311F460E570E00E94260508958823FB
:100A900021F00E94190C0E94A90C0895882321F0CE
:100AA0000E941F0C0E94A90C0895A0E0B0E0EBE5A5
:100AB000F5E00C94EA326C01D62FC72FFC011581AA
:100AC000068102950F700E940E0CE82E8823F9F023
:100AD000E12E1123E1F08C2F807F803461F080E2E1
:100AE0008D0F8830F0F08C2F807E803221F4D23050
:100AF000C0F00023B1F08091800382FF12C082E039
:100B00000E94CE0C0E940E0C91E0E82EE926EC2FFC
:100B1000E295EF70C03CB0F5F0E0EB5BFB4C0C9461
:100B2000A932E12CF4CF0C2F0F70C03110F00295D8
:100B3000007F112399F0002359F080E28D0F883057
:100B400010F0D11107C0802F0E94190C0E94A90C2F
:100B50008D2F51C0802F0E942A0CF8CF8D2F0E941C
:100B6000F304002379F080E28D0F883010F0D1116A
:100B700004C0802F0E941F0C03C0802F0E94300CE5
:100B80000E94A90CEE2089F00E940A0C80FD0DC085
:100B9000F60115820E94040C0E943208C6010E94D0
:100BA0006E070E94040C0E944208CDB7DEB7E8E051
:100BB0000C940633FC2FFF70FF2EC07FC03219F05B
:100BC000F29480EFF822DD2341F0D130D1F11123EE
:100BD00009F444C00023F1F0BBCF8091800382FD73
:100BE00015C0112359F0FF2029F08F2D0E94190CF8
:100BF0000E94A90C80E00E94AB04C4CF80E00E9458
:100C0000F304FF2009F4BECF8F2DB4CF112369F078
:100C1000011104C08F2D0E944705B4CF013009F0A7
:100C2000B1CF8F2D0E94500CADCF0111ABCF8F2DC6
:100C30000E944E058F2D0E945C0C8F2D0E943F0C50
:100C4000A1CF112321F0063008F09CCFE3CF05306F
:100C500008F098CF8F2D0E944E0594CF0023D1F33A
:100C6000D93349F42FEF87EE93E021508040904034
:100C7000E1F700C000008D2F0E94F30483CF8C2F7A
:100C8000869586958370882369F0813009F07ACF44
:100C90008D2F9C2F9370111102C080E090E00E9474
:100CA000D82770CF8D2F9C2F9370111102C080E038
:100CB00090E00E94B22766CF612F8D2F0E94A10481
:100CC00061CF8C2F8370811139C0111129C04D2F34
:100CD000429546954770440F440F2D2F2F7030E0FA
:100CE000042E02C0220F331F0A94E2F780E090E046
:100CF000D4FF09C08FE090E002C0880F991F4A9589
:100D0000E2F780959095C695C695C370822B932B7C
:100D1000C23071F0C33079F0C13039F00E9402085E
:100D20000E9484270E943D042DCF0E94F907F8CF2E
:100D30000E940B08F5CF0E94F607F2CF112361F154
:100D4000C0FFEECF4D2F429546954770440F440F9C
:100D50002D2F2F7030E0042E02C0220F331F0A9473
:100D6000E2F780E090E0D4FF09C08FE090E002C09D
:100D7000880F991F4A95E2F780959095C695C6957C
:100D8000C370822B932BC23069F0C33071F0C13035
:100D900031F00E946D08C4CF823010F2D3CF0E9490
:100DA0006408BECF0E947608BBCF0E941A08B8CF55
:100DB000CF70112339F08C2F0E9432088D2F0E94A2
:100DC0004705AECF8D2F0E944E058C2F0E94420802
:100DD000A7CFD23F31F170F4D03FB9F0D13FB1F19C
:100DE000112309F451C0002309F44BC08D2F0E9438
:100DF000AB0496CFD33FE1F0D43F21F11111F3CFF3
:100E0000011150C08C2F8F71E1CF112341F00530BB
:100E100008F086CF8C2F8F710E94540881CF053047
:100E2000F7CF8C2F8F711111D1CF0E94320878CF5C
:100E3000112329F08C2F8F710E94260871CF0E94F8
:100E400021086ECF8091800382FD06C08C2F8F71A8
:100E5000112309F4BBCFE9CF112349F0CF718C2FB7
:100E60000E94320863E08C2F0E94B00C59CF81E0C1
:100E70000E94CE0C023008F453CF82E00E94CE0CC8
:100E80004FCF8C2F8F71D1CF002309F4BBCFD93333
:100E900049F4EFEFF7EE23E0E150F0402040E1F7B6
:100EA00000C000008D2F0E94F3043ACF0F931F93D0
:100EB000CF93DF93EC01688179818D810E9438099D
:100EC0008C010E947F080E94F507B801CE010E94A4
:100ED0005505DF91CF911F910F910895CF93DF9327
:100EE000EC018C81882399F0CE010E94B20381111C
:100EF00011C00E940E0C882351F08D81882339F097
:100F00008091800382FF03C082E00E94CE0CDF91BB
:100F1000CF910895CE010E945607CE010E94810311
:100F2000F6CF80E090E00E94B22780E090E00E943F
:100F3000D8270E94380C0E94A90C0E94BE250E944E
:100F4000A12508950E945F280E94910708950E949C
:100F5000270C0E94A2070895282F92959F70963023
:100F600091F060F4925F9F70923030F481E0203F06
:100F700079F030F4283E30F080E008959A5FF3CFA6
:100F8000243FD1F7089581E0283EE0F3213FF9CFD7
:100F90000895FC018481882339F0808191810E9429
:100FA0002B090E94AC07089580E00895A6E0B0E008
:100FB000ECEDF7E00C94F0322696E2E00C940C3362
:100FC000A7E0B0E0E6EEF7E00C94F0322796E2E01E
:100FD0000C940C3308950E94EA0708950E94EB07D1
:100FE0009093530280935202089508950E94EE0751
:100FF00008952091520230915302822B932B0E942C
:10100000EE070895209152023091530282239323D8
:101010000E94EE07089520915202309153028227D8
:1010200093270E94EE0708950E94EA0708950E9400
:10103000140808950E94170890935102809350025B
:10104000089580E090E00E941A08089521E030E0C1
:10105000A90102C0440F551F8A95E2F7CA010E94F8
:101060001A08089521E030E002C0220F331F8A954C
:10107000E2F78091500290915102822B932B0E94B3
:101080001A08089521E030E002C0220F331F8A952C
:10109000E2F7209530958091500290915102822381
:1010A00093230E941A08089521E030E002C0220F25
:1010B000331F8A95E2F78091500290915102822766
:1010C00093270E941A0808952091500230915102EE
:1010D000822B932B0E941A08089520915002309180
:1010E0005102822393230E941A08089520915002EE
:1010F00030915102822793270E941A08089508957B
:101100009B01677091E001C0990F6A95EAF763E06F
:10111000369527956A95E1F7220F331F220F331F6B
:10112000FA01E20FF31F40E050E0682F70E0819178
:10113000DF0111979B01042E02C0369527950A9472
:10114000E2F7217021952827292328272C934F5F28
:101150005F4F4430510559F708959C01982F9770BF
:1011600083E0369527958A95E1F7220F331F220FEA
:10117000331FFB01E20FF31F40E050E080E02191BC
:1011800030E0092E02C0369527950A94E2F72170C7
:101190003327042E01C0220F0A94EAF7822B4F5FF7
:1011A0005F4F4430510559F70895282F862F9A3004
:1011B00068F4263058F4622F70E026E0929F600DAC
:1011C000711D112440E352E00E9480080895292FE8
:1011D0009A3068F4863058F490E060E372E036E0CC
:1011E000239F800D911D11240E94AD08089580E079
:1011F0000895A0E0B0E0EFEFF8E00C94E9328C0144
:10120000E0905002F090510280915202909153026E
:10121000E82AF92ACFE0D0E0CC24C394D12CC6012F
:101220000C2E02C0880F991F0A94E2F78E219F218D
:10123000892B49F4219798F7B12C8B2DCDB7DEB7C8
:10124000E9E00C940533BC2EB8018C2F0E94DE0F10
:10125000019781F3F2CFCF93DF93D82FC92F0E944C
:10126000F9086D2F7C2F0E94DE0FDF91CF9108953A
:101270001F93CF93DF93162FD72F90912F0299238F
:1012800041F0862F972F0E942B09DF91CF911F915C
:101290000895882381F0862F972F0E94F908C82F80
:1012A000682F812F9D2F0E94D508612F7D2F8C2FB5
:1012B0000E94DE0FEACF862F972F0E94E708C82FE3
:1012C000F4CF0F931F93CF93E0915402C7E0809126
:1012D00055028E1304C0CF911F910F9108950E2FC8
:1012E00010E0CE9FF0011124EA5AFD4F2081318198
:1012F000428153816481758186810E94E007F801F3
:101300003196E770E4CF20918E0230918F024091A8
:10131000900250919102609192027091930280919B
:1013200094020E94E007089580919402803178F43D
:1013300080919302882359F0E09154022091550244
:1013400030918F0240918E0257E02E1301C0089514
:101350006E2F70E05E9FF0011124DF01AA5ABD4F8D
:1013600014968C911497882361F111968C911197A2
:10137000831327C08C91841324C015968C911597E4
:1013800081111FC012968D919C91A0919002B091F5
:1013900091028A1B9B0B883C910598F480919402E2
:1013A0008F70806180939402E45AFD4F80818F702A
:1013B000806180838EE892E00E946E070E9461093E
:1013C0000895FB013196E770C0CFE09154029091EF
:1013D000550227E0E91302C080E00895AE2FB0E087
:1013E0002E9FF0011124EA5AFD4F3181361306C0B9
:1013F0003081381303C03581341304C0FD013196A8
:10140000E770E8CF81E008958F929F92AF92BF92EC
:10141000DF92EF92FF920F931F93CF93DF93CDB79D
:10142000DEB72D970FB6F894DEBF0FBECDBF8C018F
:1014300086E0F801DE01189601900D928A95E1F799
:10144000F801E080F580A280B38084819EE8892E37
:1014500092E0992E9091920291111BC0882309F479
:10146000FCC0FF2009F43DC1C8010E94C9078823C0
:1014700009F437C187E0F801D40101900D928A95F3
:10148000E1F7C4010E9498040E9494090E94830914
:10149000E4C0D09093022091900230919102A50176
:1014A000421B530BDD2009F4DBC0483C510508F01A
:1014B000A6C0882309F4D1C090918F0291808091B9
:1014C0009402803108F06BC0991228C090918E026E
:1014D0009E1124C0F1105DC08F70806180939402D2
:1014E0000E9483098EE892E00E946E078091940228
:1014F000F8018683F12C8F2D2D960FB6F894DEBF60
:101500000FBECDBFDF91CF911F910F91FF90EF9054
:10151000DF90BF90AF909F908F900895F11039C0E9
:1015200040E0692D8E2D0E94E50940E0692D8E2D49
:101530000E94E509F82E8111DDCF888599850E94EA
:101540002B09292F22952F70903450F49F70223050
:1015500080F0992399F0F8019681903178F4CBCFFF
:101560002A5F2F70223078F0C8010E946E07FD2C90
:10157000C2CF992319F0882309F4BDCF805E88304B
:1015800008F4B9CFF1CF803F08F4B5CF815F823046
:10159000F7CF80919402816080939402ABCF99122F
:1015A00007C090918E029E1103C0FF2009F479C0FC
:1015B000C8010E94C907882309F493C0FF2009F4D9
:1015C00090C080919402803288F020918E023091F8
:1015D0008F023A832983BC82AB82909192029D83D1
:1015E0001E828F83CE0101960E946E0787E0F8016C
:1015F000AEE8B2E001900D928A95E1F745CF909167
:1016000094029031A0F4488559856A857B858C8544
:101610009D850E94D6078EE892E00E946E0787E0C3
:10162000F40111928A95E9F70E94830963CF882318
:10163000A1F020918F0281812813BACF80918E0270
:101640008E11B6CFF110B4CF9683C8010E946E07F9
:1016500087E0F40111928A95E9F7FF24F3944BCFC8
:10166000483C510508F041C08823B9F3FF20C9F177
:1016700090918F02818198132AC080918E028E11E1
:1016800026C08091940280FD19C08031B8F0868315
:10169000807F803F39F08681982F907F905F8F7098
:1016A000892B8683C8010E946E0787E0F801AEE8A7
:1016B000B2E001900D928A95E1F7E8CE87E0F8015B
:1016C000AEE8B2E001900D928A95E1F7C6CFC8016D
:1016D0000E94C90781118ACF809194028160809312
:1016E0009402C8010E946E07B8CF488559856A8563
:1016F0007B858C859D850E94D60791CFAEE0B0E0BA
:10170000E4E8FBE00C94EF32288739874A875B874F
:101710006C877D878E87CE0108960E94040A8823F5
:10172000B1F06C85662341F0288539854A855B8553
:101730007D858E850E94E00717E08091540290918C
:10174000550289133EC02E96E3E00C940B3387E0DC
:10175000FE013896DE01119601900D928A95E1F70F
:1017600020915502409154028C85882329F330E062
:10177000C90101968770992750E08417950799F061
:1017800097E0929FD001939FB00D1124AA5ABD4FAC
:10179000FE01319601900D929A95E1F780935502E2
:1017A0000E946109C9CF0E94A707109255021092AA
:1017B000540287E0EEE8F2E0DF011D928A95E9F736
:1017C000BBCF189FC00111248A5A9D4F0E94040A62
:1017D000882309F4B8CFE09154021E9FF001112430
:1017E000EA5AFD4F208131814281538164817581A4
:1017F00086810E94E0078091540290E001968770F4
:1018000099278093540299CF80919D028695869561
:101810008695089580919D028770089590919D020C
:10182000977081E0911101C080E008958091A90234
:1018300008959091A902982B9093A9020895982F4A
:1018400090958091A90289238093A902089510920E
:10185000A90208959091A802982B9093A802089548
:10186000982F90958091A80289238093A8020895CB
:101870001092A802089508950E943B0C089590913B
:101880009E02292F2823222331F0809589238093DB
:101890009E020E943C0C089508950E944C0C0895ED
:1018A00090919F02292F2823281729F0982B909395
:1018B0009F020E944D0C089590919F02292F28238A
:1018C000222331F08095892380939F020E944D0C42
:1018D000089580919F02882329F010929F0280E052
:1018E0000E944D0C08950F931F93CF93DF930091A7
:1018F000040110910501C091A9028091A802C82B92
:10190000D0919F02DD2331F00E94FE2781110E94B9
:10191000690CCD2BF801C083C0910401D091050161
:1019200048E050E065E972E0CE010E94B633892BB1
:1019300059F088E0FE01A5E9B2E001900D928A9588
:10194000E1F7CE010E949827DF91CF911F910F916F
:1019500008950E94730C089508950E94AC0C089598
:101960009091800392FF11C098E0899F900111240B
:10197000622B60939D020E94320880919D028695A1
:10198000869586950E94AD0C08950E9432080895B0
:1019900010929D0280E00E94AD0C089590919D02EE
:1019A0008095892380939D02282F277021110DC0D7
:1019B000891759F09091800392FF07C0869586950C
:1019C00086950E9442080E94C80C08959091800359
:1019D00092FB222720F9281769F080FB92F9909357
:1019E000800380917F03909180030E942E0D82E0FE
:1019F0000E94CE0C08958091800382FB882780F995
:101A000091E089270E94E60C089581E00E94E60C8F
:101A1000089580E00E94E60C08956FEF7FEF80E06C
:101A200090E00E940E34089580E090E00E94DA3346
:101A30009C0181E0263E3E4F09F080E0089582E05F
:101A400090E00E94CC33089583E090E00E94CC3374
:101A5000089584E090E00E94DA330895BC0184E0A8
:101A600090E00E940E340895AB01BC018FE090E03D
:101A70000E9402340895AB01BC0183E190E00E9412
:101A80000234089560E070E0CB010E943B0D0895A0
:101A900060E070E0CB010E94340D0E94420D089579
:101AA000A8E0B0E0E6E5FDE00C94F03266EE7EEFF3
:101AB00080E090E00E940E3460E082E090E00E94BE
:101AC000F03381E090E0909353028093520261E002
:101AD00083E090E00E94F03360E074E184E090E005
:101AE0000E940E3460E086E090E00E94F0336FEFD9
:101AF00087E090E00E94F03340E050E0BA0188E0D7
:101B000090E00E94023460E084E290E00E94F033B2
:101B100060E087E190E00E94F03360E08CE090E0CC
:101B20000E94F03360E08DE090E00E94F033198273
:101B30001A821B821C821D821E821F82188648E028
:101B400050E068E170E0CE0101960E94E03340E091
:101B500050E0BA0180E290E00E9402340E94480DF9
:101B60002896E2E00C940C330E94500D0895682FE3
:101B70008EE090E00E94F0330895A6E0B0E0E3EC40
:101B8000FDE00C94EE320E9438298C018091AA026B
:101B90009091AB028017910779F019821A820E9406
:101BA0003829BC0149815A8180E090E00E94680494
:101BB0001093AB020093AA022696E4E00C940A3339
:101BC0000E940C116093BE027093BF028093C0020A
:101BD0009093C1026093BA027093BB028093BC02DF
:101BE0009093BD0208950E940C116093BE02709301
:101BF000BF028093C0029093C1026093B6027093BB
:101C0000B7028093B8029093B90208950895089599
:101C10000E94060E089508950E940B0E089581E01B
:101C200008958AE491E10E9492160E94070E0E9494
:101C3000080E08950E946C130895089508950E9457
:101C40001D0E0E941E0E08950E944D110E943C041C
:101C50000E94602108950E942F290E94D6100E94A0
:101C60006F130E947D210E947D120E94240E0E940B
:101C700018230E94A31F0E94A21D0E948B130E9482
:101C80000C0E0895A6E0B0E0E8E4FEE00C94E73224
:101C90000E940F0E811115C00E94BD0D0E946C1391
:101CA0000E94F41E0E945F210E940F2281110E9457
:101CB000F30D0E94DF250E944F042696EBE00C9462
:101CC00003330E94D0128CEAA82E82E0B82E750150
:101CD00010E0F70101917F01812F0E9473111F5FB6
:101CE0001A3009F443C00817A1F38091C20281FDA4
:101CF0000E9479110E941A0EC82E00E09924939434
:101D0000802F0E947311182FF50191915F0189179F
:101D100039F1D82ED926F12CEE24E3948E2D8D2185
:101D20008823B1F0CC20A1F0F9820A830E943829DF
:101D30009C838B839D8291E08E2D8123811101C034
:101D400090E049815A816B817C818D810E94680479
:101D5000F394EE0CF6E0FF12E1CFF501319710831A
:101D60000F5F0A3069F60E94E00D98CF0813BDCFCF
:101D700093CF1F93CF93DF930E94E30FEC01811564
:101D800022E5920708F053C0811540E5940708F05A
:101D9000DDC0803E9105F8F48D3C910508F0AEC0A1
:101DA000883A910580F4853A910508F099C0813010
:101DB000910521F00497813A910550F4CE01DF910D
:101DC000CF911F910895885A91094B9708F48BC0C1
:101DD000C0E0D0E0F3CF811550E49507F8F4C115C9
:101DE00080E2D80708F0CBC0C83ED10538F3CE0159
:101DF0009A9581159F4160F78D2F0E948710182FAB
:101E0000CE0199270E94E30F212F30E0322F2227A5
:101E1000E901CC27DF71C82BD92BD0CF99270E949D
:101E2000E30FCC27DF70C82BD92BD06AC7CF8038FF
:101E300042E59407C8F5803652E5950708F067C07B
:101E4000C03482E5D807B0F08C2F869586958770D0
:101E500020E2829FC0011124C37021E030E0A9017B
:101E600002C0440F551FCA95E2F7EA01C82BD92BCF
:101E7000DC68A4CFC03252E5D50708F041C08C2FF2
:101E80008695869520E2829FC0011124C37021E0CF
:101E900030E0A90102C0440F551FCA95E2F7EA01DC
:101EA000C82BD92BDD688ACF803C52E5950760F4BA
:101EB0008F71C03AD24508F03FC090E0982F882734
:101EC000EC01C46FD06A7ACF805C9245809708F0AD
:101ED0007FCFDC2FCC27CC27DF71C06FD06A6ECFCD
:101EE000A497D0646BCFC85AD0E0CC0FDD1FC85583
:101EF000DE4F0990D881C02DD46460CFD0655ECF0D
:101F0000CF71D0E0DC2FCC27C16FD06A57CF869538
:101F10008695877020E2829FC0011124C37021E062
:101F200030E0A90102C0440F551FCA95E2F7EA014B
:101F3000C82BD92BDA6842CF0E948710C82FD0E077
:101F4000DC2FCC27CC27DF71D06238CF8F710E9475
:101F5000871065E0D695C7956A95E1F7CF70D0E018
:101F6000DC2FCC27282F30E084FF05C054E0220F5F
:101F7000331F5A95E1F7C22BD32BD0691FCF8D2F7A
:101F80008F710E948710182FCE0199270E94E30FAE
:101F9000212F30E0322F222722273F71282B392B87
:101FA000E901D2CF462F672F7A3028F4463018F453
:101FB0000E942603089580E090E008950E94D20FC9
:101FC0000E94B90E0895803E9105D1F1C8F4813385
:101FD000910509F47FC048F48932910509F46FC076
:101FE0008A32910509F47DC0089589339105E1F0A5
:101FF00082389105C9F08533910509F45BC00895D5
:10200000843E9105D1F148F4823E910531F1833E41
:10201000910541F181EE90E00895863E9105C1F170
:10202000873E9105E1F1089520917F0323702111EE
:1020300065C02091800323FF14C089E290E00895D9
:1020400020917F0320FD43C03091800330FF09C001
:1020500024FF4EC080E090E0089520917F0322FD90
:10206000F7CF089520917F0322FD45C03091800372
:1020700030FD44C024FFF5CFEDCF2091800321FF38
:10208000F0CF80917F0384FDE5CF87EE90E0089547
:1020900020917F0323FFE5CF24FDDCCFF6CF2091F5
:1020A0007F0323FD2EC03091800331FFE3CF84EE08
:1020B00090E0089520917F0325FFD3CFBECF2091DC
:1020C0007F0325FD21C02091800323FFCACF89E330
:1020D00090E0089520917F0326FFC3CF8AE290E02D
:1020E000089520917F0326FFBCCF81E390E00895FF
:1020F00083EE90E0089582EE90E0089580EE90E007
:10210000089586EE90E0089585E390E0AACF90913F
:102110007F0392FF10C041E0282F2471243009F082
:1021200040E031E0282F2871283009F030E04317D3
:1021300011F02CE0822793FF10C041E0282F24717A
:10214000243109F040E031E0282F2871283109F0CE
:1021500030E0431711F02CE082273091800330FFEC
:1021600010C051E0282F2171213009F050E041E0EA
:10217000282F2871283009F040E0541711F029E089
:10218000822731FF10C041E0282F2171213109F051
:1021900040E031E0282F2871283109F030E0431762
:1021A00011F029E0822794FD877E089510927B0329
:1021B00010927C0310927D0310927E030895CF92BB
:1021C000DF92EF92FF92CF93DF9300D000D0CDB794
:1021D000DEB76B017C010E946C13811112C00E945A
:1021E000442969837A838B839C83C61AD70AE80AB9
:1021F000F90AC0927B03D0927C03E0927D03F092B7
:102200007E030F900F900F900F90DF91CF91FF9072
:10221000EF90DF90CF900895A4E0B0E0E2E1F1E12B
:102220000C94F0320E946C13882371F00E944429B0
:1022300069837A838B839C8369817A818B819C817A
:102240002496E2E00C940C330E94442969837A833B
:102250008B839C8380917B0390917C03A0917D0371
:10226000B0917E0329813A814B815C81280F391F0F
:102270004A1F5B1F29833A834B835C83DDCF0E9417
:102280006C13882319F00E94382908950E940C11BC
:10229000CB01089580E0089508950E94140D8111E6
:1022A00002C00E94B40D0E941F0D8093C2020E94C2
:1022B000290D9093800380937F030E944C110E940C
:1022C000240D90E00E94F6078091500290915102F7
:1022D0000E941708089508950E946B1108950895AB
:1022E0000E946F110895E82FF0E0E457FC4F8081C1
:1022F0000895089580EA8A95F1F7089500C0089539
:102300000E947A11089508950E9483110895A5E00E
:10231000B0E0EDE8F1E10C94EB320E946C13182F61
:1023200060919603882309F445C01A821982FE0140
:10233000339683E0DF011D928A95E9F7862F90E0BE
:1023400032977F01BF0184579C4F0E949913DE2C66
:102350000F2D8823B9F08091810390E045E050E093
:10236000B70184579C4F0E94B63321E02093C302EB
:10237000892B99F410E00E947011812F2596E7E0D7
:102380000C9407338091C3028823A1F385E0D70121
:102390001D928A95E9F71092C302A0918103B0E0E3
:1023A000A457BC4F85E0ED2DF02F01900D928A953A
:1023B000E1F7E1CF70E064577C4F8091810390E0BA
:1023C00084579C4F0E9422140E948411D6CFF89407
:1023D000E82FE295EF70F0E041A18F7021E030E04E
:1023E000B90102C0660F771F8A95E2F7CB01962FDD
:1023F0009095942391A392A1892B82A37894089518
:102400000F931F93CF93DF93CCE0D1E089918F3F5F
:1024100011F00E94E71181E0C131D807B9F7C6E099
:10242000D1E00CE011E089918F3F11F00E94E7119B
:102430000C171D07C1F7DF91CF911F910F910895E0
:10244000A0E0B0E0E6E2F2E10C94EA32EC01D62E34
:10245000062F10E0C801845F9E4F7C01FC01808143
:102460008F3F09F445C0F894E82FE295EF70F0E053
:1024700091A18F7021E030E001C0220F8A95EAF728
:10248000892F822B81A382A12095282322A37894CF
:102490000E947E11E6E0F1E091E0C12C81918F3F36
:1024A00081F0A82FA295AF70A05EB0E02C9130E033
:1024B0008F7002C0359527958A95E2F72170892F94
:1024C000211180E0C82A990F81E0EC30F80731F73C
:1024D000F70180818F3F11F00E94E71161E0C11088
:1024E00001C060E08D2D0E948011C00FD11FC882F5
:1024F000CDB7DEB7E8E00C940633ABE0B0E0E3E83C
:10250000F2E10C94F03280911101811124C085E038
:10251000EEEDF1E0DE01179601900D928A95E1F75C
:1025200085E0FE013796ACE0B1E001900D928A950E
:10253000E1F786E0E4EEF1E0DE01119601900D9204
:102540008A95E1F786E0FE013196A6E0B1E00190C0
:102550000D928A95E1F78091110190E0811101C0FF
:1025600095E09093960385E0891B809381030E94F8
:1025700000128AE0ECE8F3E0DF01982F1D929A95B3
:10258000E9F7E2E8F3E0DF011D928A95E9F785E0DB
:102590000E9411130E946C112B96E2E00C940C33F4
:1025A000AAE0B0E0E6EDF2E10C94ED321A82198275
:1025B000FE01339688E0DF011D928A95E9F7F12C40
:1025C0008E010F5F1F4F6F2DC8010E942012F394E0
:1025D000B5E0FB12F8CF4AE050E0B80182E893E0A2
:1025E0000E94B63321E0892B99F420E06091960394
:1025F00070E064577C4F45E082E893E00E9412133C
:10260000182F0E948711812B2A96E5E00C9409333C
:102610008AE0F801A2E8B3E001900D928A95E1F713
:10262000E5CF0895A0E0B0E0E8E1F3E10C94EA32F0
:10263000D82EE92EF62ED72F042FC22F222379F081
:1026400081E08093C6020E9438299093C50280934E
:10265000C40280E0CDB7DEB7E8E00C940633C0904A
:10266000C602CC20B1F38091C4029091C5020E94B1
:102670006129059770F310E0A8016D2D7E2D8F2D37
:102680009D2F0E94B633892B41F0A8016D2D7E2D20
:102690008F2D9D2F0E94C333CC2D1092C6028C2FFC
:1026A000D9CF55985D988FE891E00197F1F700C078
:1026B000000089B185FB882780F90895CF930E9497
:1026C0002832C82F811102C00E9423328C2FCF9153
:1026D00008958091CA0208958091C90208950E94C8
:1026E0005E138093C9020E9451138093CA020E9414
:1026F0006913809311010E94691366E0882349F0F1
:1027000080E00E9431170E946C1381110E94CF1348
:10271000089586E0F6CF0E946C13811102C00E94DA
:10272000D213089581E09091CB029A3008F080E0B6
:1027300008950F931F93CF93DF93EC01162F072F6C
:102740008091CB028A3090F4612F702FCE010E94CD
:102750001F14811121C08091CB028F3FB1F40E94E0
:1027600038299093C8028093C70209C08091C7029C
:102770009091C8020E946129843F914028F780E02F
:10278000DF91CF911F910F9108958F5F8093CB02BE
:102790008A3028F781E0F4CF1092CB02FBCF0E9461
:1027A0003D2A08950E94402A0895A0E0B0E0EBED94
:1027B000F3E10C94EA32FA0169017801C82F880F1D
:1027C000DD0B3097B1F0DE0193E0AA0FBB1F9A95A5
:1027D000E1F7AE5EBE4F11968D919C911297845396
:1027E0009D4F4C9150E0E417F50708F4AF010E94AB
:1027F000C333CE010E942B2B182F8823D1F0E11474
:10280000F104B9F083E0CC0FDD1F8A95E1F7FE01FA
:10281000EE5EFE4F438150E0E416F50608F4A70192
:10282000CE5EDE4F6C817D8164537D4FC6010E9478
:10283000C333812FCDB7DEB7E8E00C9406330E9496
:10284000CC1508950E9402160895AAE0B0E0EBE2CC
:10285000F4E10C94E832F82E6D837E83A42ED22E00
:10286000E32EB02EC12EAD81BE818D919D910D9034
:10287000BC91A02DBC01CD010E9470296436710568
:102880008105910510F4AA20A9F000E010E020E0F5
:1028900030E04B2D5C2D6D2D7E2D8F2D0E94D5139C
:1028A000882349F00E944429ED81FE816083718371
:1028B0008283938381E02A96EAE00C940433ABE0B0
:1028C000B0E0E5E6F4E10C94EE328E010F5F1F4FAD
:1028D000C8010E94B91C41E08B859801811101C09B
:1028E00040E00BE010E06DEF72E086E00E942514FE
:1028F000182F81110E94B61C812F2B96E4E00C94B6
:102900000A33A1E0B0E0E7E8F4E10C94EE320E9473
:10291000851F8823D1F00E949D1F8983E091EB01E0
:10292000F091EC0141E09485981301C040E001E092
:1029300010E09E012F5F3F4F69EF72E085E00E943B
:1029400025142196E4E00C940A3380E0E6CFA8E059
:10295000B0E0EDEAF4E10C94EE328091F502909152
:10296000F602A091F702B091F802BC01CD010E94DD
:10297000702911E0643671058105910520F10E94EE
:102980000C11DC01CB010296A11DB11D89839A8334
:10299000AB83BC8300E010E020E030E044E050E096
:1029A000BE016F5F7F4F84E00E94D513182F8823EC
:1029B00051F00E9444296093F5027093F6028093CF
:1029C000F7029093F802812F2896E4E00C940A33E2
:1029D000A5E0B0E0EEEEF4E10C94E532762E6A016B
:1029E0004901580101E010E09E012F5F3F4F40E098
:1029F00050E060E070E00E94D513182F8823C1F1E9
:102A0000D6018D919D910D90BC91A02DBC01CD0161
:102A10000E947029643671058105910510F18701C6
:102A2000940140E050E060E070E0872D0E94D513F3
:102A3000182FB701C5010E9419239981981731F009
:102A400010E0812F2596EDE00C94013311701123D5
:102A5000C1F30E944429F6016083718382839383CA
:102A6000F0CFB701C5010E94192399818913D7CFEF
:102A7000A701B501C4010E94C333E3CFA1E0B0E0D8
:102A8000E4E4F5E10C94EC320091EB011091EC01DF
:102A9000095F1F4FEE24E394F12C9E012F5F3F4FFF
:102AA00041EF52E063E082E00E94E814182F88238F
:102AB00021F0CE0101960E94A622812F2196E6E008
:102AC0000C940833A5E0B0E0E8E6F5E10C94EA32B6
:102AD0006B010091EB011091EC010F5F1F4F85E03E
:102AE000E82EF12C9E012F5F3F4F4DEE52E061E04A
:102AF00080E00E94E814882349F095E0FE013196B9
:102B0000A8EEB2E001900D929A95E1F795E0E8EE1B
:102B1000F2E0D60101900D929A95E1F72596E8E052
:102B20000C940633A0E0B0E0E8E9F5E10C94E8325B
:102B3000F82EE92EB62EA72E8A010E949213CC24DD
:102B4000C394D12C882319F08AE0C82ED12CC1E07F
:102B5000D0E06B2D7A2D8F2D9E2DF80109958111D6
:102B600016C02196CC16DD0694F0CC9FC001CD9FF7
:102B7000900D900D112420E030E045E34A95F1F7E7
:102B800000002F5F3F4F28173907B9F7E2CFCDB7C5
:102B9000DEB7EAE00C9404330F931F93CF93DF93D7
:102BA000D82FC92F8B0142E655E10E949215811161
:102BB00006C080E0DF91CF911F910F9108954EE301
:102BC00055E1B8018D2F9C2F0E949215882389F31F
:102BD00047EA54E1B8018D2F9C2F0E94921588235B
:102BE00041F341E854E1B8018D2F9C2F0E949215CA
:102BF0008823F9F24FE554E1B8018D2F9C2F0E94F4
:102C00009215D8CF8F929F92AF92BF92EF92FF9280
:102C10000F931F93CF93DF93CDB7DEB72B970FB6EC
:102C2000F894DEBF0FBECDBFFB010091EB01109108
:102C3000EC01C801019625E0DC0101900D922A9576
:102C4000E1F765E070E00E941923F8018083CE016E
:102C500001967C010E949B228981F801878361E0B3
:102C600070E0C7010E941923F80186836085718591
:102C7000828593858090E4029090E502A090E60220
:102C8000B090E702681579058A059B0551F06093BD
:102C9000E4027093E5028093E6029093E7020E94BB
:102CA000DF10F80184850E9452208BE0F8013D96E8
:102CB000D70101900D928A95E1F7F801178A8B856B
:102CC000882321F060E0C7010E94EB1D2B960FB610
:102CD000F894DEBF0FBECDBFDF91CF911F910F9152
:102CE000FF90EF90BF90AF909F908F9008950E94BB
:102CF000FD2C0E942B0E0E940A2D08950E940F2D7C
:102D00000E94420E0E94292D08950E94D1280E94FF
:102D1000E32C0E94110E0E9477160E947E160E94DC
:102D20001F0EFBCF90932902809328020895A0E004
:102D3000B0E0EDE9F6E10C94E832E82F71110DC036
:102D4000442321F0F0E0E25DFC4F8491682F782F5E
:102D5000CDB7DEB7EAE00C940433262F30E0C72F5E
:102D6000D0E0F0E0442321F0E25DFC4FE491F0E09C
:102D700086E0829F7001839FF00C11240FEF10E01A
:102D8000C701B8010E945F32AB01220F331F65E516
:102D9000649FC001659F900D1124281B390BC22E22
:102DA000CC0CC20EC8018C1B9D0B8E9F90018F9F77
:102DB000300D9E9F300D1124832FCC9EB001CD9EEF
:102DC000700D1124672F77275801A61AB70AAE9EF7
:102DD000D001AF9EB00DBE9EB00D11247B2F5801C7
:102DE000AC18B1086501CC9E5001CD9EB00CDC9EA4
:102DF000B00C1124AB2CBB240A191B090E9FE00157
:102E00000F9FD00D1E9FD00D11246E2F4330510502
:102E1000C9F09CEFE91693E0F90650F441305105F2
:102E200009F496CF4230510589F07E2F6D2F90CF57
:102E30004430510571F046305105B9F3632F8B2FA3
:102E40007E2F86CF6B2F732F8E2F82CF732F8D2FD8
:102E50007FCF7D2F632FF8CF41E00E949716089512
:102E60000895EDE4F1E08083618308950E942C17BA
:102E70000895CF93DF93982F762F842FE901692F40
:102E80000E943617798368838A83DF91CF910895F2
:102E900080919703843028F4837084608093970333
:102EA00008958C3AE8F38370886AF8CF4F925F9266
:102EB0006F927F928F929F92AF92BF92CF92DF924A
:102EC000EF92FF920F9388E090E00E94D4332B01A1
:102ED0003C0184E290E00E94CC33282F30E040E0B7
:102EE00050E060E070E080E090E000E20E94173384
:102EF00053014201C12CD12C7601242939294A29B8
:102F00005B296C297D298E299F290F91FF90EF90D5
:102F1000DF90CF90BF90AF909F908F907F906F90F9
:102F20005F904F900895A0E0B0E0E9E9F7E10C94DC
:102F3000EA328901D42FC52F6B017C010E9448170A
:102F4000A8016D2F7C2F88E090E00E940234980148
:102F50004D2F5C2FB601C70100E20E943233622F71
:102F600084E290E00E94F033CDB7DEB7E8E00C9445
:102F70000633E7E9F3E08DE2808311828FEF8283ED
:102F800080E883831482AAE4B3E012968C911297AE
:102F9000836012968C9375812DE230E04FEF50E8FC
:102FA00060E0868197810E9493170895809197032E
:102FB00080FF03C086958695089580E008959091DE
:102FC0009B03933018F49F5F90939B03882391F0A9
:102FD00020919703309198034091990350919A035F
:102FE00060919B0370919C0380919D0390919E033F
:102FF0000E949317089581E00E94DF170895909131
:103000009B03992319F0915090939B03882391F08F
:1030100020919703309198034091990350919A031E
:1030200060919B0370919C0380919D0390919E03FE
:103030000E949317089581E00E94FF17089570E0A1
:103040000E94EA22089560914E018091970380FFCB
:103050000DC020914D0130E0C901880F991F820FEA
:10306000931F81569C4F0E941F18089580914F0115
:1030700090915001282F30E0F901EE0FFF1FE20F71
:10308000F31FE156FC4F891720F71182108212823C
:103090008F5F3396F8CF9091970390FF11C0909176
:1030A0004F0150915001292F30E0F901EE0FFF1F21
:1030B000E20FF31FE156FC4F951718F00E942318FA
:1030C00008958183608342839F5F3396F5CFA3E0A9
:1030D000B0E0EDE6F8E10C94F0329091970390FFA8
:1030E0000AC09E012F5F3F4F0E9439174B816981B3
:1030F0008A810E944B182396E2E00C940C33CF9304
:10310000DF93EC01EC81F0E0E75DFD4F4491E7E9EE
:10311000F3E0628181810E9467188C818F5F8C83CC
:10312000DF91CF910895CF93DF93EC01E7E9F3E0CE
:10313000438162818C810E9467188C818F5F8C83B0
:10314000DF91CF910895A3E0B0E0E9EAF8E10C94B3
:10315000EE328C018091010381110AC09E012F5F24
:103160003F4F4FEF6FEF0E9439178A818093010321
:10317000F8016481613049F06230D1F0809101033F
:1031800040E0662331F040E015C06091010340E06B
:1031900080E00E944B18F801848190E0019663E082
:1031A00070E00E94733284832396E4E00C940A3327
:1031B0004091010380E060E0ECCFA3E0B0E0E3EEFB
:1031C000F8E10C94E832E82ED62EF42EB22E90912F
:1031D000970390FF42C030919803381308C0809144
:1031E0009903861304C080919A03841729F0809173
:1031F0004C03826080934C03E92FE695E695AE2F51
:10320000B0E0A351BE4F8C9180934A039C7F9430D1
:1032100041F59E012F5F3F4F4F2D6D2D8E2D0E944A
:1032200039174B8169818A810E944B183E2D30935A
:103230009803D0929903F0929A03BB2071F02091E9
:10324000970360919B0370919C034D2D5F2D80919E
:103250009D0390919E030E9493172396EAE00C949D
:103260000433823019F4F0909A03E0CF8630F9F2FB
:103270008930E9F28931D1F6E9518E2F8170A82E7B
:10328000E695F0E0E75DFC4FE491C12C0E2F10E0D5
:1032900060915101C61618F00E942318C7CF2C2D3B
:1032A00030E0C09EC001C19E900D112470E00E94CC
:1032B0005F328E2DA11013C0860F90914F01A9018E
:1032C000490F511D9A01220F331F240F351F21561C
:1032D0003C4F4F2D6D2D0E943917C394D9CF861BBB
:1032E000ECCF282FE7E9F3E0818143816281885F99
:1032F0000E94DD18089581E00E9471190895282F19
:10330000E7E9F3E081814381628188500E94DD1802
:10331000089581E00E947F190895282FE7E9F3E0DE
:10332000628131E1630F08F46FEF438181810E9474
:10333000DD18089581E00E948D190895282FE7E98E
:10334000F3E0628131E1631B08F460E04381818135
:103350000E94DD18089581E00E949E190895282F8B
:10336000E7E9F3E0438131E1430F08F44FEF628175
:1033700081810E94DD18089581E00E94AF190895AF
:10338000282FE7E9F3E0438131E1431B08F440E0F3
:10339000628181810E94DD18089581E00E94C01938
:1033A000089520E00E94DD180895EF92FF921F9388
:1033B000CF93DF93EC0110E0EE24EA94F12C6091BE
:1033C0005101161770F00E9423189A818C8190FF8A
:1033D00025C08F5F8C83DF91CF911F91FF90EF907D
:1033E000089580914F01810F9927991F9C01220F09
:1033F000331F280F391F21563C4F70E0C7010E9430
:103400007332962F8C8140919A0360919903199F92
:10341000800D11240E9439171F5FD1CF8150DACF60
:10342000A0E0B0E0E6E1FAE10C94E732EC018C8137
:103430009A8190FD0EC0BB24B39481110EC080917F
:1034400051018150BB24B3948093030381E08C83AA
:1034500004C0BB24BA948823B9F3A12C80915101F4
:10346000A816B8F00E9423189091030381E0B812C7
:1034700056C0809151018150992319F08FEF890F27
:1034800091E0809303039C83CDB7DEB7EBE00C940F
:10349000033380914F01CA2CD12C8C0D9D2D911D91
:1034A0008C01000F111F080F191F01561C4FF80146
:1034B00011821082128234E0E32EF12C912C809143
:1034C0000303890D8D302CF16CE00E945132892F5D
:1034D000082E000C990BC816D90691F480919A0316
:1034E0008E9DA0018F9D500D1124559547955595A2
:1034F0004795980160919903809198030E9439172C
:103500009B0CF1E0EF1AF108E114F104C1F6A39469
:10351000A5CF87FFDDCF90915101890FD9CF892F9A
:1035200090E001966091510170E00E947332982FF3
:10353000A8CF1F93CF93DF93EC018C81811109C039
:1035400081E08C831092020392E090934C0180936F
:103550004B0180914F0190915001282F30E0F901EB
:10356000EE0FFF1FE20FF31FE156FC4F891748F1E2
:1035700010E060915101161750F10E9423188091BC
:103580004B0120910203280F2093020390914C01DC
:10359000980F90934C01191654F4022E000C330B23
:1035A000409151014150550B2417350734F0819556
:1035B00080934B01813009F41C82DF91CF911F91E0
:1035C00008951182108212828F5F3396CFCF212F00
:1035D00030E070E0C9010E94733290914F01980F62
:1035E000892F90E040910203042E000C550BFC0142
:1035F000EE0FFF1FE80FF91F24173507ACF04091BD
:103600004C01042E000C550B421753076CF09F0120
:1036100021563C4F40919A03609199038091980301
:103620000E9439171F5FA5CFE156FC4F118210820F
:103630001282F8CFAEE0B0E0E0E2FBE10C94EC32B5
:103640008D879E87AD85BE8514961C91212F30E015
:10365000D9010E94B7329B01AC010E94CD3269832F
:103660007A838B839C83E0E2F0E0E11BF109A5E51E
:10367000B0E09B01AC010E94CD3269877A878B87CD
:103680009C879F01DF010E94AF329B01AC010E9429
:10369000D8326D837E838F8398879B01AC018981AB
:1036A0009A81AB81BC81280F391F4A1F5B1F698536
:1036B0007A858B859C850E948732022F30E00A3202
:1036C00048F5A901440F551F420F531F55954795C3
:1036D000142F1095F12C85E5E82EE01A8091510108
:1036E000F81630F10E942318AD85BE8514969C9182
:1036F00081E0992319F0903219F48FEF80934A01F9
:1037000080914A01890FED85FE8584832E96E6E03F
:103710000C94083385E590E0821B930BAC01440FB9
:10372000551F480F591F57FFD1CF4F5F5F4FCECF67
:103730008E2DF1FC802F40914F014F0D5527551FC5
:103740009A01220F331F240F351F21563C4F412F62
:10375000609199030E943917F394C0CF0F931F9380
:10376000CF93DF93EC0100E010E040915101842FF2
:1037700090E0081719076CF00E9423188C8190E0E4
:103780000196817099278C83DF91CF911F910F91C2
:10379000089580914F01800F912F911D9C01220F60
:1037A000331F280F391F21563C4F9C81609199038C
:1037B00080919803469550E0041715074CF499231F
:1037C00049F040919A030E9439170F5F1F4FCDCFE8
:1037D0009923B9F340E0F7CFA0E0B0E0E2EFFBE1DE
:1037E0000C94E232FC016280448081E08483E9E24F
:1037F000F2E07490E8EAF2E0E491C0919A03C69591
:10380000C158D0E0CC0FDD1FCD2FDD27812C75E016
:10381000972EAA24AA94B12C55245A94E719EE2E77
:10382000F12C80915101881638F00E942318CDB7F1
:10383000DEB7E0E10C94FE32C82CD12C82E0861574
:1038400068F09C9CF0019D9CF00D1124E95FFC4FF9
:10385000809198038083809199038183411023C0D4
:103860009C9CF0019D9CF00D1124E95FFC4F13829C
:10387000128280914F018C0D9D2D911D9C01220F74
:10388000331F280F391F21563C4F9C9CF0019D9CF3
:10389000F00D1124E95FFC4F4281618180810E941B
:1038A00039178394BECF9C9C80019D9C100D1124E0
:1038B000095F1C4FF80183818823F1F081508383D5
:1038C000589EC0011124648170E00E945F32FB01A8
:1038D000FF27E75DFD4F8491E82FE7195E9EC00149
:1038E0001124B7010E945F3280919A03689FB00152
:1038F0001124F8017283BDCF0E949933B5010E9453
:1039000073328C179D070CF0B4CFF2E0F61598F4E3
:103910000E949933B5010E947332F80180830E949E
:103920009933209199032695622F70E00E9473329B
:10393000280FF80121839C9CF0019D9CF00D11241F
:10394000E95FFC4F128280919A03893C58F088EC21
:103950009C9CF0019D9CF00D1124E95FFC4F848339
:10396000838387CF8431A0F784E1F2CF10924C0398
:103970000895CF93DF93EC0188E0E7E9F3E0DE01FF
:1039800001900D928A95E1F780914A0390914B0343
:10399000A0914C0388879987AA87DF91CF910895DA
:1039A000EAE4F3E011828281846082830895E7E98A
:1039B000F3E080818E7F80830E94D01CEAE4F3E0F4
:1039C0008281816082830E9423180895E7E9F3E0F1
:1039D00020812E7F208331814281538164817581D2
:1039E000868197810E9493170E94D01CEAE4F3E03D
:1039F0008281816082830E942318089560919703D9
:103A00006695669570E04BE050E082E591E00E949B
:103A1000A933892B19F481E080934B030E943F1155
:103A2000909344038093430380914C03846080937C
:103A30004C0308959091970390FF3FC08823F1F1C4
:103A40008B32F0F58F73282F220F220F809197036E
:103A50008370282B2093970380914C03816080937F
:103A60004C03662381F03091980340919903509163
:103A70009A0360919B0370919C0380919D039091A8
:103A80009E030E949317609197036695669570E078
:103A90004BE050E082E591E00E94A933892B91F040
:103AA0000E94D01C81E08093460340919A0360916C
:103AB0009903809198030E94D119089581E0C3CFA2
:103AC0008AE2C1CF0E94FE1CEDCF682F8091970340
:103AD000869586958F5F8B3208F081E00E941A1DD3
:103AE000089581E00E94651D0895682F90919703C5
:103AF000969596958FEF890F913009F48AE20E948E
:103B00001A1D089581E00E94751D089561E00E94CC
:103B10001A1D0895E7E9F3E080818160808386952E
:103B200086950E94861D08958091970380FF03C0AB
:103B30000E94E61C08950E948A1D089560E00E947C
:103B40001A1D089580914903811144C00E94140DEB
:103B5000811104C00E94B40D0E94B9170E9456172B
:103B600020939703309398034093990350939A03BB
:103B700060939B0370939C0380939D0390939E039B
:103B800080914C03836080934C032430A0F40E9406
:103B9000B9170E94561720939703309398034093C8
:103BA000990350939A0360939B0370939C038093B3
:103BB0009D0390939E030E9448170E94D01C809101
:103BC000970380FF04C0869586950E949E1D81E024
:103BD0008093490308951F93CF93DF93EC01162F31
:103BE0008A8580FF0DC0888180FF25C08091970362
:103BF0008160809397038881869586950E941A1D1F
:103C00008A8581FF06C0212F4B816A8189810E94AC
:103C1000DD188A8582FF05C08985882379F00E9496
:103C2000FE1C8A8583FF03C081E080934603DF91F9
:103C3000CF911F9108950E94D71CE2CF0E94D01C03
:103C4000F0CFEF92FF920F931F93CF93DF9380916A
:103C50004B03882309F465C080914A03E0919703E0
:103C6000E695E695E81BE0934503823009F05EC0D7
:103C7000F0E0EB5DFD4FE491CE2FD0E00FE718E1CF
:103C800080914603882361F0109246030E943F1101
:103C90009093440380934303109248031092470388
:103CA0000E943F119C018091430390914403A9011C
:103CB000481B590B4F3F5F47A0F540910603442333
:103CC000B1F0109206034091040350910503241BA8
:103CD000350B2F3F3F4758F4405D5A48509305033A
:103CE0004093040320914C03286020934C03E09000
:103CF0004703F09048038C0F9D1F909344038093DB
:103D0000430383E493E0F801099580914703909180
:103D10004803892B31F4E114F10419F081E0809318
:103D20000603CDB7DEB7E6E00C940833C8E2D0E076
:103D30000AE11BE1883109F4A3CFC0F48F3009F404
:103D40003AC048F4863021F1893059F1C0EDD7E00E
:103D500000E317E195CF8531C9F7F0E0E75EFD4F4D
:103D6000E491CE2FD0E009E91AE18ACFC4EFD1E087
:103D70000EEA1BE1843209F483CF853231F18332BC
:103D800029F7E7E1F2E0C591D49103EA18E178CF91
:103D9000F0E0EE5DFD4FE491CE2FD0E003E918E1B5
:103DA0006FCFE695F0E0E15EFD4FE491CE2FD0E0DD
:103DB00005ED19E165CFE695F0E0E45EFD4FE49195
:103DC000CE2FD0E000E11AE15BCF8E2F63E00E949E
:103DD0004532E92FF0E0EC5EFD4FE491CE2FD0E0CC
:103DE0000CEE1BE14DCF08950E94211E0895FA01AB
:103DF000882311F009950895FB01FCCFCF93DF9341
:103E0000C82FD62F0E94D6178C1748F00E94D617BD
:103E10008D1728F40E94711DDF91CF9108958C2F8A
:103E20000E94861DF9CF1F93CF93DF93EC01FB0116
:103E30001581111168C00E94160C8272FE01E052B9
:103E4000F847E531F10508F05EC0EF5AFB4C0C94E1
:103E5000A9320E94941D812FDF91CF911F91089567
:103E600042E85DE161E77DE10E94F71EF4CF41E7A2
:103E70005DE162E87DE1F8CF49E859E16BE779E17E
:103E8000F3CF4BE759E169E879E1EECF4BEA59E12D
:103E90006AE979E1E9CF4AE959E16BEA79E1E4CFEE
:103EA0004DEC59E16CEB79E1DFCF4CEB59E16DEC76
:103EB00079E1DACF4BE158E16BEF77E1D5CF4BEF0A
:103EC00057E16BE178E1D0CF81E00E94861DC3CF3E
:103ED00065E082E00E94FE1EBECF68E086E0FACF79
:103EE0006EE089E0F7CF64E18FE0F4CF67E185E130
:103EF000F1CF88E1EACF62E289E1ECCF83E2E5CF5E
:103F00006AE285E2E7CF11E0A6CF8091C30381701A
:103F1000089586E090E00E94CC330895682F86E0F3
:103F200090E00E94F0330895E3ECF3E08081847028
:103F3000896180830E948E1F08958091C3038695B6
:103F40008695869508950E94140D811104C00E94E3
:103F5000B40D0E94941F0E94891F8093C303803375
:103F600020F0877088628093C3039091C303892FE8
:103F70008170882321F0892F8695869586950E94E9
:103F8000A62008959091C303892F869586958695DE
:103F9000983240F48F5F880F880F880F9770892BB5
:103FA0008093C3038091C30381608093C3030E9405
:103FB0008E1F8091C3038695869586950E94A620C4
:103FC00008958091C303883078F088508093C303AC
:103FD00091E0883008F490E08091C30390FB80F971
:103FE0008093C3030E948E1F8091C303869586959C
:103FF00086950E94A62008958091C30380FD13C07A
:1040000081608093C303813019F489E08093C303F6
:104010008091C3030E948E1F8091C303869586956D
:1040200086950E94A62008958091C30380FF08C052
:104030008E7F8093C3030E948E1F80E00E94A62083
:1040400008958091C30380FF03C00E941420089547
:104050000E94FC1F08958091C303869586958695DE
:104060008F5F8F71863008F080E0880F880F880F8F
:104070009091C3039770892B8093C30391E088309C
:1040800008F490E08091C30390FB80F98093C30310
:104090000E948E1F8091C3038695869586950E9407
:1040A000A6200895863008F085E02091C30327708C
:1040B000982F990F990F990F922B9093C30321E09A
:1040C000983008F420E09091C30320FB90F990937E
:1040D000C3030E94A62008950E9452208091C3032A
:1040E0000E948E1F08959C01FB018581882361F148
:1040F0002330F8E73F07E1F060F42130E8E73E07BE
:10410000A9F02230F8E73F07C9F02115384749F0F8
:1041100008952430E8E73E0771F02530384789F0EC
:10412000089585E00E946C2080E0089580E0FACF39
:104130000E94E11FF9CF0E94C21FF6CF0E942120EA
:10414000F3CF0E942B20F0CF81E00895A8E0B0E0EB
:10415000ECEAF0E20C94EA328630F0F481111DC0F2
:10416000809180008F77809380008091860090916D
:1041700087008091860090918700E0E0F0E0CF0119
:1041800069E070E00E945F3270938900609388005C
:104190002896E8E00C94063385E0909180009068C2
:1041A00090938000A0918600B0918700282F30E086
:1041B0000E94B73269837A838B839C8325E030E049
:1041C00040E050E00E94873269017A01F901809154
:1041D0008600909187006CE070E00E945F326C1561
:1041E0007D0568F680918600909187000091860099
:1041F00010918700209186003091870066E070E082
:104200000E945F32C60ED71EE11CF11CD701C60109
:1042100045E0880F991FAA1FBB1F4A95D1F78983D4
:104220009A83AB83BC83C80166E070E00E945F3272
:1042300040E050E0260F371F411D511D69817A81F2
:104240008B819C810E94873229833A834B835C83D4
:10425000E0918600F0918700CA01B9010E943532D1
:10426000DF019B01AC010E94CD326D837E838F8381
:1042700098879B01AC0169817A818B819C810E9426
:10428000353269837A838B839C83DC01CB015FE0C9
:10429000B695A795979587955A95D1F74091860041
:1042A0005091870060E070E0481759076A077B0764
:1042B00020F48091860090918700BC0165CF08951D
:1042C000259A2D9882E88093800089E1809381006F
:1042D0008FEF9FEF90938700809386000E94A31F2B
:1042E00008958FE891E00197F1F700C0000008956C
:1042F00081E008950E946C1308950F931F93CF934C
:10430000DF938091110191E0892780935103292F38
:10431000281B2093500380911101909352038091A8
:10432000110190934F0380911101882309F44AC031
:1043300080915E01E82FE295EF70A1E2AE0FB0E050
:104340004C918F7021E030E0B90102C0660F771FF9
:104350008A95E2F7CB01962F909594239C93EE5D7E
:10436000F0E09081892B808380915D01E82FE295B8
:10437000EF70A1E2AE0FB0E04C918F70B90102C0B6
:10438000660F771F8A95E2F7CB01962F90959423BD
:104390009C93EE5DF0E09081892B80830E947121D7
:1043A000609152034EE551E0CDE5D1E005E513E023
:1043B000FA018E2F841B861760F0DF91CF911F9139
:1043C0000F91089587EF80935E0186EF80935D01E2
:1043D000AFCF7191872F82958F70805E90E0DC0166
:1043E0002C913991832F82958F70805E90E0DC0153
:1043F0008C9190E03F7002C0959587953A95E2F7D1
:104400008170880F30E07F7002C0359527957A95CE
:10441000E2F72170822BD8018D938D01CACFCF9204
:10442000DF92FF920F931F93CF93DF9310E000E092
:1044300084E0C82ED12C80915203181748F0802FA9
:10444000DF91CF911F910F91FF90DF90CF90089552
:10445000C12FD0E0FE01E25AFE4F6081E62FE295C7
:10446000EF70E05EF0E04081FE01E35AFE4F5081C4
:10447000E52FE295EF70E05EF0E0808190E05F7004
:1044800002C0959587955A95E2F78170880F50E0A4
:104490006F7002C0559547956A95E2F74170842B7D
:1044A000DE01AB5ABC4FEC919E2F9370981709F424
:1044B00040C0EE0FEE0FE82BEC93F0905103F10E9D
:1044C000EF70F0E0E85EFD4FCD5ADC4F80819881BF
:1044D000890F888320E0843084F0EF2DF0E0E35BE7
:1044E000FC4F80818F5F80830E947A21882321F096
:1044F00060E08F2D0E94EF0221E088818D3F84F4DF
:10450000EF2DF0E0E35BFC4F8081815080830E94BF
:104510007A21882321F061E08F2D0E94EF0221E0B3
:104520008881082E000C990BB6010E947332888393
:10453000022B1F5F80CF4091520350E060915103E6
:1045400070E0635B7C4F0E94C3330895A0E0B0E04D
:10455000ECEAF2E20C94EA326C01D0E080E0909157
:104560004F03D91740F081110E94F30DCDB7DEB78C
:10457000E8E00C940633F0905003FD0E0F2D10E090
:10458000035B1C4FF601ED0FF11DC081F801908116
:10459000C91BEC2E1E1444F09C2FC7FD90E0C91BD4
:1045A000C1110DC0DF5FDBCFEA94F80180818F5F1E
:1045B000808360E08F2D0E94EF0281E0EBCFCF5F20
:1045C000F80180818150808361E08F2D0E94EF028D
:1045D00081E0E6CF9C01AB01569A6BB16F7B7BB15A
:1045E0007064EFB7F894CA01880F991F840F951F64
:1045F000820F931F8217930741F4EFBF8FE594E07A
:104600000197F1F700C000000895D9014D919D0177
:1046100058E07BB9000000C047FF6BB9440F0000B1
:1046200000C000C000C06BB900C05A9591F7E2CF3E
:104630000895FC01680F791F8FEF91E3E617F707E4
:1046400009F408952191822728E030E087FF08C00F
:10465000880F89272150310921153105B9F7EECF8F
:10466000880FF8CFCF93DF93EB0186319C4719F584
:104670000E94160C9D819923A1F08A7A91E0811104
:1046800001C090E090935703882349F085E30E948E
:104690004F280E94A90C80E0DF91CF91089589E214
:1046A000F6CF80915703882321F085E30E94572895
:1046B000F0CF89E2FBCF81E0EFCFCF93DF93EC0126
:1046C000FB018581882309F4D2C09E013057233233
:1046D000310508F0B2C00E94290D909380038093A9
:1046E0007F03FE01E150F047E232F10520F4EA5980
:1046F000FB4C0C94A93280917F03816080937F03EF
:1047000093C0809180038860809380038DC08091E6
:104710007F038260F3CF80917F038460EFCF80912D
:104720007F038860EBCF809180038160EDCF809123
:1047300080038260E9CF80917F038061DFCF809129
:104740007F038062DBCF80917F038064D7CF0E949C
:10475000A70780917F038068D1CF80917F038C6011
:10476000CDCF809180038360CFCF80917F038E7FF8
:10477000C5CF80918003877FC7CF80917F038D7FD6
:10478000BDCF80917F038B7FB9CF80917F03877FDF
:10479000B5CF809180038E7FB7CF809180038D7FCE
:1047A000B3CF80917F038F7EA9CF80917F038F7DD0
:1047B000A5CF80917F038F7BA1CF0E94A707809117
:1047C0007F038F779BCF80917F03837F97CF8091EB
:1047D00080038C7F99CF80917F0382FB992790F98A
:1047E00021E0922790FB82F990FB83F987CF80919B
:1047F0008003982F909591708E7F892B90FB81F983
:1048000083CF90917F03892F8F7B96FF806476CF33
:104810000E94A70790917F03892F97FB87F9805803
:104820006DCF81E00E94B70D80917F03909180034E
:104830000E942E0D0E94A70780E0DF91CF9108957E
:1048400080E0F0CF90917F03892F8F7E94FF80616D
:1048500055CF90917F03892F8E7F90FF81604ECF3F
:1048600090918003892F877F93FF88604DCF81E0EF
:10487000E4CF282F35EB2303C001112497FF04C098
:1048800080589109892F089580589F4FFBCF8091C0
:104890005E0380FF0DC06091640170E0660F771FBA
:1048A00060387105C0F561157105B9F1862F08955D
:1048B00081FF07C06091640184E0689FB00111240A
:1048C000EFCF82FF04C06091640188E0F6CF809151
:1048D0005D038823E9F0909163016091640170E0C9
:1048E000891730F093E0660F771F9A95E1F7D8CFDC
:1048F000869F9001879F300D112483E0220F331F84
:104900008A95E1F7692F70E0C9010E947332C8CF20
:1049100068E070E0CBCF8FE7089581E00895809143
:104920005E0380FF0CC06091600170E07595679533
:10493000759567956115710561F1862F089581FF61
:1049400006C06091600170E075956795F3CF609146
:10495000600170E082FD15C020915C032223B1F05C
:1049600090915F016091600170E0291750F4269FDB
:10497000A001279F500D1124692F70E0CA010E94E9
:10498000733260387105B0F28FE7089561E070E02E
:10499000D4CF81E008959091610320916203922B1E
:1049A00020916403922B20916303922B992331F081
:1049B00098E090935D0391E090935C038D3C31F41B
:1049C0000E9447248195809362030895E2E3E80FF3
:1049D000E231B0F5F0E0E857FB4C0C94A9320E94AC
:1049E0004724F1CF0E944724819580936103089565
:1049F0000E944724FACF0E948F2480936303089576
:104A00000E948F248195F9CF0E948F2481958093F5
:104A1000640308950E948F24FACF815D990B21E0F1
:104A200030E001C0220F8A95EAF780916003822B63
:104A300080936003089580915E03816080935E039C
:104A4000089580915E038260F9CF80915E03846057
:104A5000F5CF409161038D3C59F48091620387FF4B
:104A60000DC010926203442359F410925D0308C0F4
:104A70008E3C81F48091620318169CF3442381F0EC
:104A80008091630390916403892B811159C0109226
:104A90005C0308958F3C41F447FFF0CF109261030F
:104AA000809162038823E0CF803D19F41416B4F39B
:104AB000E5CF90916303893D29F41916FCF6109215
:104AC0006303DCCF8A3D19F497FFD8CFF8CF9091DC
:104AD00064038B3D29F497FFD1CF10926403CECFAE
:104AE0008C3D19F41916CCF3C9CF9FE2980F98307A
:104AF00090F4815D990B21E030E0B90102C0660FAE
:104B0000771F8A95E2F7CB01809590916003892306
:104B100080936003B3CF8D3D31F480915E038E7F2F
:104B200080935E03ABCF8E3D21F480915E038D7F39
:104B3000F7CF8F3D09F0A2CF80915E038B7FF0CF3E
:104B400008950E9438292091610330916203232B3C
:104B5000222321F080935A0390935B0320916303F7
:104B600030916403232B222321F0809358039093E8
:104B700059038FE593E00E94A327089586E0EFE5AF
:104B8000F3E0DF011D928A95E9F710925D03109220
:104B90005C0310925E030895FC01828181110DC0B7
:104BA000838181110AC08481811107C081E09581D0
:104BB000911101C080E08170089581E0FCCFA6E0F2
:104BC000B0E0E5EEF5E20C94ED3286E0EFE5F3E0DF
:104BD0009E012F5F3F4FD90101900D928A95E1F719
:104BE00010926103109262031092630310926403A7
:104BF0008B819C81892B8901882391F080915A03B4
:104C000090915B030E9461299C0180915D03882340
:104C1000C9F14091650150E04217530708F43FC0C5
:104C20008D819E81892B882399F0809158039091E2
:104C300059030E9461299C0180915C03882309F437
:104C400067C04091610150E04217530708F46EC0FD
:104C5000B8018FE593E00E946A28811105C08FE5B5
:104C600093E00E94CC2581110E94A12586E0F801E5
:104C7000AFE5B3E001900D928A95E1F72696E5E065
:104C80000C940933409166019AE0499FA0011124D8
:104C90004217530728F68F5F80935D0302C08F3F52
:104CA000D1F7FB80FF2059F00E94472491E01F14A8
:104CB0000CF09FEF899F802D112480936103FC806D
:104CC000FF2059F00E94472491E01F140CF09FEF41
:104CD000899F802D11248093620380916103882332
:104CE00009F49ECFF0906203FF2009F499CF0E944F
:104CF0003924811101C081E0809361038F2D0E94CE
:104D00003924882319F0809362038ACF81E0FBCF96
:104D1000409162019AE0499FA00111244217530774
:104D200008F096CF8F5F80935C0302C08F3FD1F76E
:104D3000FD80FF2059F00E948F2491E01F140CF099
:104D40009FEF899F802D112480936303FE80FF20B5
:104D500059F00E948F2491E01F140CF09FEF899F5F
:104D6000802D11248093640380916303882309F4C8
:104D70006FCFF0906403FF2009F46ACF0E943924BA
:104D8000811101C081E0809363038F2D0E9439243B
:104D9000882319F0809364035BCF81E0FBCF0F93EE
:104DA0001F93CF93DF93C42FD22FFC0185818823DB
:104DB000C9F0409367030E9438299093660380935B
:104DC000650380E28C0F883040F4C77081E001C039
:104DD000880FCA95EAF70E944705DF91CF911F918E
:104DE0000F9108951091670314133CC080916503DF
:104DF000909166030E946129883C910598F5C0E274
:104E0000CD0F1D1741F180E2810F883040F41770FB
:104E100081E001C0880F1A95EAF70E944E05C8305C
:104E200020F0802F0E943E05D8CF91E08D2F877013
:104E300001C0990F8A95EAF7892F0E944705802FB4
:104E40000E943E05D77081E001C0880FDA95EAF72D
:104E50000E944E05C2CF802F0E943E05C83008F048
:104E6000BCCFF0CF80E28C0F883008F0B6CFC7708F
:104E700081E001C0880FCA95EAF7EACF0F93FC01E1
:104E8000CB01E851FC47E730F10590F5E656FB4CC5
:104E90000C94A93206E221EE41EE6AE17CE70E9421
:104EA000CF2680E00F91089507E225EE45EE6BE1F5
:104EB0007CE7F5CF06E221EE40EE68E17CE7EFCF3C
:104EC00007E225EE44EE69E17CE7E9CF06E221EE58
:104ED00042EE6CE17CE7E3CF07E225EE46EE6DE1C2
:104EE0007CE7DDCF08E221E045EE6EE17CE7D7CF3D
:104EF000FB01858181111092670381E0D3CF9093EC
:104F00006E0380936D0308950E946C13811103C09A
:104F1000809168030895E0916D03F0916E033097DE
:104F200029F00190F081E02D0995089580E0089521
:104F3000E0916D03F0916E03309721F00280F381D0
:104F4000E02D09950895DC01E0916D03F0916E0369
:104F5000309739F082E08C930680F781E02DCD0107
:104F600009950895A3E0B0E0E8EBF7E20C94F03285
:104F70009C0180916B0390916C0382179307A1F0C1
:104F800030936C0320936B03E0916D03F0916E03FB
:104F9000309751F083E089833B832A830084F18535
:104FA000E02DCE01019609952396E2E00C940C3396
:104FB000A3E0B0E0EEEDF7E20C94F0329C018091BA
:104FC000690390916A0382179307A1F030936A03F3
:104FD00020936903E0916D03F0916E03309751F0D7
:104FE00084E089833B832A830084F185E02DCE0110
:104FF000019609952396E2E00C940C33409104014C
:10500000509105019A012E5F3F4F485F5F4F80E04E
:10501000F90190812F5F3F4F91118F5F4217530726
:10502000B9F70895882371F02091040130910501AA
:10503000F9013296285F3F4F9191981729F0E217B6
:10504000F307D1F780E0089581E008959C01FC0109
:1050500032968FEF90E04191461751F08F3F19F44F
:10506000411101C0892F9F5F9630A9F78F3F09F446
:105070000895280F311D87FD3A95F901628308953F
:105080009C01FC013296285F3F4F8191861303C03B
:10509000DF0111971C92E217F307B9F70895682F03
:1050A00080910401909105010E9426280895682F9F
:1050B00080910401909105010E9440280895E0919B
:1050C0000401F0910501329686E0DF011D928A9578
:1050D000E9F70895DC01FB0111969C9111978181FC
:1050E000981322C012968C911297882319F09281FE
:1050F00089131AC013968C911397882319F0938102
:10510000891312C015968C911597882319F09581F3
:1051100089130AC014969C91992321F081E024817F
:10512000291303C080E001C081E0817008950895D3
:105130000E94972808958F5F80936F030E9498289C
:10514000089583E080936F030E94982808950E9439
:105150009B28089581E080936F030E94982808950A
:105160000E94AA280895089508950E94B4280895D9
:10517000089508950E94B3280895CF930E94B828F7
:105180000E94D0120E94B928C0E08C2F0E94731197
:10519000811105C0CF5FCA30C1F7CF91089581E07A
:1051A000FCCF85B7806885BF85B7806885BF0895C7
:1051B0001F921FB61F9211248F939F93AF93BF939B
:1051C00080917003811113C08091C4039091C50335
:1051D000A091C603B091C7034196A11DB11D809354
:1051E000C4039093C503A093C603B093C703BF91B4
:1051F000AF919F918F911F901FBE1F901895809126
:10520000CC03843031F10E941A041092700388E1BB
:1052100090E020E40FB6F894A895809360000FBE4C
:105220002093600083B7817F846083BF83B78160F0
:1052300083BF7894889583B78E7F83BF0FB6F89429
:10524000A895809160008861809360001092600052
:105250000FBE08950E94A7070E942204089582E0CD
:1052600084BD93E095BD9AEF97BD80936E0008953D
:105270002FB7F8948091C4039091C503A091C60301
:10528000B091C7032FBF0895A4E0B0E0EAE4F9E2CB
:105290000C94F0328FB7F8942091C4033091C50379
:1052A0004091C6035091C70329833A834B835C83A3
:1052B0008FBF69817A818B819C812496E2E00C9476
:1052C0000C339C014FB7F8948091C4039091C503AF
:1052D000A091C603B091C7034FBF821B930B0895E3
:1052E000A4E0B0E0E6E7F9E20C94EE32462F572F47
:1052F000BC012FB7F8948091C4039091C503A0918D
:10530000C603B091C7032FBF8C019D01041B150B71
:10531000260B370BC901B8012496E4E00C940A333C
:1053200078941F921FB61F9211248F939F93AF936F
:10533000BF938091C4039091C503A091C603B0911F
:10534000C7030196A11DB11D8093C4039093C503AB
:10535000A093C603B093C703BF91AF919F918F9164
:105360001F901FBE1F90189581E08093E00080E29F
:105370008093D8001092C9008FE19EE40197F1F765
:1053800000C0000087E090EBDC018093D503909390
:10539000D603A093D703B093D80388E19CE00FB65F
:1053A000F894A895809360000FBE90936000FFCFA3
:1053B00088E19CE00FB6F894A895809360000FBE3A
:1053C00090936000FFCF8EE1489B03C08150811114
:1053D000FBCF489BFECF0895589880E28A95F1F75D
:1053E000589A0895FC012BE02A95F1F728E090E007
:1053F00080E031E040E14A95F1F7880F489B02C018
:105400008160932742E04A95F1F7000040E14A9518
:10541000F1F721502111EECF20E12A95F1F729B1C2
:1054200032E03A95F1F7000040E14A95F1F721703A
:1054300092272081920F90830895A1E0B0E0E3E2EB
:10544000FAE20C94EC3219828C017C01E60EF11C1C
:105450000E151F0541F481E09981911180E021969C
:10546000E6E00C9408330E94E329CE0101960E94E5
:10547000F229F80181938F01EBCF509A589A089541
:105480005098589AE89AE9E6F0E080818C7F808312
:1054900008956150770B91E001C0990F6A95EAF782
:1054A000692F90E021E0611108C0992399F0589A82
:1054B00080E28A95F1F758980895362F38233323E0
:1054C00039F0589A922730E23A95F1F76695EBCF8A
:1054D0005898F9CF5898ECCFFF920F931F93CF9322
:1054E000DF93EC018C01060F111DC017D10729F4C1
:1054F000CDB7DEB7E5E00C940933F9900E94EC29B2
:1055000068E08F2D0E94492AF0CF1F920F920FB6AC
:105510000F9211240F931F932F933F934F935F93F9
:105520006F937F938F939F93AF93BF93EF93FF936B
:10553000CF93DF930F92CDB7DEB719820E94E32994
:10554000CE0101960E94F229082F06950695069530
:10555000982F92959570202F2570920F292F2370E8
:1055600096959695920F982797708981892B81112E
:105570005CC0083008F059C080E18A95F1F7589A6C
:10558000509A82E08A95F1F700C0589888E0089F09
:1055900080011124D801AE5EBE4F1696ED91FC91AC
:1055A00017973097A9F06091EB017091EC01149678
:1055B0002D913C911597260F371F11968D919C9137
:1055C0001297680F791F13964C9113978C91099538
:1055D000F801EE5EFE4F6381662351F02091EB01EE
:1055E0003091EC0184819581820F931F0E946C2A77
:1055F0000E94EC2980E18A95F1F758985098589AC2
:1056000080E18A95F1F7F801EE5EFE4F6081662336
:1056100051F02091EB013091EC0181819281820F58
:10562000931F0E941D2A0E94E3290F90DF91CF91C2
:10563000FF91EF91BF91AF919F918F917F916F916A
:105640005F914F913F912F911F910F910F900FBE3E
:105650000F901F9018950F931F93CF93DF938C019A
:1056600008970CF065C0F894509A589885E08A9590
:10567000F1F70000C02FC695C570802F8570C80F48
:105680008C2F8370C695C69593E0000F111F9A95D5
:10569000E1F7C80FC8018C2BEC010E94EC2900C077
:1056A00068E08C2F0E94492A90E19A95F1F7509872
:1056B000589A489B35C087E090E0489933C0F8017C
:1056C000EE5EFE4F6381662361F02091EB01309125
:1056D000EC0184819581820F931F0E941D2A8823EB
:1056E00021F10E94E32980E28A95F1F75898509AB7
:1056F00090E19A95F1F7F801EE5EFE4F6081662326
:1057000051F02091EB013091EC0181819281820F67
:10571000931F0E946C2A0E94EC29789481E009C0B2
:1057200000C0C7CF0197009749F4509A589A7894CF
:1057300080E0DF91CF911F910F91089500C0BDCF00
:105740008091790308950895282FCB01BA013091F3
:10575000CC033430E1F42F702093E9002FEF309127
:10576000E80035FD07C035ED3A95F1F7000021500E
:105770002111F5CF2091E80025FF09C040E050E05D
:105780000E94A12D8091E8008E778093E800089513
:10579000BC0143E050E082E00E94A42B0895BC01CC
:1057A00046E050E082E00E94A42B0895CF93DF935F
:1057B000D82FC92F48E050E0682F792F81E00E9450
:1057C000A42B88E0ED2FFC2FA1E7B3E001900D9210
:1057D0008A95E1F7DF91CF9108958091CB038111F4
:1057E00009C00E94292F0E94862F8091E2008460C8
:1057F0008093E20008951092CB0308950E94AA2896
:1058000008956091C80381E0611101C080E00E94A9
:10581000A12808959091CC0381E0943009F080E0B4
:105820006091C8030E94A728089542E061EC81E0DE
:105830000E94A52E42E261EC82E00E94A52E90918A
:10584000CC0381E0943009F080E06091C8030E94AD
:105850009B2808958091CE03893089F148F48230E5
:1058600009F4A0C0833009F45AC0813041F0089592
:105870008A3009F487C08B3009F46CC00895809198
:10588000CD03813A09F04AC08091E800877F809378
:10589000E8008091D1039091D203892B61F060E000
:1058A00080E090E070E00E94F02D8091E8008B771E
:1058B0008093E800089568E081E793E0F3CF80915A
:1058C000CD03813259F58091D1039091D203029793
:1058D00028F58091E800877F8093E8008091E800B8
:1058E00082FF18C09091F3008091F200029731F48A
:1058F0008091F100813011F0863021F48091F10027
:10590000809379038091E8008B778093E8000E9470
:10591000D92E04C08091CC038111E0CF08958091ED
:10592000CD03813AD9F78091D1039091D203892B8D
:10593000A9F78091E800877F8093E8008091E800D4
:1059400080FFFCCF809171018093F1008091E8008D
:105950008E77DBCF8091CD03813201F78091D10327
:105960009091D203892BD1F68091E800877F8093B4
:10597000E8000E94D92E8091CF03809371010E948C
:10598000A70708958091CD03813241F68091E80008
:10599000877F8093E8000E94D92E8091D003809366
:1059A0007A0308958091CD03813A09F0B7CF8091B1
:1059B000E800877F8093E8008091E80080FFFCCFBB
:1059C00080917A03C1CF84B7877F84BF0FB6F894E4
:1059D000A8958091600088618093600010926000BB
:1059E0000FBE80E890E00FB6F8948093610090932A
:1059F00061000FBE0E94B02808950E94292F0E94C6
:105A0000862FE2EEF0E080818460808378940E94AB
:105A10000932089587E691E00E947F2708958091DA
:105A2000CC03853031F48091CC03853019F00E948D
:105A30002A2908950E94FF288091CA03882399F398
:105A40000E94BD28882379F30E948B2D0E94A7070E
:105A5000EACF08959A014091D3035091D4030E9454
:105A6000322D0895AC01CB01D901252F33272330E6
:105A70003105E1F058F421303105C9F1223031050A
:105A8000D9F180E090E020E030E01EC02132310505
:105A900021F122323105A9F7892BC1F1613071055D
:105AA00081F78BE790E02BEA34E00EC0CA0199271A
:105AB000413069F08230910569F0EAE5F4E0892B24
:105AC00001F7849190E09F012D933C930895EAE4BF
:105AD000F4E0F7CFEEE2F4E0F4CF892B91F06130FF
